:020000040800F2
:10000000E0980020E1010008C904000899030008F5
:10001000C504000879020008270B00080000000052
:10002000000000000000000000000000490100087E
:100030007D020008000000008D010008550700083F
:10004000FB010008FB010008FB010008FB010008A0
:10005000FB010008FB010008FB010008FB01000890
:10006000FB010008FB010008FB010008FB01000880
:10007000FB010008FB010008FB010008FB01000870
:10008000FB010008FB010008FB010008FB01000860
:10009000FB010008FB010008FB010008FB01000850
:1000A000FB010008FB010008FB010008FB01000840
:1000B000FB010008FB010008FB010008FB01000830
:1000C000FB010008FB010008FB010008FB01000820
:1000D000FB01000821080008FB010008FB010008E3
:1000E000FB010008FB010008FB010008FB01000800
:1000F000FB010008FB010008FB010008FB010008F0
:10010000FB010008FB010008FB010008FB010008DF
:10011000FB010008FB010008FB010008FB010008CF
:10012000FB010008FB010008FB010008FB010008BF
:10013000DFF810D000F08EF800480047C10E00082C
:10014000AFF30080E0980020224B19680868B0E8FF
:10015000F00F80F30988BFF36F8F4FF0000080F33A
:1001600011884EF00D0E7047000000000648006830
:10017000006880F3088862B661B6BFF34F8FBFF3A3
:100180006F8F00DF00BF00BF08ED00E0EFF30980D4
:10019000BFF36F8F0F4B1A6820E9F00F106008B59E
:1001A0004FF0500080F31188BFF34F8FBFF36F8F74
:1001B00002F0E2F84FF0000080F31188BDE808403B
:1001C00019680868B0E8F00F80F30988BFF36F8FF3
:1001D000704700BF44000020EFF305807047000027
:1001E0000648804706480047FEE7FEE7FEE7FEE7D1
:1001F000FEE7FEE7FEE7FEE7FEE7FEE7C1070008D1
:100200003101000840EA01039B0703D009E008C957
:10021000121F08C0042AFAD203E011F8013B00F8CB
:10022000013B521EF9D2704730B50B460146002003
:100230002022012409E021FA02F59D4205D303FAA8
:1002400002F5491B04FA02F52844151EA2F1010229
:10025000F1DC30BD064C074D06E0E06840F00103DC
:1002600094E8070098471034AC42F6D3FFF764FFD8
:10027000DC330008FC33000800BFFEE770472DE9BF
:10028000F04102460025002600200023002400271C
:1002900091F803C00CF00F0591F803C00CF0100C9E
:1002A000BCF1000F03D091F802C04CEA050591F8AB
:1002B00000C0BCF1000F31D0146800202BE04FF0DB
:1002C000010C0CFA00F3B1F800C00CEA03069E42E0
:1002D00020D183004FF00F0C0CFA03F7BC4305FA52
:1002E00003FC4CEA040491F803C0BCF1280F06D1CA
:1002F0004FF0010C0CFA00FCC2F814C00AE091F8AF
:1003000003C0BCF1480F05D14FF0010C0CFA00FC02
:10031000C2F810C0401C0828D1D31460B1F800C046
:10032000BCF1FF0F34DD546800202EE000F1080C12
:100330004FF0010808FA0CF3B1F800C00CEA03060C
:100340009E4221D183004FF00F0C0CFA03F7BC43FF
:1003500005FA03FC4CEA040491F803C0BCF1280F31
:1003600005D100F1080C08FA0CF8C2F8148091F8D5
:1003700003C0BCF1480F07D100F1080C4FF0010891
:1003800008FA0CF8C2F81080401C0828CED354603C
:10039000BDE8F0810161704700BFFEE708B50121AB
:1003A000442000F0D5F80120ADF8000028208DF899
:1003B000030069460648FFF762FF1C20ADF8000005
:1003C00048208DF8030069460248FFF758FF08BD32
:1003D000000801400018014010B50446012C01D16D
:1003E000224908702148007801282AD12048006855
:1003F00001280AD01F48006838B11E48001F006855
:1004000018B11C4808380068D8B90A2000F08AFCE6
:1004100000201649087016480068012800D110BD58
:100420001448006808B90220F9E71248001F006864
:1004300008B90320F3E70F4808380068A0B9042082
:10044000EDE70B48006878B90A48006801280BD12D
:100450000848001F0068012806D1064808380068CF
:10046000012801D1014908700020D8E73C00002094
:10047000000121421001234208B50121482000F06B
:1004800067F82020ADF8000010208DF8030003204D
:100490008DF8020069460948FFF7F1FE2021074860
:1004A000FFF778FF2020ADF8000069460448FFF709
:1004B000E6FE20210248FFF76DFF08BD000C014059
:1004C0000018014000BFFEE77047000070B5002132
:1004D00000230F22C47804B3154C246804F4E064AC
:1004E000C4F5E064210AC1F10403CA40447804FA67
:1004F00003F184781440214309010E4C0678A1557C
:10050000047804F01F050124AC4005786D11AD009E
:1005100005F1E025C5F8004109E0047804F01F0565
:100520000124AC40044D0678761145F8264070BD94
:100530000CED00E000E400E080E100E0024901434E
:10054000024A1160704700000000FA050CED00E05F
:1005500029B1064A92690243044B9A6104E0034AB6
:1005600092698243014B9A6170470000001002407B
:1005700030B500210022002400232D4D6D6805F0C8
:100580000C0121B1042905D0082923D105E0294D0A
:10059000056022E0274D05601FE0254D6D6805F4DC
:1005A0007012234D6D6805F48034022505EB9242EC
:1005B0001CB9214D554305600BE01D4D6D6805F4D8
:1005C00000351DB11C4D5543056002E0194D5543E2
:1005D000056002E0174D056000BF00BF144D6D6857
:1005E00005F0F0010909154D6B5C0568DD404560BB
:1005F0000F4D6D6805F4E061090A104D6B5C4568AC
:10060000DD4085600A4D6D6805F46051C90A0B4DE7
:100610006B5C4568DD40C560054D6D6805F4404183
:10062000890B074D6B5CC568B5FBF3F5056130BD03
:100630000010024000127A0000093D001400002062
:100640002400002010B500F001F810BD0CB500200A
:10065000019000903348006840F4803031490860D0
:1006600000BF3048006800F4003000900198401C42
:100670000190009818B90198B0F5A06FF1D1294800
:10068000006800F4003010B10120009001E000206B
:1006900000900098012843D12348006840F01000E2
:1006A000214908600846006820F0030008600846F9
:1006B000006840F0020008601A4840681949486024
:1006C0000846406848600846406840F480604860DA
:1006D0000846406820F47C1048600846406840F4B2
:1006E000E81048600846006840F08070086000BF6D
:1006F0000C48006800F000700028F9D009484068F4
:1007000020F00300074948600846406840F00200B6
:10071000486000BF0348406800F00C000828F9D189
:100720000CBD00000010024000200240042808D147
:100730004FF0E021096941F004014FF0E02211611E
:1007400007E04FF0E021096921F004014FF0E022B9
:100750001161704710B502F03FFB012801D001F094
:10076000D9FF10BD70B505460420FFF7DFFF104824
:1007700000681049B0FBF1F00F4908700C480068A0
:100780000C49B0FBF1F44FF47A70444301200B495B
:1007900008804FF0E020006940F002004FF0E021B7
:1007A000086108464461006940F00100086170BDBD
:1007B0002800002040420F003E00002040000020A2
:1007C00010B51348006840F0010011490860084660
:1007D0004068104908400E494860084600680E49C4
:1007E00008400B4908600846006820F48020086033
:1007F0000846406820F4FE0048604FF41F008860FF
:10080000FFF720FF4FF000600449086010BD0000B2
:10081000001002400000FFF8FFFFF6FE08ED00E0C8
:1008200010B540F225511D4800F0B8F810B31B4830
:1008300000F070F9C4B21A48008800F40040C8B94A
:100840001748008800F4804060B10A2C03D00020D3
:100850001349088020E01248008840F40040104905
:10086000088019E00D2C06D10D48008840F4804026
:100870000B49088010E00A480088C0F30D000949C0
:100880000C5407480088401C054908800846008829
:10089000C72801DD0020088010BD0000003801409D
:1008A00042000020BC00002010B586B004460121A3
:1008B0000420FFF74DFE01218803FFF749FE4FF4A6
:1008C0000070ADF8140003208DF8160018208DF884
:1008D000170005A91E48FFF7D2FC4FF48060ADF861
:1008E000140004208DF8170005A91948FFF7C7FC6C
:1008F00001940020ADF80800ADF80A00ADF80C0036
:10090000ADF810000C20ADF80E0001A9114800F060
:1009100095F801210F4800F028F840210D4800F01B
:100920001BF8012240F225510A4800F061F8252009
:100930008DF8000003208DF801008DF802000120E1
:100940008DF803006846FFF7C1FD06B010BD00003A
:10095000000801400038014001F40072B2F5007F48
:1009600000D100BFCA430280704721B1828942F49E
:100970000052828104E082894DF6FF731A40828121
:10098000704702460020B1F5007F00D100BF1388F8
:100990000B400BB1012000E00020704770B502460B
:1009A000002400230025002040F66A16B14200D141
:1009B00000BFC1F3421501F01F03012606FA03F33D
:1009C000012D02D19689334006E0022D02D1168A0C
:1009D000334001E0968A33400C12012606FA04F4F3
:1009E0001688344013B10CB1012000E0002070BD26
:1009F000F0B50346002400260025002040F66A17C3
:100A0000B94200D100BF1846C1F3421401F01F06DD
:100A1000012707FA06F5012C01D10C3004E0022C65
:100A200001D1103000E014301AB107682F4307607D
:100A300002E00768AF430760F0BD00002DE9F04712
:100A400086B005460E460024A24600BFA1460027F8
:100A5000B08900B100BF2F462C8A4CF6FF700440CD
:100A6000F08804432C82AC894EF6F3100440B08821
:100A700031890843718908430443AC81AC8A4FF63D
:100A8000FF400440B0890443AC8201A8FFF770FD29
:100A90001F48874202D1DDF810A001E0DDF80CA06C
:100AA000A88900F4004040B10AEBCA0000EB0A102C
:100AB00031684900B0FBF1F807E00AEBCA0000EB2F
:100AC0000A1031688900B0FBF1F86420B8FBF0F03F
:100AD00004012009642101FB1089A88900F4004069
:100AE00040B1322000EBC900B0FBF1F000F007008C
:100AF000044308E0322000EB09106421B0FBF1F060
:100B000000F00F0004432C8106B0BDE8F087000020
:100B10000038014001468888C0F308007047C1F3DF
:100B200008028280704700BFFEE700000FB4054B4B
:100B300010B503A9044A029800F018F810BC5DF83B
:100B400014FB0000AD0D0008B800002002E008C84A
:100B5000121F08C1002AFAD170477047002001E037
:100B600001C1121F002AFBD1704700002DE9FF4F81
:100B70008BB09A460F460546002606E025280BD086
:100B800052460D9990476D1C761C28780028F5D1A7
:100B90000FB03046BDE8F08F0024A0460122604926
:100BA00000E0044315F8013F203B02FA03F008423D
:100BB000F7D128782E2817D115F8010F44F0040436
:100BC0002A280ED06FF02F022878A0F130010929D1
:100BD0000AD808EB880102EB410100EB01086D1C0B
:100BE000F2E757F8048B6D1C287869283ED006DCA4
:100BF0000028CDD063280BD0642804D136E07328B8
:100C000010D075284BD052460D999047761C85E040
:100C100017F8040B8DF8000000208DF80100E9465C
:100C2000012003E057F8049B4FF0FF3061074FF0BD
:100C3000000401D40AE0641C44450DDA8442FADB66
:100C400019F804100029F6D106E0641C8442FCDB8C
:100C500019F804100029F8D1264404E019F8010B12
:100C600052460D999047641EF8D257E001CF4FF0DD
:100C70000A0B002802DA40422D2102E0210504D5AA
:100C80002B218DF82410012103E0E10705D020215C
:100C9000F7E70DF1200908910CE00021F9E701CFF9
:100CA0004FF00A0BF9E75946FFF7BEFA01F130029F
:100CB00009F8012D0028F6D1ADEB090000F1200B59
:100CC000600701D44FF00108D84502DDA8EB0B0006
:100CD00000E000208046002406E009A85246005D9E
:100CE0000D999047641C761C08988442F5DB04E05B
:100CF000302052460D999047761CB8F10001A8F1BA
:100D00000108F5DC05E019F8010B52460D999047F2
:100D1000761CBBF10001ABF1010BF4DC6D1C34E778
:100D20000928010070B5044602F056F8012810D0D9
:100D30000B480088844206D309480088B4FBF0F5CC
:100D4000284601F0E1F806480088B4FBF0F100FB0A
:100D500011444FF47A7104FB01F000F003F870BD08
:100D60004000002070B5034600224FF0E026756970
:100D70000D4E367803FB06F44FF0E026B16910E023
:100D80004FF0E026B06988420BD0884202D20E1A9A
:100D9000324402E02E1A0E4432440146A24200D3ED
:100DA00000E0EDE700BF70BD3E00002070B50446D6
:100DB0000D46E1B20548FFF7B2FE00BF80210348AF
:100DC000FFF7DFFD0028F9D0204670BD0038014054
:100DD00000241BE00020FFF7FFFA0446032C08D193
:100DE0000BA0FFF7A3FE01210C48006801F026FBD1
:100DF00009E0042C07D10AA0FFF798FE022107485A
:100E0000006801F01BFB142001F07EF8E2E700000F
:100E10004B455931B1BBB0B4CFC20A00100000201D
:100E20004B455932B1BBB0B4CFC20A000DE000202F
:100E300006490860C82001F067F801200449C1F89C
:100E400094014FF4487001F05FF8F0E7948121427B
:100E50000080214208B51DE04FF0FF3001231A4603
:100E6000032100900C48006801F05AFB044604F08E
:100E7000030003280BD109A0FFF758FE0C480068B7
:100E800008B9012000E000200949086002E009A03B
:100E9000FFF74CFEE0E70000100000204B45593101
:100EA000D3EB4B455932B6BCB0B4CFC20A000000F8
:100EB00094012342CAC2BCFEB4EDCEF3A3A10A0042
:100EC0001CB54820FFF74EFC4FF44070FFF736FB8F
:100ED000FFF7D2FAFFF762FA4FF4E130FFF7E4FCD4
:100EE00008A0FFF723FE0E48012100238022CDE950
:100EF00000100CA10E4801F03FFF01F0DFF90020C7
:100F00001CBD00004672656552544F53CAC2BCFEF8
:100F1000B1EAD6BED7E9CAB5D1E90D0A0000000092
:100F20000000002073746172745F7461736B000061
:100F3000E11A00082DE9F04105460E461C480768F5
:100F40001C480068001D00F01BFE50B919480068DD
:100F500090F82C10012088401749096881431648F1
:100F60000160681C38B936B112480168091D134880
:100F700000F052FE1AE07C190E4800684460BC4242
:100F800007D20C480168091D0D48006800F02AFED0
:100F90000CE008480168091D0A48006800F022FEBC
:100FA00009480068844201D207480460BDE8F08126
:100FB00058000020440000205C000020A404002011
:100FC0004C000020480000207400002010B50446AA
:100FD00000F02EFE23480068401C22490860224889
:100FE000006840B9204804600846006801280DD117
:100FF00000F0E2F90AE01D48006838B91A480068B4
:10100000C06AE16A884201D817480460184800683D
:10101000401C1749086094F82C100120884015499D
:101020000968084313490860E16A01EB8101124A2B
:1010300002EB8100211D00F0EFFD00F03BFE0B48AC
:10104000006868B108480068C06AE16A884207D24F
:101050004FF0805009490860BFF34F8FBFF36F8F87
:1010600010BD00005400002044000020600000205B
:10107000700000205C000020D401002004ED00E09E
:1010800010B500F0D5FD10480068D0B90F4800F049
:1010900099FD0F4800F096FD0C480E4908600C4879
:1010A0000D49086000220C210A2001F04DFB064981
:1010B00008600846006820B108A10348006800F0F5
:1010C000E7FE00F0F7FD10BD88000020B804002006
:1010D000CC0400208000002084000020546D725158
:1010E0000000000070B523E001F03EF913480068ED
:1010F00008B9012000E00020054602F059F8BDB90A
:1011000000F096FD0D48C068C468201D00F038FD51
:101110000B480068401E0A4908600A480068401EE3
:101120000849086000F0C6FD204600F060F800BFE6
:10113000044800680028D7D170BD0000900400204A
:10114000540000205000002070B504460D46206C6D
:1011500070B1216CE0680844E0606168E068884232
:1011600001D32068E0602846226CE168FFF74AF866
:1011700070BD2DE9F04104460F4615464FF00008BA
:10118000A66B206C40B9206860BB606801F0EAFE85
:1011900080460020606025E07DB93946226CA06859
:1011A000FFF730F8216CA0680844A060D4E9011072
:1011B000884217D32068A06014E03946226CE068AA
:1011C000FFF720F8216CE068401AE0602168E068D1
:1011D000884203D2216C6068401AE060022D01D180
:1011E00006B1761E701CA0634046BDE8F08110B5C4
:1011F0000446206B00F094FD204600F091FD10BDE8
:101200000146084A126812680AB9012200E0002269
:101210000A600A6822B9034A1268D268106800E0BE
:10122000002070478000002030B54FF4104317486D
:1012300000F007042CB1C01D20F00700134C041B64
:101240001B1B0246124C22600024114D6C60D0180A
:10125000083820F007000F4C206000240D4D2D6849
:101260006C600C4D2D682C601146441A4C60094C82
:1012700024680C60084D4C682C60084D4C682C604C
:101280004FF00044064D2C6030BD0000E00400200B
:10129000940000209C000020A4000020A00000205A
:1012A000A800002000BFFFF71DFF064800680128C6
:1012B000F9D94FF0805004490860BFF34F8FBFF356
:1012C0006F8FF0E7D401002004ED00E02DE9F0413C
:1012D00006460D4617469846069C0DB9246000E068
:1012E0002760E66325640121204601F04BFBBDE841
:1012F000F08100002DE9FF5F81460F469246DDE94F
:101300000E6B109CAAF10100216B01EB800828F004
:10131000070808F0070008B9012000E0002028B9FC
:1013200040F22B321BA120A0FFF700FC002507E0B4
:10133000795D04F134004155785D00B902E06D1C1F
:10134000102DF5D300BF002143200155202E00D3DE
:101350001F26E66266640020A064201D00F03FFCAA
:1013600004F1180000F03BFC2461C6F12000A061EC
:1013700064620020E06484F8500049464046039AC5
:1013800000F09CFB2060BBF1000F01D0CBF80040C7
:10139000BDE8FF9F4672656552544F535C7461739C
:1013A0006B732E63000000004572726F723A2573F2
:1013B0002C25640D0A00000010B5002407E004EBA2
:1013C00084010F4A02EB810000F0FCFB641C202C1E
:1013D000F5D30C4800F0F6FB0B4800F0F3FB0B488C
:1013E00000F0F0FB0A4800F0EDFB0A4800F0EAFBD1
:1013F00004480949086004480849086010BD000015
:10140000D401002054040020680400207C04002043
:1014100090040020A4040020480000204C0000207C
:1014200010B50146164800E0006803688B42FBD304
:101430000246436813448B4204D143684C682344FA
:10144000436001460A464B6813440468A34211D125
:101450000C4C03682468A34208D04B680468646895
:1014600023444B6003681B680B6005E0054B1B6859
:101470000B6001E003680B60884200D0016010BD82
:10148000940000209C0000202DE9F04104460D4608
:1014900016461F464FF0000865602461B5420CD81F
:1014A000F01BA169884202D34FF0010811E0211D11
:1014B0000948006800F096FB0BE0BE4204D2BD4232
:1014C00002D34FF0010804E0211D0448006800F039
:1014D00089FB4046BDE8F0818400002080000020A8
:1014E00070B5054600F0A4FBA86B08B9012400E024
:1014F000002400F0DFFB204670BD70B5054600F00B
:1015000097FBA86BE96B884201D1012400E000241D
:1015100000F0D0FB204670BDF8B505460F461348D5
:101520000068C068C468201D00F02AFBE06901283B
:1015300018D1A06941192B463A462046FFF7A4FF6F
:1015400080B1002003462A4601460090204601F063
:10155000F7FE06462EB94FF4027205A109A0FFF767
:10156000E5FA00BF2046616A8847F8BD8000002088
:101570004672656552544F535C74696D6572732E83
:10158000630000004572726F723A25732C25640D5A
:101590000A00000070B586B060E0039800285DDBAB
:1015A000059C606908B9012000E0002010B9201DE9
:1015B00000F0E6FA02A800F0C5F8054603980A28EC
:1015C0004AD2DFE800F00905072C2E4506082D2F2A
:1015D00000BF00BF00BF00BF0498A2698118034686
:1015E0002A462046FFF750FFC0B12046616A88476F
:1015F000E069012812D1002000900498A1694218E6
:1016000000231946204601F09BFE06462EB940F203
:10161000213218A11CA0FFF789FA00BF1DE000BF0E
:101620001BE000BF0498A061A06908B1012000E0A0
:10163000002028B94FF44E720EA113A0FFF776FADE
:10164000A06941192B462A462046FFF71DFF04E0FA
:10165000204600F065FB00E000BF00BF00231A46F3
:1016600003A90D48006801F0A9F8002895D106B03B
:1016700070BD00004672656552544F535C74696DCD
:101680006572732E630000004572726F723A2573A3
:101690002C25640D0A00000088000020F8B50546DE
:1016A0000C4600F061FE684600F04CF806460098D3
:1016B00020BB44B9B54206D801F07AFD3146284630
:1016C000FFF72AFF1CE03CB10E480068006808B92B
:1016D000012000E000200446A91B22460A480068B9
:1016E00000F0ECFB01F064FD50B94FF08050074969
:1016F0000860BFF34F8FBFF36F8F01E001F058FD1B
:10170000F8BD0000840000208800002004ED00E007
:101710000A490968096809B9012100E0002121B1DD
:101720004FF0FF31064A116006E004490968C968B4
:10173000C868034A416811607047000048000020F3
:101740007400002070B5044601F056FB05460748BA
:101750000068854204D200F00BF80120206001E00F
:101760000020206001480560284670BD90000020E0
:101770002DE9F8432DE021480068C06805681F483E
:101780000068C068C468201D00F0FAF92046616A4C
:101790008847E06901281CD1A0694619AE4207D9E3
:1017A00066602461211D1548006800F01BFA10E0F6
:1017B000002003462A4601460090204601F0C0FD65
:1017C00007462FB940F292320DA112A0FFF7AEF9F1
:1017D00000BF0A480068006808B9012000E0002046
:1017E0000028C8D00548D0F800800E48006803499A
:1017F00008600C48C0F80080BDE8F8838000002035
:101800004672656552544F535C74696D6572732EF0
:10181000630000004572726F723A25732C25640DC7
:101820000A000000840000200B480068401C08B932
:10183000012000E0002020B9F42208A111A0FFF748
:1018400075F900BF502080F31188BFF34F8FBFF3AD
:101850006F8F00BF00BFFEE7AC00002046726565D9
:1018600052544F535C706F727461626C655C525677
:1018700044535C41524D5F434D335C706F72742E24
:10188000630000004572726F723A25732C25640D57
:101890000A00000010B50346002022B903EA010443
:1018A00034B1012004E003EA01048C4200D101209C
:1018B00010BD08B500BF6846FFF7A2FC04462046ED
:1018C0000099FFF7EBFEFFF765FEF4E770B50446FD
:1018D00000F0AEF994F9455010E0606A08B90120B3
:1018E00000E0002038B904F1240001F0A7FB18B192
:1018F00000F0CAFB00E003E0681E45B2002DECDCFE
:1019000000BFFF2084F8450000F0D4F900F090F902
:1019100094F9445010E0206908B9012000E000204B
:1019200048B904F1100001F089FB08B100F0ACFBEC
:10193000681E45B200E001E0002DECDC00BFFF2096
:1019400084F8440000F0B6F970BD00002DE9F041C4
:1019500004464FF0000800F007FD3E48006808B953
:10196000FFF762FC3C480068204000285FD1A4B12A
:10197000083404F0070080B104F00700C0F108004B
:10198000044404F0070008B9012000E0002020B959
:10199000BF2232A13AA0FFF7C9F8002C47D03C483B
:1019A0000068844243D83B4E3046056801E02E462D
:1019B0002D686868A04202D228680028F7D125481F
:1019C0000068854233D0306800F10808286830602C
:1019D0006868001B102813D92F1907F0070008B9F1
:1019E000012000E0002020B9EC221CA124A0FFF778
:1019F0009DF86868001B78606C603846FFF710FD42
:101A0000234968680968081A21490860084600687F
:101A100021490968884203D21D4800681E490860B0
:101A20000D4968680968084368600020286001F073
:101A3000BFFB08F0070008B9012000E0002028B92A
:101A40004FF4967205A10EA0FFF770F84046BDE86E
:101A5000F08100009C000020A8000020467265650F
:101A600052544F535C706F727461626C655C4D656B
:101A70006D4D616E675C686561705F342E63000058
:101A80004572726F723A25732C25640D0A000000AE
:101A9000A000002094000020A40000200648006858
:101AA00030B10549096801F14800896C491C0160A1
:101AB000014800687047000044000020001F4FF0FC
:101AC00080730360001F21F001030360001F034BBC
:101AD000036014380260203870470000291800089D
:101AE0001CB5044600F0A4F800F09AFC1349086005
:101AF0001348022100233222CDE9001011A114481D
:101B000001F03AF91348032100233222CDE90010F5
:101B100011A1144801F030F9134804210023CA012F
:101B2000CDE9001011A1144801F026F9134800680E
:101B300000F024FA00F0BEF81CBD000010000020E8
:101B4000040000206C6564315F7461736B000000F9
:101B50002D0E0008080000206C6564325F7461730C
:101B60006B000000550E00080C0000206B65795FCB
:101B70007461736B00000000D10D000800000020AC
:101B800001460A69D1E901309860D1E90103586042
:101B90005068884201D18868506000200861106850
:101BA000401E10601068704705490968886904493B
:101BB0000968C96AC1F12001014A12689161704740
:101BC0004400002000F1080141604FF0FF318160C6
:101BD00000F10801C160016100210160704700212E
:101BE0000161704710B502460B685C1C0CB91069A6
:101BF00007E002F1080000E04068446824689C4265
:101C0000FAD944684C604C68A160886041600A6100
:101C10001468641C146010BD42684A6093688B604D
:101C2000936859609160086103685B1C03607047AA
:101C300010B500BF502080F31188BFF34F8FBFF362
:101C40006F8F00BF0B480068401C0A4908600846B7
:101C5000006801280DD108480068C0B208B9012009
:101C600000E0002028B94FF4BD7204A10DA0FEF7DA
:101C70005DFF10BDAC00002004ED00E0467265651C
:101C800052544F535C706F727461626C655C525653
:101C900044535C41524D5F434D335C706F72742E00
:101CA000630000004572726F723A25732C25640D33
:101CB0000A00000010B50B48006828B940F28112F4
:101CC00009A113A0FEF732FF06480068401E05492F
:101CD00008600846006820B9002080F3118800BF22
:101CE00000BF10BDAC0000204672656552544F53D2
:101CF0005C706F727461626C655C525644535C41F7
:101D0000524D5F434D335C706F72742E6300000060
:101D10004572726F723A25732C25640D0A0000001B
:101D200070B506463546002E35D0083D2C461A497A
:101D300060680968084008B1012000E0002028B967
:101D40004FF4A07215A11EA0FEF7F0FE206808B99E
:101D5000012000E0002028B940F241120FA118A094
:101D6000FEF7E4FE0C4960680968084098B12068F5
:101D700088B90949606809688843606000F0F4FA2E
:101D80001349606809680844114908602046FFF754
:101D900047FB01F00DFA70BDA80000204672656592
:101DA00052544F535C706F727461626C655C4D6528
:101DB0006D4D616E675C686561705F342E63000015
:101DC0004572726F723A25732C25640D0A0000006B
:101DD000A0000020064800684FF47A71B0FBF1F0D3
:101DE000401E4FF0E0214861072008617047000065
:101DF0002800002070B5FEF7EFF90546102D11D32D
:101E000005F1E02090F8F04310480078844201DBAF
:101E1000012000E0002028B94FF42A720CA116A07E
:101E2000FEF784FE1848006800F4E060174909686E
:101E3000884201D8012000E0002028B94FF42E721A
:101E400003A10DA0FEF772FE70BD0000B0000020DF
:101E50004672656552544F535C706F727461626C68
:101E6000655C525644535C41524D5F434D335C7048
:101E70006F72742E630000004572726F723A2573A0
:101E80002C25640D0A0000000CED00E0B4000020D9
:101E9000024600200BE0084B53F8303033B9064BB4
:101EA00043F8301003EBC0035A6002E0401C0A28DC
:101EB000F1D300BF70470000840100202DE9F041FC
:101EC00005460E4617462C46FFF7B2FE94F944002D
:101ED000401C10B9002084F8440094F94500401CCF
:101EE00010B9002084F84500FFF7E4FEA06B28B984
:101EF0003A46314604F1240000F0F6F82046FFF798
:101F0000E5FCBDE8F081000070B504460025ACB1E9
:101F10000F48006808B9012000E0002028B940F20D
:101F2000CF420CA110A0FEF701FE00F01DFA002127
:101F30002046FEF7FFFF01F03BF905463DB94FF0A3
:101F400080500D490860BFF34F8FBFF36F8F70BD96
:101F50007C0000204672656552544F535C74617377
:101F60006B732E63000000004572726F723A257326
:101F70002C25640D0A00000004ED00E070B5054654
:101F8000FFF756FE15B92D48006800E028460446C4
:101F9000201DFFF7F5FD78B9E06A00EB80002849C5
:101FA00051F8200040B994F82C10012088402549B0
:101FB0000968814323480160A06A18B104F1180040
:101FC000FFF7DEFD20480068401C1F4908601B48E1
:101FD0000068844209D1211D1C48FFF71DFE1C48E2
:101FE0000068401C1A49086009E01A480068401E51
:101FF000184908602046FFF7FAF8FFF789FBFFF75A
:1020000059FE15480068C0B10C480068844214D1DC
:102010001248006808B9012000E0002028B940F209
:1020200065420FA113A0FEF781FD4FF080501549C6
:102030000860BFF34F8FBFF36F8F70BD4400002067
:10204000D40100205C0000207000002090040020DB
:102050005000002054000020600000207C00002080
:102060004672656552544F535C7461736B732E6393
:10207000000000004572726F723A25732C25640DC2
:102080000A00000004ED00E00120014908607047EB
:102090006800002070B504460D462CB940F60632A3
:1020A00007A10CA0FEF742FD0E480168183120463A
:1020B000FFF798FD01212846FEF73CFF70BD0000A8
:1020C0004672656552544F535C7461736B732E6333
:1020D000000000004572726F723A25732C25640D62
:1020E0000A0000004400002070B505460E46144664
:1020F0002DB940F6313209A10DA0FEF717FD1048A9
:10210000016818312846FFF787FD0CB14FF0FF3604
:1021100021463046FEF70EFF70BD00004672656531
:1021200052544F535C7461736B732E630000000054
:102130004572726F723A25732C25640D0A000000F7
:102140004400002070B504460D4616462CB940F6F2
:10215000173210A114A0FEF7E9FC1748006808B177
:10216000012000E0002028B940F61B3209A10EA092
:10217000FEF7DCFC45F000401049096888610F4813
:10218000016818312046FFF747FD01213046FEF770
:10219000D1FE70BD4672656552544F535C746173D5
:1021A0006B732E63000000004572726F723A2573E4
:1021B0002C25640D0A0000007C0000204400002053
:1021C00070B505462C46002D4BD02649E06A0968BB
:1021D000C96A884245D2A06900F0004028B9214868
:1021E0000068C06AC0F12000A061E16A01EB8101D2
:1021F0001D4A02EB81016069884201D1012000E0A3
:10220000002050B3201DFFF7BBFC78B9E06A00EB5B
:102210008000154951F8200040B994F82C10012095
:102220008840124909688143104801600D480068E0
:10223000C06AE06294F82C10012088400B490968BC
:1022400008430A490860E16A01EB8101064A02EB92
:102250008100211DFFF7E0FC03E002480068C06A2E
:10226000E06270BD44000020D40100205C0000202A
:1022700010B504462CB940F6C13205A109A0FEF7FD
:1022800055FC0C48006820600B480068606010BD79
:102290004672656552544F535C7461736B732E6361
:1022A000000000004572726F723A25732C25640D90
:1022B0000A0000006C000020580000201CB51A48DD
:1022C00000210B468022CDE9001018A1194800F02A
:1022D00053FD0446012C02D100F0FAFF0446012C04
:1022E00015D100BF502080F31188BFF34F8FBFF38B
:1022F0006F8F00BF4FF0FF300F49086001200F497A
:10230000086000200E49086000F0B4F90BE0601C82
:1023100008B1012000E0002028B940F2847209A130
:102320000DA0FEF703FC1CBD7800002049444C457D
:1023300000000000A51200087400002060000020CA
:10234000580000204672656552544F535C746173A7
:102350006B732E63000000004572726F723A257332
:102360002C25640D0A00000002480068401C014949
:10237000086070477C00002010B51B48006818B149
:1023800001201A4908602DE000201849086018480B
:102390000068B0FA80F0C0F11F0404EB8400154916
:1023A00051F8200008B1012000E0002028B940F6D3
:1023B000F62211A115A0FEF7B9FB04EB84010D4A2A
:1023C00002EB810041684968416000F10801426800
:1023D0008A4202D14168496841604168C9680F4A30
:1023E000116000BF10BD00007C00002068000020CC
:1023F0005C000020D40100204672656552544F53A2
:102400005C7461736B732E63000000004572726F21
:10241000723A25732C25640D0A0000004400002048
:1024200010B51820FFF792FA044624B1002020606E
:10243000201DFFF7C7FB204610BD00002DE9FE4F11
:1024400007468846002001903C4600902FB940F294
:102450001D2229A12EA0FEF769FB08F07F4008B9D4
:10246000012000E0002028B940F21E2222A128A06D
:10247000FEF75CFB04F1040909F108000290FFF784
:1024800073FFD9F80C60206840EA0800206026E05D
:10249000D6F804B035680020009005F07F4A25F09A
:1024A0007F450AF0806028B92068284040B10120AB
:1024B000009005E020682840A84201D1012000904A
:1024C000009858B10AF0807010B10198284301902B
:1024D000206840F00071304600F00AFE5E46029827
:1024E0008642D5D1206801998843206000F060FEC3
:1024F0002068BDE8FE8F00004672656552544F5358
:102500005C6576656E745F67726F7570732E6300BD
:102510004572726F723A25732C25640D0A00000013
:102520002DE9FF4F83B081460D461746DDF8408008
:102530004C464FF0000A00200190B9F1000F05D180
:1025400040F24D1240A146A0FEF7F0FA05F07F40A0
:1025500008B9012000E0002028B94FF4A7723AA181
:102560003FA0FEF7E3FA0DB1012000E0002028B9FA
:1025700040F24F1234A13AA0FEF7D8FA00F02CFC3A
:1025800010B9B8F1000F01D1012000E0002028B9F6
:102590004FF4A9722CA132A0FEF7C8FAFFF7E4FEAF
:1025A000206800902946069A0098FFF773F9029078
:1025B000029838B1009E4FF00008B7B12068A843D8
:1025C000206012E0B8F1000F01D1009E0DE00FB1C4
:1025D0004AF0807A069808B14AF0806A45EA0A0112
:1025E0004246201DFFF7AEFD002600F0E1FD8346C8
:1025F000B8F1000F23D0BBF1000F07D14FF080508E
:102600001B490860BFF34F8FBFF36F8FFFF7CCFA02
:10261000064606F0007080B9FFF70AFB26682946D7
:102620003046069AFFF736F918B117B12068A8436B
:102630002060FFF73FFB0020019026F07F463046E8
:1026400007B0BDE8F08F00004672656552544F53E5
:102650005C6576656E745F67726F7570732E63006C
:102660004572726F723A25732C25640D0A000000C2
:1026700004ED00E01CB52248014609780191FF21D4
:10268000024611700146097800919DF8001001F092
:1026900050011C4A117007211B4A116009E01A49B8
:1026A0000968491E184A11609DF800104906090E74
:1026B00000919DF8001001F080018029EFD01249AF
:1026C00009680902104A11601146098801F4E061A5
:1026D00011600B4A019911700C48006840F47000B9
:1026E0000A4908600846006840F070400860FFF73B
:1026F00071FB002006490860FDF738FD00201CBD75
:1027000000E400E0B0000020B400002020ED00E074
:10271000AC00002010B500BF502080F31188BFF33B
:102720004F8FBFF36F8F00BF00F06CFB18B14FF0FD
:1027300080500449086000BF002080F3118800BF6A
:1027400010BD000004ED00E02DE9F84305460E46FB
:1027500090460DB1012000E0002028B94FF4C4726A
:102760000DA112A0FEF7E2F90EB9002701E005FB6A
:1027700006F707F14800FFF7E9F8044644B104F111
:10278000480943464A46314628460094FEF79EFDD6
:102790002046BDE8F88300004672656552544F53E9
:1027A0005C71756575652E63000000004572726F7F
:1027B000723A25732C25640D0A0000002DE9FF47AD
:1027C00082B005460E461F464FF0000A2C462CB933
:1027D00040F2DC4261A166A0FEF7A8F90EB9206CB8
:1027E00008B9012000E0002028B940F2DD425BA1D9
:1027F0005FA0FEF79BF900F0EFFA08B9049808B95A
:10280000012000E0002028B94FF49C6253A158A099
:10281000FEF78CF900BFFFF70BFAD4F83890B9F146
:10282000000F3DD0D4F80C8031462046FEF78CFCDA
:10283000DFB9A9F10100A063206810B9FFF72EF9F4
:102840006060206908B9012000E0002010BB04F19D
:10285000100000F0F3FBE8B14FF0805048490860E9
:10286000BFF34F8FBFF36F8F14E0C4F80C80606A22
:1028700008B9012000E0002060B904F1240000F054
:10288000DDFB38B14FF080503D490860BFF34F8FFA
:10289000BFF36F8FFFF70EFA012006B0BDE8F08797
:1028A000049818B9FFF706FA0020F6E7BAF1000F0E
:1028B00004D16846FFF7DCFC4FF0010AFFF7FAF994
:1028C000FFF752FDFFF7B4F994F94400401C10B92A
:1028D000002084F8440094F94500401C10B9002001
:1028E00084F84500FFF7E6F904A9684600F0F4F91A
:1028F00040BB2046FEF7F4FDF0B1206830B9FFF789
:1029000097F96068FFF75CFCFFF7D4F904F1240045
:102910000499FFF7BFFB2046FEF7D8FF00F048FC04
:1029200000287FF478AF4FF0805015490860BFF35E
:102930004F8FBFF36F8F6EE72046FEF7C7FF00F0A3
:1029400037FC68E72046FEF7C1FF00F031FC204667
:10295000FEF7C6FD0028EED000209EE746726565B2
:1029600052544F535C71756575652E63000000000D
:102970004572726F723A25732C25640D0A000000AF
:1029800004ED00E070B505460E462C462CB940F229
:102990001B121EA122A0FEF7C9F8FFF749F9D4E9DE
:1029A0000F12206801FB020060600020A063206815
:1029B000A060E06B401E226C216800FB0210E0600A
:1029C000FF2084F8440084F845009EB9206908B9C6
:1029D000012000E00020A8B904F1100000F02EFB57
:1029E00080B14FF0805012490860BFF34F8FBFF3A2
:1029F0006F8F07E004F11000FFF7E4F804F1240002
:102A0000FFF7E0F8FFF756F9012070BD46726565E3
:102A100052544F535C71756575652E63000000005C
:102A20004572726F723A25732C25640D0A000000FE
:102A300004ED00E02DE9FF4383B0064688461D46BD
:102A40004FF0000934462CB940F2D92258A15DA0BC
:102A5000FEF76CF8B8F1000F01D1206C08B9012025
:102A600000E0002028B940F2DA2251A155A0FEF77B
:102A70005DF8022D02D1E06B012801D1012000E0B8
:102A8000002028B940F2DB2249A14EA0FEF74EF803
:102A900000F0A2F908B9059808B9012000E000206B
:102AA00028B940F2DE2242A146A0FEF73FF800BF5F
:102AB000FFF7BEF8A06BE16B884201D3022D28D14D
:102AC0002A4641462046FEF754FB0746606A08B98D
:102AD000012000E0002068B904F1240000F0AEFA03
:102AE00088B14FF080503B490860BFF34F8FBFF370
:102AF0006F8F08E03FB14FF0805036490860BFF358
:102B00004F8FBFF36F8FFFF7D5F8012007B0BDE8F7
:102B1000F083059818B9FFF7CDF80020F6E7B9F172
:102B2000000F04D101A8FFF7A3FB4FF00109FFF745
:102B3000C1F8FFF719FCFFF77BF894F94400401C3B
:102B400010B9002084F8440094F94500401C10B9E5
:102B5000002084F84500FFF7ADF805A901A800F0B2
:102B6000BBF8F0B92046FEF7C8FCA0B104F1100094
:102B70000599FFF78FFA2046FEF7A8FE00F018FB34
:102B8000002895D14FF0805012490860BFF34F8F55
:102B9000BFF36F8F8CE72046FEF798FE00F008FB2E
:102BA00086E72046FEF792FE00F002FB0020ADE72C
:102BB0004672656552544F535C71756575652E6339
:102BC000000000004572726F723A25732C25640D67
:102BD0000A00000004ED00E02DE9F05F07468A4698
:102BE00090461E463C462CB940F29F3231A136A099
:102BF000FDF79CFFBAF1000F01D1206C08B901204C
:102C000000E0002028B94FF468722AA12EA0FDF739
:102C10008DFF022E02D1E06B012801D1012000E0DE
:102C2000002028B940F2A13222A127A0FDF77EFFA3
:102C3000FFF7E0F800BF5021EFF3118081F3118816
:102C4000BFF34F8FBFF36F8F00BF0546A06BE16BE3
:102C5000884201D3022E23D194F945B03246514621
:102C60002046FEF786FA0BF1010088B9606A08B9C0
:102C7000012000E0002080B904F1240000F0DEF91A
:102C800058B1B8F1000F08D00120C8F8000004E0E6
:102C90000BF1010040B284F845004FF0010901E05A
:102CA0004FF0000900BF85F3118800BF4846BDE81A
:102CB000F09F00004672656552544F535C71756514
:102CC00075652E63000000004572726F723A2573BD
:102CD0002C25640D0A0000002DE9F04104460D4644
:102CE0002CB940F6CB3219A11DA0FDF71FFF2DB95D
:102CF00040F6CC3215A11AA0FDF718FFFEF798FF99
:102D00001B4807682868401C08B9002619E01949C3
:102D100020680968884204D06068B84201D801265A
:102D20000FE06068381A2968884209D2286861680B
:102D3000791A401A28602046FFF79AFA002600E028
:102D40000126FEF7B7FF3046BDE8F08146726565A3
:102D500052544F535C7461736B732E630000000018
:102D60004572726F723A25732C25640D0A000000BB
:102D7000580000206C0000202DE9FF4F85B08046F0
:102D800089461746DDE912ABB800FEF7DFFD0646BF
:102D900056B15420FEF7DAFD04460CB1266304E078
:102DA0003046FEF7BDFF00E000247CB10020CDE9F5
:102DB00000ABCDE902403A4649464046089BFEF743
:102DC00099FA2046FEF702F9012501E04FF0FF35A0
:102DD000284609B0BDE8F08F0549096809B9012006
:102DE00005E00449096809B9022000E000207047A5
:102DF000600000207C000020014908687047000046
:102E0000580000202DE9F0414FF0000841480068CB
:102E1000002872D140480068451C3F480560EDB964
:102E20003E480068006808B9012000E0002028B989
:102E300040F6D9123AA13FA0FDF778FE374807685F
:102E400040480068354908603E4807603E480068D1
:102E5000401C3D490860FEF75BFC00BF3B48006832
:102E600085423CD300BF2D480068006808B90120A6
:102E700000E0002020B14FF0FF30344908602DE021
:102E800026480068C068C4686668B54202D22F4808
:102E9000066023E0201DFEF773FEA06A18B104F15E
:102EA0001800FEF76DFE94F82C1001208840284988
:102EB0000968084326490860E16A01EB8101254A57
:102EC00002EB8100211DFEF7A7FE2349E06A096895
:102ED000C96A8842C7D34FF00108C4E700BF1E4843
:102EE0000068C06A00EB80001A4951F820000128F0
:102EF00001D94FF0010805E0FFE718480068401CC1
:102F0000164908601648006808B14FF001084046AD
:102F1000BDE8F0817C00002058000020480000201F
:102F20004672656552544F535C7461736B732E63C4
:102F3000000000004572726F723A25732C25640DF3
:102F40000A0000004C0000206C00002074000020EB
:102F50005C000020D4010020440000206400002018
:102F60006800002070B505462C460026002D4BD089
:102F700026480068844201D1012000E0002028B9E1
:102F800040F6C76222A127A0FDF7D0FDA06C28B9AA
:102F900040F6C9621EA123A0FDF7C8FDA06C401E2B
:102FA000A064616CE06A88422ED0A06C60BB201DDA
:102FB000FEF7E6FD78B9E06A00EB80001D4951F8A4
:102FC000200040B994F82C10012088401A49096863
:102FD000814319480160606CE062E06AC0F1200042
:102FE000A06194F82C100120884013490968084317
:102FF00011490860E16A01EB81010E4A02EB810090
:10300000211DFEF709FE0126304670BD4400002058
:103010004672656552544F535C7461736B732E63D3
:10302000000000004572726F723A25732C25640D02
:103030000A000000D40100205C00002070B50646A4
:10304000F068C4682CB940F661321AA11EA0FDF7E1
:103050006DFD04F11800FEF793FD1F480068A8B944
:10306000201DFEF78DFD94F82C10012088401B498F
:103070000968084319490860E16A01EB8101184AAF
:1030800002EB8100211DFEF7C7FD04E004F11801E9
:103090001448FEF7C1FD1449E06A0968C96A88420C
:1030A00004D9012501201149086000E000252846C7
:1030B00070BD00004672656552544F535C74617375
:1030C0006B732E63000000004572726F723A2573B5
:1030D0002C25640D0A0000007C0000205C0000200C
:1030E000D40100207C04002044000020680000205F
:1030F0002DE9F04105460F461F48006808B1012040
:1031000000E0002028B940F699321CA120A0FDF76C
:103110000DFD47F000402860EC682CB940F6A13264
:1031200016A11BA0FDF702FD2846FEF729FD201D74
:10313000FEF726FD94F82C100120884018490968F4
:10314000084317490860E16A01EB8101154A02EB67
:103150008100211DFEF760FD1349E06A0968C96A14
:10316000884204D9012601201049086000E00026A9
:103170003046BDE8F08100007C00002046726565A5
:1031800052544F535C7461736B732E6300000000E4
:103190004572726F723A25732C25640D0A00000087
:1031A0005C000020D40100204400002068000020C2
:1031B00070B5002400263448006828B94FF4FD6239
:1031C00032A137A0FDF7B2FCFEF732FD2E480068B1
:1031D000401E2D4908600846006800284FD1344839
:1031E000006800284BD024E03248C068C46804F16D
:1031F0001800FEF7C5FC201DFEF7C2FC94F82C1049
:10320000012088402C49096808432B490860E16A7D
:1032100001EB8101294A02EB8100211DFEF7FCFC34
:103220002749E06A0968C96A884202D30120254912
:1032300008602048006808B9012000E0002000284C
:10324000D2D00CB1FEF764FA1F48056865B100BF23
:10325000FFF7D8FD10B101201A4908606D1E002D3E
:10326000F6D10020184908601648006838B10126D8
:10327000300716490860BFF34F8FBFF36F8FFEF71B
:1032800019FD304670BD00007C0000204672656567
:1032900052544F535C7461736B732E6300000000D3
:1032A0004572726F723A25732C25640D0A00000076
:1032B000540000207C0400205C000020D401002089
:1032C00044000020680000206400002004ED00E0BD
:1032D0001CB50024FDF7D4FE0B48006858B10B481C
:1032E0001F2100234FF48072CDE9001008A10A4885
:1032F000FFF742FD04462CB940F2331207A10CA09F
:10330000FDF714FC20461CBD880000208C00002026
:10331000546D722053766300B318000846726565D9
:1033200052544F535C74696D6572732E63000000D4
:103330004572726F723A25732C25640D0A000000E5
:103340002DE9FE4304460D4616461F46DDF828804B
:103350004FF000092CB94FF4D37216A11AA0FDF753
:10336000E5FB1D48006810B3009501960294062DF8
:1033700015DAFFF731FD022808D1002342466946DD
:1033800015480068FFF756FB814610E000231A46F7
:10339000694611480068FFF74DFB814607E00023AE
:1033A0003A4669460C480068FFF716FC81464846D5
:1033B000BDE8FE834672656552544F535C74696D77
:1033C0006572732E630000004572726F723A257346
:1033D0002C25640D0A00000088000020FC33000842
:1033E00000000020BC0000004C0B0008B8340008AE
:1033F000BC000020249800005C0B000800000000C6
:1034000000000000000000000000000000000000BC
:10341000000000000102030401020304060708097A
:103420000204060800A24A04000000000000000098
:103430000102030406070809010000000000000063
:10344000000000000000000000000000000000007C
:10345000000000000000000000000000000000006C
:10346000000000000000000000000000000000005C
:10347000000000000000000000000000000000004C
:10348000000000000000000000000000000000003C
:10349000000000000000000000000000000000002C
:1034A0000000000000000000AAAAAAAA0000000074
:0834B000000000000000000014
:0400000508000131BD
:00000001FF
