:020000040800F2
:10000000E0980020E1010008C104000899030008FD
:10001000BD040008790200086F0D00080000000010
:10002000000000000000000000000000490100087E
:100030007D020008000000008D0100086D07000827
:10004000FB010008FB010008FB010008FB010008A0
:10005000FB010008FB010008FB010008FB01000890
:10006000FB010008FB010008FB010008FB01000880
:10007000FB010008FB010008FB010008FB01000870
:10008000FB010008FB010008FB010008FB01000860
:10009000FB010008FB010008FB010008FB01000850
:1000A000FB010008FB010008FB010008FB01000840
:1000B000FB01000839080008D5080008FB0100080A
:1000C000FB010008FB010008FB010008FB01000820
:1000D000FB010008690A0008FB010008FB01000899
:1000E000FB010008FB010008FB010008FB01000800
:1000F000FB010008FB010008FB010008FB010008F0
:10010000FB010008FB010008FB010008FB010008DF
:10011000FB010008FB010008FB010008FB010008CF
:10012000FB010008FB010008FB010008FB010008BF
:10013000DFF810D000F08EF80048004719100008D2
:10014000AFF30080E0980020224B19680868B0E8FF
:10015000F00F80F30988BFF36F8F4FF0000080F33A
:1001600011884EF00D0E7047000000000648006830
:10017000006880F3088862B661B6BFF34F8FBFF3A3
:100180006F8F00DF00BF00BF08ED00E0EFF30980D4
:10019000BFF36F8F0F4B1A6820E9F00F106008B59E
:1001A0004FF0500080F31188BFF34F8FBFF36F8F74
:1001B00002F024F94FF0000080F31188BDE80840F8
:1001C00019680868B0E8F00F80F30988BFF36F8FF3
:1001D000704700BF40000020EFF30580704700002B
:1001E0000648804706480047FEE7FEE7FEE7FEE7D1
:1001F000FEE7FEE7FEE7FEE7FEE7FEE7D9070008B9
:100200003101000840EA01039B0703D009E008C957
:10021000121F08C0042AFAD203E011F8013B00F8CB
:10022000013B521EF9D2704730B50B460146002003
:100230002022012409E021FA02F59D4205D303FAA8
:1002400002F5491B04FA02F52844151EA2F1010229
:10025000F1DC30BD064C074D06E0E06840F00103DC
:1002600094E8070098471034AC42F6D3FFF764FFD8
:100270004C3100086C31000800BFFEE770472DE9E3
:10028000F04102460025002600200023002400271C
:1002900091F803C00CF00F0591F803C00CF0100C9E
:1002A000BCF1000F03D091F802C04CEA050591F8AB
:1002B00000C0BCF1000F31D0146800202BE04FF0DB
:1002C000010C0CFA00F3B1F800C00CEA03069E42E0
:1002D00020D183004FF00F0C0CFA03F7BC4305FA52
:1002E00003FC4CEA040491F803C0BCF1280F06D1CA
:1002F0004FF0010C0CFA00FCC2F814C00AE091F8AF
:1003000003C0BCF1480F05D14FF0010C0CFA00FC02
:10031000C2F810C0401C0828D1D31460B1F800C046
:10032000BCF1FF0F34DD546800202EE000F1080C12
:100330004FF0010808FA0CF3B1F800C00CEA03060C
:100340009E4221D183004FF00F0C0CFA03F7BC43FF
:1003500005FA03FC4CEA040491F803C0BCF1280F31
:1003600005D100F1080C08FA0CF8C2F8148091F8D5
:1003700003C0BCF1480F07D100F1080C4FF0010891
:1003800008FA0CF8C2F81080401C0828CED354603C
:10039000BDE8F0810161704700BFFEE72CE017481F
:1003A0000068401C1549086008460068052817D1F8
:1003B00013A000F0DFFC00BF502080F31188BFF3D2
:1003C0004F8FBFF36F8F00BF41F2883000F0F2FD16
:1003D00011A000F0CFFC002080F3118800BF00BF07
:1003E0001348006808B9012000E0002010490860A7
:1003F0004FF47A7001F008FED1E700000C000020F5
:10040000B9D8B1D5D6D0B6CF2E2E2E2E2E2E2E2E3A
:100410002E2E2E2E2E0D0A00B4F2BFAAD6D0B6CFA5
:100420002E2E2E2E2E2E2E2E2E2E2E2E2E0D0A005F
:100430009401234208B50121442000F095F80120E1
:10044000ADF8000028208DF8030069460648FFF744
:1004500016FF1C20ADF8000048208DF80300694607
:100460000248FFF70CFF08BD0008014000180140DA
:1004700008B50121482000F077F82020ADF80000F1
:1004800010208DF8030003208DF80200694609480A
:10049000FFF7F5FE20210748FFF77CFF2020ADF88D
:1004A000000069460448FFF7EAFE20210248FFF7F2
:1004B00071FF08BD000C01400018014000BFFEE7BD
:1004C0007047000070B5002100230F22C47804B3E8
:1004D000154C246804F4E064C4F5E064210AC1F119
:1004E0000403CA40447804FA03F184781440214399
:1004F00009010E4C0678A155047804F01F0501246B
:10050000AC4005786D11AD0005F1E025C5F800415E
:1005100009E0047804F01F050124AC40044D06787E
:10052000761145F8264070BD0CED00E000E400E0D7
:1005300080E100E002490143024A11607047000077
:100540000000FA050CED00E029B1064AD269024329
:10055000044BDA6104E0034AD2698243014BDA6159
:10056000704700000010024029B1064A9269024318
:10057000044B9A6104E0034A92698243014B9A61F9
:10058000704700000010024030B500210022002416
:1005900000232D4D6D6805F00C0121B1042905D013
:1005A000082923D105E0294D056022E0274D05608B
:1005B0001FE0254D6D6805F47012234D6D6805F43C
:1005C0008034022505EB92421CB9214D554305604C
:1005D0000BE01D4D6D6805F400351DB11C4D5543F4
:1005E000056002E0194D5543056002E0174D0560B6
:1005F00000BF00BF144D6D6805F0F0010909154DED
:100600006B5C0568DD4045600F4D6D6805F4E06189
:10061000090A104D6B5C4568DD4085600A4D6D68C8
:1006200005F46051C90A0B4D6B5C4568DD40C5603F
:10063000054D6D6805F44041890B074D6B5CC5683D
:10064000B5FBF3F5056130BD0010024000127A00E1
:1006500000093D00100000202000002010B500F02F
:1006600001F810BD0CB500200190009033480068DF
:1006700040F480303149086000BF3048006800F421
:10068000003000900198401C0190009818B9019822
:10069000B0F5A06FF1D12948006800F4003010B126
:1006A0000120009001E0002000900098012843D133
:1006B0002348006840F0100021490860084600689F
:1006C00020F0030008600846006840F0020008605F
:1006D0001A4840681949486008464068486008461A
:1006E000406840F4806048600846406820F47C1010
:1006F00048600846406840F4E810486008460068D2
:1007000040F08070086000BF0C48006800F0007086
:100710000028F9D00948406820F0030007494860E4
:100720000846406840F00200486000BF0348406847
:1007300000F00C000828F9D10CBD000000100240A8
:1007400000200240042808D14FF0E021096941F05F
:1007500004014FF0E022116107E04FF0E021096948
:1007600021F004014FF0E0221161704710B502F052
:100770004BFA012801D001F0E5FE10BD70B5054629
:100780000420FFF7DFFF104800681049B0FBF1F0CC
:100790000F4908700C4800680C49B0FBF1F44FF4A5
:1007A0007A70444301200B4908804FF0E020006933
:1007B00040F002004FF0E021086108464461006902
:1007C00040F00100086170BD2400002040420F008D
:1007D000380000203A00002010B51348006840F0AF
:1007E00001001149086008464068104908400E4958
:1007F0004860084600680E4908400B4908600846F2
:10080000006820F4802008600846406820F4FE005C
:1008100048604FF41F008860FFF720FF4FF0006032
:100820000449086010BD0000001002400000FFF8FD
:10083000FFFFF6FE08ED00E010B50121054800F0CD
:10084000A6F810B104A000F095FA0121014800F0CB
:100850008FF810BD0004004054494D33CAE4B3F68C
:100860002E2E2E2E2E2E2E0D0A0000007FB50546B0
:100870000C4601210220FFF767FEADF80850ADF8E5
:1008800004400020ADF80A00ADF8060001A91048A8
:1008900000F098F8012211460D4800F089F8012176
:1008A0000B4800F065F81D208DF8000005208DF83C
:1008B000010000208DF8020001208DF80300684639
:1008C000FFF700FE0121024800F055F87FBD00004F
:1008D0000004004010B50121054800F058F810B19F
:1008E00004A000F047FA0121014800F041F810BDD2
:1008F0000008004054494D34CAE4B3F62E2E2E2E83
:100900002E2E2E0D0A0000007FB505460C46012153
:100910000420FFF719FEADF80850ADF804400020A0
:10092000ADF80A00ADF8060001A9104800F04AF839
:10093000012211460D4800F03BF801210B4800F060
:1009400017F81E208DF8000004208DF8010000200B
:100950008DF8020001208DF803006846FFF7B2FD14
:100960000121024800F007F87FBD000000080040A8
:10097000CA430282704721B1028842F0010202801C
:1009800004E002884FF6FE731A400280704730B5CB
:100990000246002000230024158A05EA01039589F8
:1009A00005EA010413B10CB1012000E0002030BDC4
:1009B0001AB183890B43838102E083898B4383814E
:1009C00070470000002202881D4B98420ED01D4B3C
:1009D00098420BD0B0F1804F08D01B4B984205D005
:1009E0001A4B984202D01A4B984204D14FF68F739B
:1009F0001A404B881A43174B984207D0164B98421F
:100A000004D04FF6FF431A40CB881A4302808B88EC
:100A100083850B8803850A4B98420BD0094B98427B
:100A200008D00E4B984205D00D4B984202D00D4B8A
:100A3000984201D10B7A038601238382704700001C
:100A4000002C014000340140000400400008004038
:100A5000000C004000100040001400400040014025
:100A6000004401400048014010B540F225511D48A6
:100A700000F0B8F810B31B4800F070F9C4B21A487F
:100A8000008800F40040C8B91748008800F480408E
:100A900060B10A2C03D000201349088020E01248DE
:100AA000008840F400401049088019E00D2C06D160
:100AB0000D48008840F480400B49088010E00A4847
:100AC0000088C0F30D0009490C5407480088401CF9
:100AD0000549088008460088C72801DD00200880F5
:100AE00010BD0000003801403C000020B80000208C
:100AF00010B586B0044601210420FFF735FD012121
:100B00008803FFF731FD4FF40070ADF814000320A7
:100B10008DF8160018208DF8170005A91E48FFF75C
:100B2000AEFB4FF48060ADF8140004208DF8170080
:100B300005A91948FFF7A3FB01940020ADF80800B0
:100B4000ADF80A00ADF80C00ADF810000C20ADF8BF
:100B50000E0001A9114800F095F801210F4800F09E
:100B600028F840210D4800F01BF8012240F22551E1
:100B70000A4800F061F825208DF8000003208DF868
:100B800001008DF8020001208DF803006846FFF790
:100B900099FC06B010BD000000080140003801407B
:100BA00001F40072B2F5007F00D100BFCA43028099
:100BB000704721B1828942F40052828104E0828927
:100BC0004DF6FF731A408281704702460020B1F54E
:100BD000007F00D100BF13880B400BB1012000E063
:100BE0000020704770B50246002400230025002035
:100BF00040F66A16B14200D100BFC1F3421501F0C0
:100C00001F03012606FA03F3012D02D19689334012
:100C100006E0022D02D1168A334001E0968A334065
:100C20000C12012606FA04F41688344013B10CB1F4
:100C3000012000E0002070BDF0B50346002400262E
:100C40000025002040F66A17B94200D100BF1846BF
:100C5000C1F3421401F01F06012707FA06F5012C23
:100C600001D10C3004E0022C01D1103000E014302E
:100C70001AB107682F43076002E00768AF430760B7
:100C8000F0BD00002DE9F04786B005460E46002471
:100C9000A24600BFA1460027B08900B100BF2F4681
:100CA0002C8A4CF6FF700440F08804432C82AC89F7
:100CB0004EF6F3100440B088318908437189084327
:100CC0000443AC81AC8A4FF6FF400440B089044332
:100CD000AC8201A8FFF758FC1F48874202D1DDF81B
:100CE00010A001E0DDF80CA0A88900F4004040B19C
:100CF0000AEBCA0000EB0A1031684900B0FBF1F8BA
:100D000007E00AEBCA0000EB0A1031688900B0FB6B
:100D1000F1F86420B8FBF0F004012009642101FB24
:100D20001089A88900F4004040B1322000EBC900CE
:100D3000B0FBF1F000F00700044308E0322000EBC4
:100D400009106421B0FBF1F000F00F0004432C8186
:100D500006B0BDE8F08700000038014001468888F1
:100D6000C0F308007047C1F308028280704700BFDB
:100D7000FEE700000FB4054B10B503A9044A029822
:100D800000F018F810BC5DF814FB0000CD0F00084F
:100D9000B400002002E008C8121F08C1002AFAD1DE
:100DA00070477047002001E001C1121F002AFBD1EB
:100DB000704700002DE9FF4F8BB09A460F4605465D
:100DC000002606E025280BD052460D9990476D1C51
:100DD000761C28780028F5D10FB03046BDE8F08F9A
:100DE0000024A0460122604900E0044315F8013FB9
:100DF000203B02FA03F00842F7D128782E2817D1B9
:100E000015F8010F44F004042A280ED06FF02F02C9
:100E10002878A0F1300109290AD808EB880102EBF3
:100E2000410100EB01086D1CF2E757F8048B6D1CC3
:100E3000287869283ED006DC0028CDD063280BD066
:100E4000642804D136E0732810D075284BD0524660
:100E50000D999047761C85E017F8040B8DF800007B
:100E600000208DF80100E946012003E057F8049BBB
:100E70004FF0FF3061074FF0000401D40AE0641C1A
:100E800044450DDA8442FADB19F804100029F6D142
:100E900006E0641C8442FCDB19F804100029F8D138
:100EA000264404E019F8010B52460D999047641E40
:100EB000F8D257E001CF4FF00A0B002802DA404287
:100EC0002D2102E0210504D52B218DF824100121CC
:100ED00003E0E10705D02021F7E70DF12009089193
:100EE0000CE00021F9E701CF4FF00A0BF9E7594672
:100EF000FFF79AF901F1300209F8012D0028F6D127
:100F0000ADEB090000F1200B600701D44FF00108A0
:100F1000D84502DDA8EB0B0000E00020804600244D
:100F200006E009A85246005D0D999047641C761CA6
:100F300008988442F5DB04E0302052460D99904732
:100F4000761CB8F10001A8F10108F5DC05E019F8FC
:100F5000010B52460D999047761CBBF10001ABF195
:100F6000010BF4DC6D1C34E70928010070B5034661
:100F700000224FF0E02675690D4E367803FB06F42B
:100F80004FF0E026B16910E04FF0E026B0698842EA
:100F90000BD0884202D20E1A324402E02E1A0E44BE
:100FA00032440146A24200D300E0EDE700BF70BD2D
:100FB0003800002030B50446002504E04FF47A7074
:100FC000FFF7D4FF6D1CA542F8D330BD70B50446C1
:100FD0000D46E1B20548FFF7C6FE00BF8021034879
:100FE000FFF7F3FD0028F9D0204670BD003801401E
:100FF0000DE0002006490860C82001F005F8012036
:101000000449C1F894014FF4487000F0FDFFF0E787
:1010100094812142008021421CB54820FFF7AEFB9D
:101020004FF44070FFF786FAFFF722FAFFF702FA53
:101030004FF4E130FFF75CFD41F61F4142F20F70C3
:10104000FFF714FC41F61F4142F20F70FFF75CFC02
:1010500008A0FFF78FFE0D48012100238022CDE973
:1010600000100BA10D4801F09FFD01F069F900206F
:101070001CBD00004672656552544F53D6D0B6CFA2
:10108000B9DCC0EDCAB5D1E90D0A000000000020AE
:1010900073746172745F7461736B00002D1C0008BF
:1010A0002DE9F04105460E461C4807681C480068BB
:1010B000001D00F0F3FD50B91948006890F82C109D
:1010C0000120884017490968814316480160681C5F
:1010D00038B936B112480168091D134800F01CFEEA
:1010E0001AE07C190E4800684460BC4207D20C48E4
:1010F0000168091D0D48006800F0F4FD0CE0084887
:101100000168091D0A48006800F0ECFD0948006804
:10111000844201D207480460BDE8F08154000020F9
:101120004000002058000020A004002048000020BB
:10113000440000207000002010B5044600F0F8FDC7
:1011400023480068401C224908602248006840B9D2
:10115000204804600846006801280DD100F0E2F93B
:101160000AE01D48006838B91A480068C06AE16A98
:10117000884201D81748046018480068401C174985
:10118000086094F82C10012088401549096808432C
:1011900013490860E16A01EB8101124A02EB810008
:1011A000211D00F0B9FD00F005FE0B48006868B194
:1011B00008480068C06AE16A884207D24FF0805050
:1011C00009490860BFF34F8FBFF36F8F10BD000058
:1011D00050000020400000205C0000206C00002037
:1011E00058000020D001002004ED00E010B500F010
:1011F0009FFD10480068D0B90F4800F063FD0F480C
:1012000000F060FD0C480E4908600C480D4908606C
:1012100000220C210A2001F0AFF9064908600846B7
:10122000006820B108A10348006800F0B1FE00F09A
:10123000C1FD10BD84000020B4040020C8040020BB
:101240007C00002080000020546D725100000000DE
:1012500070B523E001F0CAF81348006808B901200E
:1012600000E00020054601F05BFEBDB900F060FD26
:101270000D48C068C468201D00F010FD0B480068D0
:10128000401E0A4908600A480068401E0849086074
:1012900000F090FD204600F060F800BF04480068B0
:1012A0000028D7D170BD00008C0400205000002021
:1012B0004C00002070B504460D46206C70B1216CC6
:1012C000E0680844E0606168E068884201D3206813
:1012D000E0602846226CE168FEF794FF70BD2DE9BE
:1012E000F04104460F4615464FF00008A66B206CEF
:1012F00040B9206860BB606801F04CFD804600206A
:10130000606025E07DB93946226CA068FEF77AFF5F
:10131000216CA0680844A060D4E90110884217D36A
:101320002068A06014E03946226CE068FEF76AFF8E
:10133000216CE068401AE0602168E068884203D2CE
:10134000216C6068401AE060022D01D106B1761E62
:10135000701CA0634046BDE8F08110B50446206BC8
:1013600000F05EFD204600F05BFD10BD0146084A1E
:10137000126812680AB9012200E000220A600A68B5
:1013800022B9034A1268D268106800E00020704752
:101390007C00002030B54FF41043174800F00704DC
:1013A0002CB1C01D20F00700134C041B1B1B024670
:1013B000124C22600024114D6C60D018083820F0C7
:1013C00007000F4C206000240D4D2D686C600C4D03
:1013D0002D682C601146441A4C60094C24680C603E
:1013E000084D4C682C60084D4C682C604FF0004450
:1013F000064D2C6030BD0000DC0400209000002071
:1014000098000020A00000209C000020A4000020E4
:1014100000BFFFF71DFF064800680128F9D94FF00B
:10142000805004490860BFF34F8FBFF36F8FF0E720
:10143000D001002004ED00E02DE9F04106460D4604
:1014400017469846069C0DB9246000E02760E663C5
:1014500025640121204601F0ADF9BDE8F0810000CE
:101460002DE9FF5F81460F469246DDE90E6B109C29
:10147000AAF10100216B01EB800828F0070808F0B1
:10148000070008B9012000E0002028B940F22B3203
:101490001BA120A0FFF76EFC002507E0795D04F199
:1014A00034004155785D00B902E06D1C102DF5D374
:1014B00000BF002143200155202E00D31F26E662E5
:1014C00066640020A064201D00F009FC04F11800EF
:1014D00000F005FC2461C6F12000A06164620020D8
:1014E000E06484F8500049464046039A00F08CFBC3
:1014F0002060BBF1000F01D0CBF80040BDE8FF9F9A
:101500004672656552544F535C7461736B732E63FE
:10151000000000004572726F723A25732C25640D2D
:101520000A00000010B5002407E004EB84010F4A14
:1015300002EB810000F0C6FB641C202CF5D30C48A4
:1015400000F0C0FB0B4800F0BDFB0B4800F0BAFBFD
:101550000A4800F0B7FB0A4800F0B4FB0448094908
:10156000086004480849086010BD0000D001002050
:101570005004002064040020780400208C04002023
:10158000A0040020440000204800002010B50146BF
:10159000164800E0006803688B42FBD302464368AC
:1015A00013448B4204D143684C6823444360014692
:1015B0000A464B6813440468A34211D10C4C0368DB
:1015C0002468A34208D04B680468646823444B60D5
:1015D00003681B680B6005E0054B1B680B6001E0AE
:1015E00003680B60884200D0016010BD90000020AD
:1015F000980000202DE9F04104460D4616461F468E
:101600004FF0000865602461B5420CD8F01BA16959
:10161000884202D34FF0010811E0211D09480068FB
:1016200000F060FB0BE0BE4204D2BD4202D34FF09B
:10163000010804E0211D0448006800F053FB404607
:10164000BDE8F081800000207C00002070B50546D8
:1016500000F06EFBA86B08B9012400E0002400F044
:10166000A9FB204670BD70B5054600F061FBA86B74
:10167000E96B884201D1012400E0002400F09AFBCC
:10168000204670BDF8B505460F4613480068C0688F
:10169000C468201D00F002FBE069012818D1A06990
:1016A00041192B463A462046FFF7A4FF80B100209F
:1016B00003462A4601460090204601F0F9FC064602
:1016C0002EB94FF4027205A109A0FFF753FB00BF2A
:1016D0002046616A8847F8BD7C0000204672656537
:1016E00052544F535C74696D6572732E6300000031
:1016F0004572726F723A25732C25640D0A00000042
:1017000070B586B060E0039800285DDB059C6069D9
:1017100008B9012000E0002010B9201D00F0BEFA39
:1017200002A800F0C5F8054603980A284AD2DFE867
:1017300000F00905072C2E4506082D2F00BF00BF1D
:1017400000BF00BF0498A269811803462A462046BC
:10175000FFF750FFC0B12046616A8847E069012861
:1017600012D1002000900498A16942180023194664
:10177000204601F09DFC06462EB940F2213218A108
:101780001CA0FFF7F7FA00BF1DE000BF1BE000BF81
:101790000498A061A06908B1012000E0002028B9E8
:1017A0004FF44E720EA113A0FFF7E4FAA06941199D
:1017B0002B462A462046FFF71DFF04E0204600F096
:1017C0002FFB00E000BF00BF00231A4603A90D480D
:1017D000006800F00BFF002895D106B070BD000036
:1017E0004672656552544F535C74696D6572732E11
:1017F000630000004572726F723A25732C25640DE8
:101800000A00000084000020F8B505460C4600F0F0
:10181000EDFD684600F04CF80646009820BB44B940
:10182000B54206D801F07CFB31462846FFF72AFF77
:101830001CE03CB10E480068006808B9012000E0D7
:1018400000200446A91B22460A48006800F0B6FBA7
:1018500001F066FB50B94FF0805007490860BFF3B4
:101860004F8FBFF36F8F01E001F05AFBF8BD00000E
:10187000800000208400002004ED00E00A4909688F
:10188000096809B9012100E0002121B14FF0FF31C1
:10189000064A116006E004490968C968C868034A35
:1018A0004168116070470000440000207000002073
:1018B00070B5044601F0B8F905460748006885424E
:1018C00004D200F00BF80120206001E0002020602D
:1018D00001480560284670BD8C0000202DE9F843C2
:1018E0002DE021480068C06805681F480068C0688E
:1018F000C468201D00F0D2F92046616A8847E0697B
:1019000001281CD1A0694619AE4207D9666024613E
:10191000211D1548006800F0E5F910E0002003469D
:101920002A4601460090204601F0C2FB07462FB927
:1019300040F292320DA112A0FFF71CFA00BF0A4834
:101940000068006808B9012000E000200028C8D025
:101950000548D0F800800E480068034908600C482C
:10196000C0F80080BDE8F8837C0000204672656501
:1019700052544F535C74696D6572732E630000009E
:101980004572726F723A25732C25640D0A000000AF
:10199000800000200B480068401C08B9012000E0CE
:1019A000002020B9F42208A111A0FFF7E3F900BF3D
:1019B000502080F31188BFF34F8FBFF36F8F00BFAC
:1019C00000BFFEE7A80000204672656552544F53E1
:1019D0005C706F727461626C655C525644535C411A
:1019E000524D5F434D335C706F72742E6300000084
:1019F0004572726F723A25732C25640D0A0000003F
:101A000008B500BF6846FFF7B1FC044620460099C0
:101A1000FFF7FAFEFFF774FEF4E770B5044600F036
:101A200087F994F9455010E0606A08B9012000E098
:101A3000002038B904F1240001F018FA18B100F0C0
:101A4000A3FB00E003E0681E45B2002DECDC00BF04
:101A5000FF2084F8450000F0ADF900F069F994F931
:101A6000445010E0206908B9012000E0002048B986
:101A700004F1100001F0FAF908B100F085FB681ECE
:101A800045B200E001E0002DECDC00BFFF2084F84F
:101A9000440000F08FF970BD2DE9F04104464FF08D
:101AA000000800F0A3FC3E48006808B9FFF772FC8C
:101AB0003C480068204000285FD1A4B1083404F0FD
:101AC000070080B104F00700C0F10800044404F0EE
:101AD000070008B9012000E0002020B9BF2232A190
:101AE0003AA0FFF747F9002C47D03C4800688442F1
:101AF00043D83B4E3046056801E02E462D686868A5
:101B0000A04202D228680028F7D125480068854203
:101B100033D0306800F10808286830606868001B1E
:101B2000102813D92F1907F0070008B9012000E089
:101B3000002020B9EC221CA124A0FFF71BF9686843
:101B4000001B78606C603846FFF720FD2349686809
:101B50000968081A2149086008460068214909688F
:101B6000884203D21D4800681E4908600D49686814
:101B70000968084368600020286001F0D1F908F086
:101B8000070008B9012000E0002028B94FF4967240
:101B900005A10EA0FFF7EEF84046BDE8F081000079
:101BA00098000020A40000204672656552544F53EF
:101BB0005C706F727461626C655C4D656D4D616ED9
:101BC000675C686561705F342E6300004572726FF8
:101BD000723A25732C25640D0A0000009C00002039
:101BE00090000020A00000200648006830B10549A0
:101BF000096801F14800896C491C016001480068CE
:101C00007047000040000020001F4FF08073036009
:101C1000001F21F001030360001F034B0360143811
:101C20000260203870470000951900081CB5044672
:101C300000F07EF80D48022100233222CDE9001089
:101C40000BA10E4800F0B0FF0D4804210023CA018B
:101C5000CDE900100BA10F4800F0A6FF0E48006868
:101C600000F00CFA00F0A6F81CBD000004000020F3
:101C70006C6564315F7461736B000000F10F0008E4
:101C800008000020496E746572727570745F74612B
:101C9000736B00009D0300080000002001460A69E4
:101CA000D1E901309860D1E9010358605068884259
:101CB00001D188685060002008611068401E1060E3
:101CC0001068704700F1080141604FF0FF318160FA
:101CD00000F10801C160016100210160704700212D
:101CE0000161704710B502460B685C1C0CB91069A5
:101CF00007E002F1080000E04068446824689C4264
:101D0000FAD944684C604C68A160886041600A61FF
:101D10001468641C146010BD42684A6093688B604C
:101D2000936859609160086103685B1C03607047A9
:101D300010B500BF502080F31188BFF34F8FBFF361
:101D40006F8F00BF0B480068401C0A4908600846B6
:101D5000006801280DD108480068C0B208B9012008
:101D600000E0002028B94FF4BD7204A10DA0FFF7D8
:101D700001F810BDA800002004ED00E04672656582
:101D800052544F535C706F727461626C655C525652
:101D900044535C41524D5F434D335C706F72742EFF
:101DA000630000004572726F723A25732C25640D32
:101DB0000A00000010B50B48006828B940F28112F3
:101DC00009A113A0FEF7D6FF06480068401E05498A
:101DD00008600846006820B9002080F3118800BF21
:101DE00000BF10BDA80000204672656552544F53D5
:101DF0005C706F727461626C655C525644535C41F6
:101E0000524D5F434D335C706F72742E630000005F
:101E10004572726F723A25732C25640D0A0000001A
:101E200070B506463546002E35D0083D2C461A4979
:101E300060680968084008B1012000E0002028B966
:101E40004FF4A07215A11EA0FEF794FF206808B9F8
:101E5000012000E0002028B940F241120FA118A093
:101E6000FEF788FF0C4960680968084098B120684F
:101E700088B90949606809688843606000F0B6FA6B
:101E80001349606809680844114908602046FFF753
:101E90007DFB01F045F870BDA40000204672656529
:101EA00052544F535C706F727461626C655C4D6527
:101EB0006D4D616E675C686561705F342E63000014
:101EC0004572726F723A25732C25640D0A0000006A
:101ED0009C000020064800684FF47A71B0FBF1F0D6
:101EE000401E4FF0E0214861072008617047000064
:101EF0002400002070B5FEF76FF90546102D11D3B0
:101F000005F1E02090F8F04310480078844201DBAE
:101F1000012000E0002028B94FF42A720CA116A07D
:101F2000FEF728FF1848006800F4E06017490968C8
:101F3000884201D8012000E0002028B94FF42E7219
:101F400003A10DA0FEF716FF70BD0000AC0000203D
:101F50004672656552544F535C706F727461626C67
:101F6000655C525644535C41524D5F434D335C7047
:101F70006F72742E630000004572726F723A25739F
:101F80002C25640D0A0000000CED00E0B0000020DC
:101F9000024600200BE0084B53F8303033B9064BB3
:101FA00043F8301003EBC0035A6002E0401C0A28DB
:101FB000F1D300BF70470000800100202DE9F041FF
:101FC00005460E4617462C46FFF7B2FE94F944002C
:101FD000401C10B9002084F8440094F94500401CCE
:101FE00010B9002084F84500FFF7E4FEA06B28B983
:101FF0003A46314604F1240000F0F6F82046FFF797
:102000000CFDBDE8F081000070B504460025ACB1C0
:102010000F48006808B9012000E0002028B940F20C
:10202000CF420CA110A0FEF7A5FE00F0DFF90021C1
:102030002046FFF735F800F073FF05463DB94FF035
:1020400080500D490860BFF34F8FBFF36F8F70BD95
:10205000780000204672656552544F535C7461737A
:102060006B732E63000000004572726F723A257325
:102070002C25640D0A00000004ED00E070B5054653
:10208000FFF756FE15B92D48006800E028460446C3
:10209000201DFFF703FE78B9E06A00EB80002849B5
:1020A00051F8200040B994F82C10012088402549AF
:1020B0000968814323480160A06A18B104F118003F
:1020C000FFF7ECFD20480068401C1F4908601B48D2
:1020D0000068844209D1211D1C48FFF71DFE1C48E1
:1020E0000068401C1A49086009E01A480068401E50
:1020F000184908602046FFF730F9FFF7BFFBFFF7EC
:1021000059FE15480068C0B10C480068844214D1DB
:102110001248006808B9012000E0002028B940F208
:1021200065420FA113A0FEF725FE4FF08050154920
:102130000860BFF34F8FBFF36F8F70BD400000206A
:10214000D0010020580000206C0000208C040020EA
:102150004C000020500000205C000020780000208F
:102160004672656552544F535C7461736B732E6392
:10217000000000004572726F723A25732C25640DC1
:102180000A00000004ED00E00120014908607047EA
:102190006400002070B504460D462CB940F60632A6
:1021A00007A10CA0FEF7E6FD0E4801681831204695
:1021B000FFF798FD01212846FEF772FF70BD000071
:1021C0004672656552544F535C7461736B732E6332
:1021D000000000004572726F723A25732C25640D61
:1021E0000A0000004000002070B505460E46144667
:1021F0002DB940F6313209A10DA0FEF7BBFD104804
:10220000016818312846FFF787FD0CB14FF0FF3603
:1022100021463046FEF744FF70BD000046726565FA
:1022200052544F535C7461736B732E630000000053
:102230004572726F723A25732C25640D0A000000F6
:102240004000002070B505462C46002D4BD0264995
:10225000E06A0968C96A884245D2A06900F0004076
:1022600028B921480068C06AC0F12000A061E16A75
:1022700001EB81011D4A02EB81016069884201D1B5
:10228000012000E0002050B3201DFFF707FD78B9C2
:10229000E06A00EB8000154951F8200040B994F83D
:1022A0002C100120884012490968814310480160C0
:1022B0000D480068C06AE06294F82C100120884044
:1022C0000B49096808430A490860E16A01EB81018A
:1022D000064A02EB8100211DFFF71EFD03E00248C4
:1022E0000068C06AE06270BD40000020D00100209C
:1022F0005800002010B504462CB940F6C13205A1A3
:1023000009A0FEF737FD0C48006820600B48006804
:10231000606010BD4672656552544F535C746173C2
:102320006B732E63000000004572726F723A257362
:102330002C25640D0A0000006800002054000020D5
:102340001CB51A4800210B468022CDE9001018A1C7
:10235000194800F029FC0446012C02D100F070FE5F
:102360000446012C15D100BF502080F31188BFF323
:102370004F8FBFF36F8F00BF4FF0FF300F490860E2
:1023800001200F49086000200E49086000F08AF81B
:102390000BE0601C08B1012000E0002028B940F2E9
:1023A000847209A10DA0FEF7E5FC1CBD740000209D
:1023B00049444C4500000000111400087000002042
:1023C0005C000020540000204672656552544F5353
:1023D0005C7461736B732E63000000004572726F52
:1023E000723A25732C25640D0A000000024800682B
:1023F000401C0149086070477800002010B51B4858
:10240000006818B101201A4908602DE00020184921
:10241000086018480068B0FA80F0C0F11F0404EBAF
:102420008400154951F8200008B1012000E0002087
:1024300028B940F6F62211A115A0FEF79BFC04EB8B
:1024400084010D4A02EB810041684968416000F156
:10245000080142688A4202D1416849684160416886
:10246000C9680F4A116000BF10BD0000780000204D
:102470006400002058000020D001002046726565ED
:1024800052544F535C7461736B732E6300000000F1
:102490004572726F723A25732C25640D0A00000094
:1024A000400000201CB52248014609780191FF2117
:1024B000024611700146097800919DF8001001F064
:1024C00050011C4A117007211B4A116009E01A498A
:1024D0000968491E184A11609DF800104906090E46
:1024E00000919DF8001001F080018029EFD0124981
:1024F00009680902104A11601146098801F4E06177
:1025000011600B4A019911700C48006840F470008A
:102510000A4908600846006840F070400860FFF70C
:10252000D9FC002006490860FDF720FE00201CBDF4
:1025300000E400E0AC000020B000002020ED00E04E
:10254000A800002010B500BF502080F31188BFF311
:102550004F8FBFF36F8F00BF00F06CFB18B14FF0CF
:1025600080500449086000BF002080F3118800BF3C
:1025700010BD000004ED00E02DE9F84305460E46CD
:1025800090460DB1012000E0002028B94FF4C4723C
:102590000DA112A0FEF7EEFB0EB9002701E005FB2E
:1025A00006F707F14800FFF777FA044644B104F153
:1025B000480943464A46314628460094FEF73CFF08
:1025C0002046BDE8F88300004672656552544F53BB
:1025D0005C71756575652E63000000004572726F51
:1025E000723A25732C25640D0A0000002DE9FF477F
:1025F00082B005460E461F464FF0000A2C462CB905
:1026000040F2DC4261A166A0FEF7B4FB0EB9206C7B
:1026100008B9012000E0002028B940F2DD425BA1AA
:102620005FA0FEF7A7FB00F0EFFA08B9049808B91D
:10263000012000E0002028B94FF49C6253A158A06B
:10264000FEF798FB00BFFFF773FBD4F83890B9F1A1
:10265000000F3DD0D4F80C8031462046FEF72AFE0C
:10266000DFB9A9F10100A063206810B9FFF7BCFA37
:102670006060206908B9012000E0002010BB04F16F
:10268000100000F0F3FBE8B14FF0805048490860BB
:10269000BFF34F8FBFF36F8F14E0C4F80C80606AF4
:1026A00008B9012000E0002060B904F1240000F026
:1026B000DDFB38B14FF080503D490860BFF34F8FCC
:1026C000BFF36F8FFFF776FB012006B0BDE8F08700
:1026D000049818B9FFF76EFB0020F6E7BAF1000F77
:1026E00004D16846FFF706FE4FF0010AFFF762FBD0
:1026F000FFF77CFEFFF71CFB94F94400401C10B967
:10270000002084F8440094F94500401C10B90020D2
:1027100084F84500FFF74EFB04A9684600F0F4F981
:1027200040BB2046FEF792FFF0B1206830B9FFF7BA
:10273000FFFA6068FFF786FDFFF73CFB04F1240019
:102740000499FFF727FD2046FFF767F900F0E8FB43
:1027500000287FF478AF4FF0805015490860BFF330
:102760004F8FBFF36F8F6EE72046FFF756F900F0EB
:10277000D7FB68E72046FFF750F900F0D1FB204671
:10278000FEF764FF0028EED000209EE746726565E4
:1027900052544F535C71756575652E6300000000DF
:1027A0004572726F723A25732C25640D0A00000081
:1027B00004ED00E070B505460E462C462CB940F2FB
:1027C0001B121EA122A0FEF7D5FAFFF7B1FAD4E939
:1027D0000F12206801FB020060600020A0632068E7
:1027E000A060E06B401E226C216800FB0210E060DC
:1027F000FF2084F8440084F845009EB9206908B998
:10280000012000E00020A8B904F1100000F02EFB28
:1028100080B14FF0805012490860BFF34F8FBFF373
:102820006F8F07E004F11000FFF74CFA04F1240069
:10283000FFF748FAFFF7BEFA012070BD46726565E2
:1028400052544F535C71756575652E63000000002E
:102850004572726F723A25732C25640D0A000000D0
:1028600004ED00E02DE9FF4383B0064688461D468F
:102870004FF0000934462CB940F2D92258A15DA08E
:10288000FEF778FAB8F1000F01D1206C08B90120E9
:1028900000E0002028B940F2DA2251A155A0FEF74D
:1028A00069FA022D02D1E06B012801D1012000E07C
:1028B000002028B940F2DB2249A14EA0FEF75AFAC7
:1028C00000F0A2F908B9059808B9012000E000203D
:1028D00028B940F2DE2242A146A0FEF74BFA00BF23
:1028E000FFF726FAA06BE16B884201D3022D28D1B5
:1028F0002A4641462046FEF7F2FC0746606A08B9C0
:10290000012000E0002068B904F1240000F0AEFAD4
:1029100088B14FF080503B490860BFF34F8FBFF341
:102920006F8F08E03FB14FF0805036490860BFF329
:102930004F8FBFF36F8FFFF73DFA012007B0BDE85F
:10294000F083059818B9FFF735FA0020F6E7B9F1DA
:10295000000F04D101A8FFF7CDFC4FF00109FFF7EC
:1029600029FAFFF743FDFFF7E3F994F94400401C0F
:1029700010B9002084F8440094F94500401C10B9B7
:10298000002084F84500FFF715FA05A901A800F01A
:10299000BBF8F0B92046FEF766FEA0B104F11000C6
:1029A0000599FFF7F7FB2046FFF737F800F0B8FA74
:1029B000002895D14FF0805012490860BFF34F8F27
:1029C000BFF36F8F8CE72046FFF727F800F0A8FAD7
:1029D00086E72046FFF721F800F0A2FA0020ADE7D5
:1029E0004672656552544F535C71756575652E630B
:1029F000000000004572726F723A25732C25640D39
:102A00000A00000004ED00E02DE9F05F07468A4669
:102A100090461E463C462CB940F29F3231A136A06A
:102A2000FEF7A8F9BAF1000F01D1206C08B9012016
:102A300000E0002028B94FF468722AA12EA0FEF70A
:102A400099F9022E02D1E06B012801D1012000E0AA
:102A5000002028B940F2A13222A127A0FEF78AF96E
:102A6000FFF748FA00BF5021EFF3118081F311887E
:102A7000BFF34F8FBFF36F8F00BF0546A06BE16BB5
:102A8000884201D3022E23D194F945B032465146F3
:102A90002046FEF724FC0BF1010088B9606A08B9F2
:102AA000012000E0002080B904F1240000F0DEF9EC
:102AB00058B1B8F1000F08D00120C8F8000004E0B8
:102AC0000BF1010040B284F845004FF0010901E02C
:102AD0004FF0000900BF85F3118800BF4846BDE8EC
:102AE000F09F00004672656552544F535C717565E6
:102AF00075652E63000000004572726F723A25738F
:102B00002C25640D0A0000002DE9F04104460D4615
:102B10002CB940F6CB3219A11DA0FEF72BF92DB927
:102B200040F6CC3215A11AA0FEF724F9FFF700F900
:102B30001B4807682868401C08B9002619E0194995
:102B400020680968884204D06068B84201D801262C
:102B50000FE06068381A2968884209D228686168DD
:102B6000791A401A28602046FFF7C4FB002600E0CF
:102B70000126FFF71FF93046BDE8F0814672656512
:102B800052544F535C7461736B732E6300000000EA
:102B90004572726F723A25732C25640D0A0000008D
:102BA00054000020680000202DE9FF4F85B08046CA
:102BB00089461746DDE912ABB800FEF76DFF064601
:102BC00056B15420FEF768FF04460CB1266304E0BA
:102BD0003046FFF725F900E000247CB10020CDE964
:102BE00000ABCDE902403A4649464046089BFEF715
:102BF00037FC2046FEF7A0FA012501E04FF0FF3533
:102C0000284609B0BDE8F08F0549096809B90120D7
:102C100005E00449096809B9022000E00020704776
:102C20005C0000207800002001490868704700001F
:102C3000540000202DE9F0414FF0000841480068A1
:102C4000002872D140480068451C3F480560EDB936
:102C50003E480068006808B9012000E0002028B95B
:102C600040F6D9123AA13FA0FEF784F8374807682A
:102C700040480068354908603E4807603E480068A3
:102C8000401C3D490860FEF7F9FD00BF3B48006865
:102C900085423CD300BF2D480068006808B9012078
:102CA00000E0002020B14FF0FF30344908602DE0F3
:102CB00026480068C068C4686668B54202D22F48DA
:102CC000066023E0201DFEF7E9FFA06A18B104F1B9
:102CD0001800FEF7E3FF94F82C10012088402849E3
:102CE0000968084326490860E16A01EB8101254A29
:102CF00002EB8100211DFFF70FF82349E06A096804
:102D0000C96A8842C7D34FF00108C4E700BF1E4814
:102D10000068C06A00EB80001A4951F820000128C1
:102D200001D94FF0010805E0FFE718480068401C92
:102D3000164908601648006808B14FF0010840467F
:102D4000BDE8F081780000205400002044000020FD
:102D50004672656552544F535C7461736B732E6396
:102D6000000000004572726F723A25732C25640DC5
:102D70000A000000480000206800002070000020C9
:102D800058000020D00100204000002060000020FA
:102D90006400002070B505462C460026002D4BD05F
:102DA00026480068844201D1012000E0002028B9B3
:102DB00040F6C76222A127A0FDF7DCFFA06C28B96E
:102DC00040F6C9621EA123A0FDF7D4FFA06C401EEF
:102DD000A064616CE06A88422ED0A06C60BB201DAC
:102DE000FEF75CFF78B9E06A00EB80001D4951F8FE
:102DF000200040B994F82C10012088401A49096835
:102E0000814319480160606CE062E06AC0F1200013
:102E1000A06194F82C1001208840134909680843E8
:102E200011490860E16A01EB81010E4A02EB810061
:102E3000211DFEF771FF0126304670BD40000020C5
:102E40004672656552544F535C7461736B732E63A5
:102E5000000000004572726F723A25732C25640DD4
:102E60000A000000D00100205800002070B506467E
:102E7000F068C4682CB940F661321AA11EA0FDF7B3
:102E800079FF04F11800FEF709FF1F480068A8B990
:102E9000201DFEF703FF94F82C10012088401B49E9
:102EA0000968084319490860E16A01EB8101184A81
:102EB00002EB8100211DFEF72FFF04E004F1180151
:102EC0001448FEF729FF1449E06A0968C96A884274
:102ED00004D9012501201149086000E00025284699
:102EE00070BD00004672656552544F535C74617347
:102EF0006B732E63000000004572726F723A257387
:102F00002C25640D0A0000007800002058000020E5
:102F1000D001002078040020400000206400002040
:102F200070B5002400263448006828B94FF4FD62CB
:102F300032A137A0FDF71EFFFEF7FAFE2E4800680B
:102F4000401E2D4908600846006800284FD13448CB
:102F5000006800284BD024E03248C068C46804F1FF
:102F60001800FEF79BFE201DFEF798FE94F82C102B
:102F7000012088402C49096808432B490860E16A10
:102F800001EB8101294A02EB8100211DFEF7C4FEFD
:102F90002749E06A0968C96A884202D301202549A5
:102FA00008602048006808B9012000E000200028DF
:102FB000D2D00CB1FEF762FC1F48056865B100BFB6
:102FC000FFF738FE10B101201A4908606D1E002D70
:102FD000F6D10020184908601648006838B101266B
:102FE000300716490860BFF34F8FBFF36F8FFEF7AE
:102FF000E1FE304670BD0000780000204672656535
:1030000052544F535C7461736B732E630000000065
:103010004572726F723A25732C25640D0A00000008
:10302000500000207804002058000020D00100202B
:1030300040000020640000206000002004ED00E05B
:103040001CB50024FEF7D2F80B48006858B10B48B5
:103050001F2100234FF48072CDE9001008A10A4817
:10306000FFF7A2FD04462CB940F2331207A10CA0D1
:10307000FDF780FE20461CBD840000208800002053
:10308000546D722053766300011A0008467265651C
:1030900052544F535C74696D6572732E6300000067
:1030A0004572726F723A25732C25640D0A00000078
:1030B0002DE9FE4304460D4616461F46DDF82880DE
:1030C0004FF000092CB94FF4D37216A11AA0FDF7E6
:1030D00051FE1D48006810B3009501960294062D1C
:1030E00015DAFFF791FD022808D100234246694610
:1030F00015480068FFF7B6FB814610E000231A462A
:10310000694611480068FFF7ADFB814607E00023E0
:103110003A4669460C480068FFF776FC8146484607
:10312000BDE8FE834672656552544F535C74696D09
:103130006572732E630000004572726F723A2573D8
:103140002C25640D0A000000840000206C3100086A
:1031500000000020B8000000940D00082432000890
:10316000B800002028980000A40D0008000000000E
:10317000000000000000000000000000000000004F
:1031800001020304010203040607080902040608F9
:1031900000A24A0400000000000000000102030435
:1031A0000607080900000000000000000000000001
:1031B000000000000000000000000000000000000F
:1031C00000000000000000000000000000000000FF
:1031D00000000000000000000000000000000000EF
:1031E00000000000000000000000000000000000DF
:1031F00000000000000000000000000000000000CF
:1032000000000000000000000000000000000000BE
:1032100000000000AAAAAAAA000000000000000006
:0432200000000000AA
:0400000508000131BD
:00000001FF
