:020000040800F2
:10000000D8980020E1010008ED03000899030008DA
:10001000E9030008790200084B0A0008000000000C
:10002000000000000000000000000000490100087E
:100030007D020008000000008D010008790600081C
:10004000FB010008FB010008FB010008FB010008A0
:10005000FB010008FB010008FB010008FB01000890
:10006000FB010008FB010008FB010008FB01000880
:10007000FB010008FB010008FB010008FB01000870
:10008000FB010008FB010008FB010008FB01000860
:10009000FB010008FB010008FB010008FB01000850
:1000A000FB010008FB010008FB010008FB01000840
:1000B000FB010008FB010008FB010008FB01000830
:1000C000FB010008FB010008FB010008FB01000820
:1000D000FB01000845070008FB010008FB010008C0
:1000E000FB010008FB010008FB010008FB01000800
:1000F000FB010008FB010008FB010008FB010008F0
:10010000FB010008FB010008FB010008FB010008DF
:10011000FB010008FB010008FB010008FB010008CF
:10012000FB010008FB010008FB010008FB010008BF
:10013000DFF810D000F08EF800480047BD0C000832
:10014000AFF30080D8980020224B19680868B0E807
:10015000F00F80F30988BFF36F8F4FF0000080F33A
:1001600011884EF00D0E7047000000000648006830
:10017000006880F3088862B661B6BFF34F8FBFF3A3
:100180006F8F00DF00BF00BF08ED00E0EFF30980D4
:10019000BFF36F8F0F4B1A6820E9F00F106008B59E
:1001A0004FF0500080F31188BFF34F8FBFF36F8F74
:1001B00001F0E4FE4FF0000080F31188BDE8084034
:1001C00019680868B0E8F00F80F30988BFF36F8FF3
:1001D000704700BF3C000020EFF30580704700002F
:1001E0000648804706480047FEE7FEE7FEE7FEE7D1
:1001F000FEE7FEE7FEE7FEE7FEE7FEE7E5060008AE
:100200003101000840EA01039B0703D009E008C957
:10021000121F08C0042AFAD203E011F8013B00F8CB
:10022000013B521EF9D2704730B50B460146002003
:100230002022012409E021FA02F59D4205D303FAA8
:1002400002F5491B04FA02F52844151EA2F1010229
:10025000F1DC30BD064C074D06E0E06840F00103DC
:1002600094E8070098471034AC42F6D3FFF764FFD8
:10027000D82B0008F82B000800BFFEE770472DE9D7
:10028000F04102460025002600200023002400271C
:1002900091F803C00CF00F0591F803C00CF0100C9E
:1002A000BCF1000F03D091F802C04CEA050591F8AB
:1002B00000C0BCF1000F31D0146800202BE04FF0DB
:1002C000010C0CFA00F3B1F800C00CEA03069E42E0
:1002D00020D183004FF00F0C0CFA03F7BC4305FA52
:1002E00003FC4CEA040491F803C0BCF1280F06D1CA
:1002F0004FF0010C0CFA00FCC2F814C00AE091F8AF
:1003000003C0BCF1480F05D14FF0010C0CFA00FC02
:10031000C2F810C0401C0828D1D31460B1F800C046
:10032000BCF1FF0F34DD546800202EE000F1080C12
:100330004FF0010808FA0CF3B1F800C00CEA03060C
:100340009E4221D183004FF00F0C0CFA03F7BC43FF
:1003500005FA03FC4CEA040491F803C0BCF1280F31
:1003600005D100F1080C08FA0CF8C2F8148091F8D5
:1003700003C0BCF1480F07D100F1080C4FF0010891
:1003800008FA0CF8C2F81080401C0828CED354603C
:10039000BDE8F0810161704700BFFEE708B50121AB
:1003A000482000F067F82020ADF8000010208DF8FC
:1003B000030003208DF8020069460948FFF75FFF3C
:1003C00020210748FFF7E6FF2020ADF8000069462E
:1003D0000448FFF754FF20210248FFF7DBFF08BD68
:1003E000000C01400018014000BFFEE7704700000C
:1003F00070B5002100230F22C47804B3154C246883
:1004000004F4E064C4F5E064210AC1F10403CA40C5
:10041000447804FA03F184781440214309010E4C16
:100420000678A155047804F01F050124AC40057836
:100430006D11AD0005F1E025C5F8004109E0047833
:1004400004F01F050124AC40044D0678761145F8F0
:10045000264070BD0CED00E000E400E080E100E02B
:1004600002490143024A1160704700000000FA058A
:100470000CED00E029B1064A92690243044B9A61EF
:1004800004E0034A92698243014B9A61704700007D
:100490000010024030B500210022002400232D4D21
:1004A0006D6805F00C0121B1042905D0082923D17C
:1004B00005E0294D056022E0274D05601FE0254D30
:1004C0006D6805F47012234D6D6805F480340225C3
:1004D00005EB92421CB9214D554305600BE01D4DC3
:1004E0006D6805F400351DB11C4D5543056002E0F3
:1004F000194D5543056002E0174D056000BF00BF70
:10050000144D6D6805F0F0010909154D6B5C056827
:10051000DD4045600F4D6D6805F4E061090A104D3E
:100520006B5C4568DD4085600A4D6D6805F460517F
:10053000C90A0B4D6B5C4568DD40C560054D6D68B3
:1005400005F44041890B074D6B5CC568B5FBF3F5BD
:10055000056130BD0010024000127A0000093D0024
:100560000C0000201C00002010B500F001F810BDA8
:100570000CB50020019000903348006840F48030B2
:100580003149086000BF3048006800F40030009036
:100590000198401C0190009818B90198B0F5A06F1F
:1005A000F1D12948006800F4003010B1012000901A
:1005B00001E0002000900098012843D12348006802
:1005C00040F01000214908600846006820F0030050
:1005D00008600846006840F0020008601A48406859
:1005E000194948600846406848600846406840F439
:1005F000806048600846406820F47C1048600846E7
:10060000406840F4E81048600846006840F0807098
:10061000086000BF0C48006800F000700028F9D0A6
:100620000948406820F003000749486008464068D0
:1006300040F00200486000BF0348406800F00C0032
:100640000828F9D10CBD0000001002400020024033
:10065000042808D14FF0E021096941F004014FF06E
:10066000E022116107E04FF0E021096921F0040167
:100670004FF0E0221161704710B502F077F80128C1
:1006800001D001F01FFD10BD70B505460420FFF735
:10069000DFFF104800681049B0FBF1F00F49087007
:1006A0000C4800680C49B0FBF1F44FF47A704443F5
:1006B00001200B4908804FF0E020006940F0020063
:1006C0004FF0E021086108464461006940F00100F4
:1006D000086170BD2000002040420F00340000205F
:1006E0003600002010B51348006840F001001149A1
:1006F000086008464068104908400E4948600846AE
:1007000000680E4908400B4908600846006820F45C
:10071000802008600846406820F4FE0048604FF4DE
:100720001F008860FFF720FF4FF000600449086059
:1007300010BD0000001002400000FFF8FFFFF6FEB1
:1007400008ED00E010B540F225511D4800F0B8F862
:1007500010B31B4800F070F9C4B21A48008800F4C6
:100760000040C8B91748008800F4804060B10A2CE6
:1007700003D000201349088020E01248008840F48C
:1007800000401049088019E00D2C06D10D48008862
:1007900040F480400B49088010E00A480088C0F30C
:1007A0000D0009490C5407480088401C0549088081
:1007B00008460088C72801DD0020088010BD000021
:1007C0000038014038000020B400002010B586B089
:1007D000044601210420FFF74DFE01218803FFF7A5
:1007E00049FE4FF40070ADF8140003208DF8160098
:1007F00018208DF8170005A91E48FFF740FD4FF49B
:100800008060ADF8140004208DF8170005A9194880
:10081000FFF735FD01940020ADF80800ADF80A009F
:10082000ADF80C00ADF810000C20ADF80E0001A9D9
:10083000114800F095F801210F4800F028F84021F8
:100840000D4800F01BF8012240F225510A4800F043
:1008500061F825208DF8000003208DF801008DF847
:10086000020001208DF803006846FFF7C1FD06B0C5
:1008700010BD0000000801400038014001F4007282
:10088000B2F5007F00D100BFCA430280704721B19A
:10089000828942F40052828104E082894DF6FF731E
:1008A0001A408281704702460020B1F5007F00D1D6
:1008B00000BF13880B400BB1012000E000207047FF
:1008C00070B50246002400230025002040F66A1679
:1008D000B14200D100BFC1F3421501F01F03012650
:1008E00006FA03F3012D02D19689334006E0022D6A
:1008F00002D1168A334001E0968A33400C12012659
:1009000006FA04F41688344013B10CB1012000E05B
:10091000002070BDF0B5034600240026002500200D
:1009200040F66A17B94200D100BF1846C1F342141D
:1009300001F01F06012707FA06F5012C01D10C3042
:1009400004E0022C01D1103000E014301AB1076825
:100950002F43076002E00768AF430760F0BD000067
:100960002DE9F04786B005460E460024A24600BF9A
:10097000A1460027B08900B100BF2F462C8A4CF653
:10098000FF700440F08804432C82AC894EF6F310CB
:100990000440B08831890843718908430443AC811D
:1009A000AC8A4FF6FF400440B0890443AC8201A8F2
:1009B000FFF770FD1F48874202D1DDF810A001E06B
:1009C000DDF80CA0A88900F4004040B10AEBCA0091
:1009D00000EB0A1031684900B0FBF1F807E00AEBC0
:1009E000CA0000EB0A1031688900B0FBF1F86420FE
:1009F000B8FBF0F004012009642101FB1089A889EB
:100A000000F4004040B1322000EBC900B0FBF1F02F
:100A100000F00700044308E0322000EB09106421D5
:100A2000B0FBF1F000F00F0004432C8106B0BDE8EC
:100A3000F08700000038014001468888C0F30800B4
:100A40007047C1F308028280704700BFFEE70000D4
:100A50000FB4054B10B503A9044A029800F018F82A
:100A600010BC5DF814FB0000490C0008B000002029
:100A700002E008C8121F08C1002AFAD17047704767
:100A8000002001E001C1121F002AFBD170470000C5
:100A90002DE9FF4F8BB09A460F460546002606E02B
:100AA00025280BD052460D9990476D1C761C28784E
:100AB0000028F5D10FB03046BDE8F08F0024A046E5
:100AC0000122604900E0044315F8013F203B02FA8F
:100AD00003F00842F7D128782E2817D115F8010F16
:100AE00044F004042A280ED06FF02F022878A0F1D9
:100AF000300109290AD808EB880102EB410100EB1B
:100B000001086D1CF2E757F8048B6D1C28786928E2
:100B10003ED006DC0028CDD063280BD0642804D159
:100B200036E0732810D075284BD052460D99904767
:100B3000761C85E017F8040B8DF8000000208DF876
:100B40000100E946012003E057F8049B4FF0FF3015
:100B500061074FF0000401D40AE0641C44450DDA3B
:100B60008442FADB19F804100029F6D106E0641C6F
:100B70008442FCDB19F804100029F8D1264404E073
:100B800019F8010B52460D999047641EF8D257E0B0
:100B900001CF4FF00A0B002802DA40422D2102E07B
:100BA000210504D52B218DF82410012103E0E10754
:100BB00005D02021F7E70DF1200908910CE0002174
:100BC000F9E701CF4FF00A0BF9E75946FFF72CFB85
:100BD00001F1300209F8012D0028F6D1ADEB090032
:100BE00000F1200B600701D44FF00108D84502DD69
:100BF000A8EB0B0000E000208046002406E009A8D6
:100C00005246005D0D999047641C761C08988442FA
:100C1000F5DB04E0302052460D999047761CB8F180
:100C20000001A8F10108F5DC05E019F8010B5246B6
:100C30000D999047761CBBF10001ABF1010BF4DC80
:100C40006D1C34E70928010070B504460D46E1B279
:100C50000548FFF7F6FE00BF80210348FFF723FE9B
:100C60000028F9D0204670BD003801400DE000207A
:100C700006490860C82000F0DFFF01200449C1F8E0
:100C800094014FF4487000F0D7FFF0E794812142BF
:100C9000008021420DE00020064908604FF44870B2
:100CA00000F0CAFF01200449C1F89401C82000F0F7
:100CB000C3FFF0E794012342000023421CB5482003
:100CC000FFF7E2FC4FF44070FFF7CAFBFFF766FB4B
:100CD0004FF4E130FFF77AFD06480121002380221E
:100CE000CDE9001004A1074801F010FD01F0E8F87B
:100CF00000201CBD0000002073746172745F746179
:100D0000736B0000611800082DE9F04105460E469E
:100D10001C4807681C480068001D00F0D7FD50B94A
:100D20001948006890F82C1001208840174909687C
:100D3000814316480160681C38B936B11248016811
:100D4000091D134800F000FE1AE07C190E480068E7
:100D50004460BC4207D20C480168091D0D48006878
:100D600000F0D8FD0CE008480168091D0A48006839
:100D700000F0D0FD09480068844201D207480460B1
:100D8000BDE8F081500000203C000020540000200D
:100D90009C04002044000020400000206C00002043
:100DA00010B5044600F0DCFD23480068401C2249D1
:100DB00008602248006840B920480460084600687E
:100DC00001280DD100F0D8F90AE01D48006838B9B3
:100DD0001A480068C06AE16A884201D8174804606E
:100DE00018480068401C1749086094F82C1001202E
:100DF000884015490968084313490860E16A01EB16
:100E00008101124A02EB8100211D00F09DFD00F0DE
:100E1000E9FD0B48006868B108480068C06AE16AEB
:100E2000884207D24FF0805009490860BFF34F8FC6
:100E3000BFF36F8F10BD00004C0000203C0000206D
:100E4000580000206800002054000020CC01002041
:100E500004ED00E010B500F083FD10480068D0B943
:100E60000F4800F047FD0F4800F044FD0C480E49C4
:100E700008600C480D49086000220C210A2001F08E
:100E80003BF9064908600846006820B108A10348FC
:100E9000006800F095FE00F0A5FD10BD8000002068
:100EA000B0040020C4040020780000207C00002052
:100EB000546D72510000000070B523E001F056F847
:100EC0001348006808B9012000E00020054601F041
:100ED0006DFDBDB900F044FD0D48C068C468201D1B
:100EE00000F0F4FC0B480068401E0A4908600A48FC
:100EF0000068401E0849086000F074FD204600F0BC
:100F000057F800BF044800680028D7D170BD000022
:100F1000880400204C0000204800002070B50446E2
:100F20000D46206C70B1216CE0680844E060616897
:100F3000E068884201D32068E0602846226CE168BE
:100F4000FFF760F970BD2DE9F04104460F461546E4
:100F50004FF00008A66B206C28B37DB93946226C8F
:100F6000A068FFF74FF9216CA0680844A060D4E99D
:100F70000110884217D32068A06014E03946226C23
:100F8000E068FFF73FF9216CE068401AE0602168F3
:100F9000E068884203D2216C6068401AE060022D4C
:100FA00001D106B1761E701CA0634046BDE8F081F9
:100FB00010B50446206B00F04BFD204600F048FDC4
:100FC00010BD00000146084A126812680AB90122E1
:100FD00000E000220A600A6822B9034A1268D26857
:100FE000106800E0002070477800002030B54FF412
:100FF0001043174800F007042CB1C01D20F0070073
:10100000134C041B1B1B0246124C22600024114D82
:101010006C60D018083820F007000F4C20600024C6
:101020000D4D2D686C600C4D2D682C601146441AD6
:101030004C60094C24680C60084D4C682C60084DCD
:101040004C682C604FF00044064D2C6030BD000011
:10105000D80400208C000020940000209C00002078
:1010600098000020A000002000BFFFF725FF0648E1
:1010700000680128F9D94FF0805004490860BFF397
:101080004F8FBFF36F8FF0E7CC01002004ED00E03D
:101090002DE9F04106460D4617469846069C0DB9C7
:1010A000246000E02760E66325640121204601F00A
:1010B00033F9BDE8F08100002DE9FF5F81460E465F
:1010C0009246DDE90E7B109CAAF10100216B01EB39
:1010D000800828F0070808F0070008B9012000E0A0
:1010E000002028B940F22B321AA11FA0FFF7B0FC54
:1010F000002507E0715D04F134004155705D00B9D1
:1011000002E06D1C102DF5D300BF002143200155D6
:10111000202F00D31F27E762201D00F0F8FB04F109
:10112000180000F0F4FB2461C7F12000A0616462A4
:101130000020606484F8480049464046039A00F065
:101140007DFB2060BBF1000F01D0CBF80040BDE873
:10115000FF9F00004672656552544F535C74617383
:101160006B732E63000000004572726F723A257334
:101170002C25640D0A00000010B5002407E004EBE4
:1011800084010F4A02EB810000F0B4FB641C202CA8
:10119000F5D30C4800F0AEFB0B4800F0ABFB0B485E
:1011A00000F0A8FB0A4800F0A5FB0A4800F0A2FBEB
:1011B00004480949086004480849086010BD000057
:1011C000CC0100204C0400206004002074040020A6
:1011D000880400209C0400204000002044000020DF
:1011E00010B50146164800E0006803688B42FBD347
:1011F0000246436813448B4204D143684C6823443D
:10120000436001460A464B6813440468A34211D167
:101210000C4C03682468A34208D04B6804686468D7
:1012200023444B6003681B680B6005E0054B1B689B
:101230000B6001E003680B60884200D0016010BDC4
:101240008C000020940000202DE9F04104460D465A
:1012500016461F464FF0000865602461B5420CD861
:10126000F01BA169884202D34FF0010811E0211D53
:101270000948006800F04EFB0BE0BE4204D2BD42BC
:1012800002D34FF0010804E0211D0448006800F07B
:1012900041FB4046BDE8F0817C0000207800002042
:1012A00070B5054600F05CFBA86B08B9012400E0AE
:1012B000002400F097FB204670BD70B5054600F095
:1012C0004FFBA86BE96B884201D1012400E00024A8
:1012D00000F088FB204670BDF8B505460F46134860
:1012E0000068C068C468201D00F0F0FAE0690128B9
:1012F00018D1A06941192B463A462046FFF7A4FFB2
:1013000080B1002003462A4601460090204601F0A5
:1013100015FC06462EB94FF4027205A109A0FFF78D
:1013200097FB00BF2046616A8847F8BD780000201F
:101330004672656552544F535C74696D6572732EC5
:10134000630000004572726F723A25732C25640D9C
:101350000A00000070B586B060E0039800285DDBED
:10136000059C606908B9012000E0002010B9201D2B
:1013700000F0ACFA02A800F0C5F8054603980A2868
:101380004AD2DFE800F00905072C2E4506082D2F6C
:1013900000BF00BF00BF00BF0498A26981180346C8
:1013A0002A462046FFF750FFC0B12046616A8847B1
:1013B000E069012812D1002000900498A169421828
:1013C00000231946204601F0B9FB06462EB940F22B
:1013D000213218A11CA0FFF73BFB00BF1DE000BF9E
:1013E0001BE000BF0498A061A06908B1012000E0E3
:1013F000002028B94FF44E720EA113A0FFF728FB6E
:10140000A06941192B462A462046FFF71DFF04E03C
:10141000204600F01DFB00E000BF00BF00231A467D
:1014200003A90D48006800F0A1FE002895D106B080
:1014300070BD00004672656552544F535C74696D0F
:101440006572732E630000004572726F723A2573E5
:101450002C25640D0A00000080000020F8B5054628
:101460000C4600F083FD684600F04CF806460098F4
:1014700020BB44B9B54206D801F098FA3146284657
:10148000FFF72AFF1CE03CB10E480068006808B96D
:10149000012000E000200446A91B22460A480068FB
:1014A00000F0A4FB01F082FA50B94FF080500749D8
:1014B0000860BFF34F8FBFF36F8F01E001F076FA42
:1014C000F8BD00007C0000208000002004ED00E05A
:1014D0000A490968096809B9012100E0002121B120
:1014E0004FF0FF31064A116006E004490968C968F7
:1014F000C868034A4168116070470000400000203E
:101500006C00002070B5044601F040F9054607481C
:101510000068854204D200F00BF80120206001E051
:101520000020206001480560284670BD880000202A
:101530002DE9F8432DE021480068C06805681F4880
:101540000068C068C468201D00F0C0F92046616AC8
:101550008847E06901281CD1A0694619AE4207D925
:1015600066602461211D1548006800F0D3F910E081
:10157000002003462A4601460090204601F0DEFA8C
:1015800007462FB940F292320DA112A0FFF760FA80
:1015900000BF0A480068006808B9012000E0002088
:1015A0000028C8D00548D0F800800E4800680349DC
:1015B00008600C48C0F80080BDE8F883780000207F
:1015C0004672656552544F535C74696D6572732E33
:1015D000630000004572726F723A25732C25640D0A
:1015E0000A0000007C0000200B480068401C08B97D
:1015F000012000E0002020B9F42208A111A0FFF78B
:1016000027FA00BF502080F31188BFF34F8FBFF33C
:101610006F8F00BF00BFFEE7A40000204672656523
:1016200052544F535C706F727461626C655C5256B9
:1016300044535C41524D5F434D335C706F72742E66
:10164000630000004572726F723A25732C25640D99
:101650000A00000008B500BF6846FFF7B3FC044667
:1016600020460099FFF7FAFEFFF774FEF4E770B525
:10167000044600F075F994F9455010E0606A08B925
:10168000012000E0002038B904F1240001F034F911
:1016900018B100F091FB00E003E0681E45B2002D98
:1016A000ECDC00BFFF2084F8450000F09BF900F05F
:1016B00057F994F9445010E0206908B9012000E07E
:1016C000002048B904F1100001F016F908B100F04B
:1016D00073FB681E45B200E001E0002DECDC00BFAA
:1016E000FF2084F8440000F07DF970BD2DE9F04141
:1016F00004464FF0000800F039FC3E48006808B985
:10170000FFF774FC3C480068204000285FD1A4B17A
:10171000083404F0070080B104F00700C0F10800AD
:10172000044404F0070008B9012000E0002020B9BB
:10173000BF2232A13AA0FFF78BF9002C47D03C48DA
:101740000068844243D83B4E3046056801E02E468F
:101750002D686868A04202D228680028F7D1254881
:101760000068854233D0306800F10808286830608E
:101770006868001B102813D92F1907F0070008B953
:10178000012000E0002020B9EC221CA124A0FFF7DA
:101790005FF96868001B78606C603846FFF720FDD1
:1017A000234968680968081A2149086008460068E2
:1017B00021490968884203D21D4800681E49086013
:1017C0000D4968680968084368600020286001F0D6
:1017D000EDF808F0070008B9012000E0002028B962
:1017E0004FF4967205A10EA0FFF732F94046BDE80E
:1017F000F081000094000020A00000204672656582
:1018000052544F535C706F727461626C655C4D65CD
:101810006D4D616E675C686561705F342E630000BA
:101820004572726F723A25732C25640D0A00000010
:10183000980000208C0000209C000020001F4FF02A
:1018400080730360001F21F001030360001F034B3E
:10185000036014380260203870470000E915000862
:101860001CB5044600F07CF80D480221002332220A
:10187000CDE900100BA10E4800F048FF0D480321F0
:1018800000233222CDE900100BA10E4800F03EFFEC
:101890000D48006800F00AFA00F0A4F81CBD000032
:1018A000040000206C6564315F7461736B0000009C
:1018B0006D0C0008080000206C6564325F74617371
:1018C0006B000000950C00080000002001460A692A
:1018D000D1E901309860D1E901035860506888422D
:1018E00001D188685060002008611068401E1060B7
:1018F0001068704700F1080141604FF0FF318160CE
:1019000000F10801C1600161002101607047002100
:101910000161704710B502460B685C1C0CB9106978
:1019200007E002F1080000E04068446824689C4237
:10193000FAD944684C604C68A160886041600A61D3
:101940001468641C146010BD42684A6093688B6020
:10195000936859609160086103685B1C036070477D
:1019600010B500BF502080F31188BFF34F8FBFF335
:101970006F8F00BF0B480068401C0A49086008468A
:10198000006801280DD108480068C0B208B90120DC
:1019900000E0002028B94FF4BD7204A10DA0FFF7AC
:1019A00057F810BDA400002004ED00E04672656504
:1019B00052544F535C706F727461626C655C525626
:1019C00044535C41524D5F434D335C706F72742ED3
:1019D000630000004572726F723A25732C25640D06
:1019E0000A00000010B50B48006828B940F28112C7
:1019F00009A113A0FFF72CF806480068401E05490E
:101A000008600846006820B9002080F3118800BFF4
:101A100000BF10BDA40000204672656552544F53AC
:101A20005C706F727461626C655C525644535C41C9
:101A3000524D5F434D335C706F72742E6300000033
:101A40004572726F723A25732C25640D0A000000EE
:101A500070B506463546002E35D0083D2C461A494D
:101A600060680968084008B1012000E0002028B93A
:101A70004FF4A07215A11EA0FEF7EAFF206808B976
:101A8000012000E0002028B940F241120FA118A067
:101A9000FEF7DEFF0C4960680968084098B12068CD
:101AA00088B90949606809688843606000F05EFA97
:101AB0001349606809680844114908602046FFF727
:101AC0008FFB00F073FF70BDA000002046726565BB
:101AD00052544F535C706F727461626C655C4D65FB
:101AE0006D4D616E675C686561705F342E630000E8
:101AF0004572726F723A25732C25640D0A0000003E
:101B000098000020064800684FF47A71B0FBF1F0AD
:101B1000401E4FF0E0214861072008617047000037
:101B20002000002070B5FEF757FB0546102D11D39D
:101B300005F1E02090F8F04310480078844201DB82
:101B4000012000E0002028B94FF42A720CA116A051
:101B5000FEF77EFF1848006800F4E0601749096846
:101B6000884201D8012000E0002028B94FF42E72ED
:101B700003A10DA0FEF76CFF70BD0000A8000020BF
:101B80004672656552544F535C706F727461626C3B
:101B9000655C525644535C41524D5F434D335C701B
:101BA0006F72742E630000004572726F723A257373
:101BB0002C25640D0A0000000CED00E0AC000020B4
:101BC000024600200BE0084B53F8303033B9064B87
:101BD00043F8301003EBC0035A6002E0401C0A28AF
:101BE000F1D300BF704700007C0100202DE9F041D7
:101BF00005460E4617462C46FFF7B2FE94F9440000
:101C0000401C10B9002084F8440094F94500401CA1
:101C100010B9002084F84500FFF7E4FEA06B28B956
:101C20003A46314604F1240000F0F6F82046FFF76A
:101C30001EFDBDE8F081000070B504460025ACB182
:101C40000F48006808B9012000E0002028B940F2E0
:101C5000CF420CA110A0FEF7FBFE00F087F9002197
:101C60002046FFF751F800F0A1FE05463DB94FF0C0
:101C700080500D490860BFF34F8FBFF36F8F70BD69
:101C8000740000204672656552544F535C74617352
:101C90006B732E63000000004572726F723A2573F9
:101CA0002C25640D0A00000004ED00E070B5054627
:101CB000FFF756FE15B92D48006800E02846044697
:101CC000201DFFF703FE78B9E06A00EB8000284989
:101CD00051F8200040B994F82C1001208840254983
:101CE0000968814323480160A06A18B104F1180013
:101CF000FFF7ECFD20480068401C1F4908601B48A6
:101D00000068844209D1211D1C48FFF71DFE1C48B4
:101D10000068401C1A49086009E01A480068401E23
:101D2000184908602046FFF743F9FFF7D1FBFFF79A
:101D300059FE15480068C0B10C480068844214D1AF
:101D40001248006808B9012000E0002028B940F2DC
:101D500065420FA113A0FEF77BFE4FF0805015499E
:101D60000860BFF34F8FBFF36F8F70BD3C00002042
:101D7000CC010020540000206800002088040020CE
:101D8000480000204C000020580000207400002073
:101D90004672656552544F535C7461736B732E6366
:101DA000000000004572726F723A25732C25640D95
:101DB0000A00000004ED00E00120014908607047BE
:101DC0006000002070B504460D462CB940F606327E
:101DD00007A10CA0FEF73CFE0E4801681831204612
:101DE000FFF798FD01212846FEF78EFF70BD000029
:101DF0004672656552544F535C7461736B732E6306
:101E0000000000004572726F723A25732C25640D34
:101E10000A0000003C00002070B505460E4614463E
:101E20002DB940F6313209A10DA0FEF711FE104880
:101E3000016818312846FFF787FD0CB14FF0FF36D7
:101E400021463046FEF760FF70BD000046726565B2
:101E500052544F535C7461736B732E630000000027
:101E60004572726F723A25732C25640D0A000000CA
:101E70003C00002010B504462CB940F6C13205A143
:101E800009A0FEF7E5FD0C48006820600B480068DB
:101E9000606010BD4672656552544F535C74617347
:101EA0006B732E63000000004572726F723A2573E7
:101EB0002C25640D0A000000640000205000002062
:101EC0001CB51A4800210B468022CDE9001018A14C
:101ED000194800F01BFC0446012C02D100F0F6FD6D
:101EE0000446012C15D100BF502080F31188BFF3A8
:101EF0004F8FBFF36F8F00BF4FF0FF300F49086067
:101F000001200F49086000200E49086000F08AF89F
:101F10000BE0601C08B1012000E0002028B940F26D
:101F2000847209A10DA0FEF793FD1CBD7000002076
:101F300049444C4500000000691000086C00002076
:101F400058000020500000204672656552544F53DF
:101F50005C7461736B732E63000000004572726FD6
:101F6000723A25732C25640D0A00000002480068AF
:101F7000401C0149086070477400002010B51B48E0
:101F8000006818B101201A4908602DE000201849A6
:101F9000086018480068B0FA80F0C0F11F0404EB34
:101FA0008400154951F8200008B1012000E000200C
:101FB00028B940F6F62211A115A0FEF749FD04EB61
:101FC00084010D4A02EB810041684968416000F1DB
:101FD000080142688A4202D141684968416041680B
:101FE000C9680F4A116000BF10BD000074000020D6
:101FF0006000002054000020CC010020467265657E
:1020000052544F535C7461736B732E630000000075
:102010004572726F723A25732C25640D0A00000018
:102020003C0000201CB52248014609780191FF219F
:10203000024611700146097800919DF8001001F0E8
:1020400050011C4A117007211B4A116009E01A490E
:102050000968491E184A11609DF800104906090ECA
:1020600000919DF8001001F080018029EFD0124905
:1020700009680902104A11601146098801F4E061FB
:1020800011600B4A019911700C48006840F470000F
:102090000A4908600846006840F070400860FFF791
:1020A00031FD002006490860FEF760F800201CBDE5
:1020B00000E400E0A8000020AC00002020ED00E0DB
:1020C000A400002010B500BF502080F31188BFF39A
:1020D0004F8FBFF36F8F00BF00F05EFB18B14FF062
:1020E00080500449086000BF002080F3118800BFC1
:1020F00010BD000004ED00E02DE9F84305460E4652
:1021000090460DB1012000E0002028B94FF4C472C0
:102110000DA112A0FEF79CFC0EB9002701E005FB03
:1021200006F707F14800FFF7E1FA044644B104F16D
:10213000480943464A46314628460094FEF7A8FF20
:102140002046BDE8F88300004672656552544F533F
:102150005C71756575652E63000000004572726FD5
:10216000723A25732C25640D0A0000002DE9FF4703
:1021700082B005460E461F464FF0000A2C462CB989
:1021800040F2DC425AA15FA0FEF762FC0EB9206C5F
:1021900008B9012000E0002028B940F2DD4254A136
:1021A00058A0FEF755FC00F0E1FA08B9049808B908
:1021B000012000E0002028B94FF49C624CA151A0FE
:1021C000FEF746FC00BFFFF7CBFBD4F83890B9F11F
:1021D000000F38D0D4F80C8031462046FEF79EFE22
:1021E000B7B9A9F10100A063206908B9012000E096
:1021F000002010BB04F1100000F07EFBE8B14FF0AE
:10220000805044490860BFF34F8FBFF36F8F14E0D5
:10221000C4F80C80606A08B9012000E0002060B9B1
:1022200004F1240000F068FB38B14FF080503949C8
:102230000860BFF34F8FBFF36F8FFFF7D3FB012011
:1022400006B0BDE8F087049818B9FFF7CBFB002073
:10225000F6E7BAF1000F04D16846FFF70BFE4FF026
:10226000010AFFF7BFFBFFF781FEFFF779FB94F947
:102270004400401C10B9002084F8440094F9450043
:10228000401C10B9002084F84500FFF7ABFB04A9FF
:10229000684600F0EBF9F0B92046FFF701F8A0B16D
:1022A00004F124000499FFF78DFD2046FFF7DFF9C4
:1022B00000F07CFB002886D14FF080501549086063
:1022C000BFF34F8FBFF36F8F7DE72046FFF7CFF946
:1022D00000F06CFB77E72046FFF7C9F900F066FBDA
:1022E0002046FEF7DDFF0028EED00020A8E7000022
:1022F0004672656552544F535C71756575652E6302
:10230000000000004572726F723A25732C25640D2F
:102310000A00000004ED00E070B505460E462C46AC
:102320002CB940F21B121EA122A0FEF791FBFFF771
:1023300017FBD4E90F12206801FB02006060002047
:10234000A0632068A060E06B401E226C216800FB47
:102350000210E060FF2084F8440084F845009EB934
:10236000206908B9012000E00020A8B904F110009C
:1023700000F0C2FA80B14FF0805012490860BFF3FC
:102380004F8FBFF36F8F07E004F11000FFF7B2FA31
:1023900004F12400FFF7AEFAFFF724FB012070BD23
:1023A0004672656552544F535C71756575652E6351
:1023B000000000004572726F723A25732C25640D7F
:1023C0000A00000004ED00E02DE9FF4383B006465B
:1023D00088461D464FF0000934462CB940F2D922F8
:1023E00058A15DA0FEF734FBB8F1000F01D1206CBD
:1023F00008B9012000E0002028B940F2DA2251A1FA
:1024000055A0FEF725FB022D02D1E06B012801D17A
:10241000012000E0002028B940F2DB2249A14EA0B3
:10242000FEF716FB00F0A2F908B9059808B90120DB
:1024300000E0002028B940F2DE2242A146A0FEF7CB
:1024400007FB00BFFFF78CFAA06BE16B884201D35A
:10245000022D28D12A4641462046FEF774FD074644
:10246000606A08B9012000E0002068B904F1240086
:1024700000F042FA88B14FF080503B490860BFF34A
:102480004F8FBFF36F8F08E03FB14FF08050364958
:102490000860BFF34F8FBFF36F8FFFF7A3FA0120E0
:1024A00007B0BDE8F083059818B9FFF79BFA002044
:1024B000F6E7B9F1000F04D101A8FFF7DBFC4FF0FC
:1024C0000109FFF78FFAFFF751FDFFF749FA94F979
:1024D0004400401C10B9002084F8440094F94500E1
:1024E000401C10B9002084F84500FFF77BFA05A9CD
:1024F00001A800F0BBF8F0B92046FEF7DEFEA0B15F
:1025000004F110000599FFF75DFC2046FFF7AFF8D6
:1025100000F04CFA002895D14FF080501249086025
:10252000BFF34F8FBFF36F8F8CE72046FFF79FF805
:1025300000F03CFA86E72046FFF799F800F036FAFB
:102540000020ADE74672656552544F535C71756566
:1025500075652E63000000004572726F723A257334
:102560002C25640D0A00000004ED00E02DE9F05F69
:1025700007468A4690461E463C462CB940F29F329A
:1025800031A136A0FEF764FABAF1000F01D1206C38
:1025900008B9012000E0002028B94FF468722AA190
:1025A0002EA0FEF755FA022E02D1E06B012801D1D0
:1025B000012000E0002028B940F2A13222A127A08A
:1025C000FEF746FAFFF7AEFA00BF5021EFF3118095
:1025D00081F31188BFF34F8FBFF36F8F00BF0546A4
:1025E000A06BE16B884201D3022E23D194F945B050
:1025F000324651462046FEF7A6FC0BF1010088B991
:10260000606A08B9012000E0002080B904F12400CC
:1026100000F072F958B1B8F1000F08D00120C8F8E5
:10262000000004E00BF1010040B284F845004FF0D7
:10263000010901E04FF0000900BF85F3118800BFD8
:102640004846BDE8F09F00004672656552544F53FE
:102650005C71756575652E63000000004572726FD0
:10266000723A25732C25640D0A0000002DE9F04113
:1026700004460D462CB940F6CB3219A11DA0FEF739
:10268000E7F92DB940F6CC3215A11AA0FEF7E0F912
:10269000FFF766F91B4807682868401C08B9002640
:1026A00019E0194920680968884204D06068B84276
:1026B00001D801260FE06068381A2968884209D2DB
:1026C00028686168791A401A28602046FFF7D2FB13
:1026D000002600E00126FFF785F93046BDE8F081CD
:1026E0004672656552544F535C7461736B732E630D
:1026F000000000004572726F723A25732C25640D3C
:102700000A00000050000020640000202DE9FF4F67
:1027100085B0804689461746DDE912ABB800FEF762
:10272000E5FF064656B14C20FEF7E0FF04460CB12B
:10273000266304E03046FFF78BF900E000247CB10B
:102740000020CDE900ABCDE902403A46494640467B
:10275000089BFEF7B1FC2046FEF722FB012501E0B5
:102760004FF0FF35284609B0BDE8F08F05490968EC
:1027700009B9012005E00449096809B9022000E00F
:1027800000207047580000207400002001490868AC
:1027900070470000500000202DE9F0414FF0000884
:1027A00041480068002872D140480068451C3F48F5
:1027B0000560EDB93E480068006808B9012000E0F6
:1027C000002028B940F6D9123AA13FA0FEF740F9FF
:1027D0003748076840480068354908603E48076048
:1027E0003E480068401C3D490860FEF771FE00BF8E
:1027F0003B48006885423CD300BF2D480068006814
:1028000008B9012000E0002020B14FF0FF3034492A
:1028100008602DE026480068C068C4686668B54254
:1028200002D22F48066023E0201DFFF74FF8A06A70
:1028300018B104F11800FFF749F894F82C100120A2
:10284000884028490968084326490860E16A01EB85
:102850008101254A02EB8100211DFFF775F823490C
:10286000E06A0968C96A8842C7D34FF00108C4E723
:1028700000BF1E480068C06A00EB80001A4951F88A
:102880002000012801D94FF0010805E0FFE71848B2
:102890000068401C164908601648006808B14FF0EF
:1028A00001084046BDE8F08174000020500000207F
:1028B000400000204672656552544F535C7461734A
:1028C0006B732E63000000004572726F723A2573BD
:1028D0002C25640D0A000000440000206400002044
:1028E0006C00002054000020CC0100203C0000209F
:1028F0005C0000206000002070B50646F068C468E7
:102900002CB940F661321AA11EA0FEF7A1F804F11D
:102910001800FEF7DBFF1F480068A8B9201DFEF76E
:10292000D5FF94F82C10012088401B490968084302
:1029300019490860E16A01EB8101184A02EB810044
:10294000211DFFF701F804E004F118011448FEF717
:10295000FBFF1449E06A0968C96A884204D9012565
:1029600001201149086000E00025284670BD0000E4
:102970004672656552544F535C7461736B732E637A
:10298000000000004572726F723A25732C25640DA9
:102990000A0000007400002054000020CC01002038
:1029A000740400203C0000206000002070B500246A
:1029B00000263448006828B94FF4FD6232A137A0E0
:1029C000FEF746F8FEF7CCFF2E480068401E2D4962
:1029D00008600846006800284FD134480068002885
:1029E0004BD024E03248C068C46804F11800FEF7F8
:1029F0006DFF201DFEF76AFF94F82C10012088401F
:102A00002C49096808432B490860E16A01EB810100
:102A1000294A02EB8100211DFEF796FF2749E06A53
:102A20000968C96A884202D3012025490860204804
:102A3000006808B9012000E000200028D2D00CB1C5
:102A4000FEF746FD1F48056865B100BFFFF7A4FE0D
:102A500010B101201A4908606D1E002DF6D100202A
:102A6000184908601648006838B101263007164931
:102A70000860BFF34F8FBFF36F8FFEF7B3FF304691
:102A800070BD0000740000204672656552544F53BB
:102A90005C7461736B732E63000000004572726F8B
:102AA000723A25732C25640D0A0000004C000020AA
:102AB0007404002054000020CC0100203C000020C1
:102AC000600000205C00002004ED00E01CB5002444
:102AD000FEF7C0F90B48006858B10B481F210023CE
:102AE0004FF48072CDE9001008A10A48FFF70EFEEE
:102AF00004462CB940F2331207A10CA0FDF7A8FF41
:102B000020461CBD8000002084000020546D7220EF
:102B100053766300551600084672656552544F534C
:102B20005C74696D6572732E630000004572726F8C
:102B3000723A25732C25640D0A0000002DE9FE432E
:102B400004460D4616461F46DDF828804FF0000962
:102B50002CB94FF4D37216A11AA0FDF779FF1D48C6
:102B6000006810B3009501960294062D15DAFFF760
:102B7000FDFD022808D10023424669461548006839
:102B8000FFF722FC814610E000231A4669461148EF
:102B90000068FFF719FC814607E000233A466946C2
:102BA0000C480068FFF7E2FC81464846BDE8FE831A
:102BB0004672656552544F535C74696D6572732E2D
:102BC000630000004572726F723A25732C25640D04
:102BD0000A00000080000020F82B00080000002000
:102BE000B4000000700A0008AC2C0008B4000020FB
:102BF00024980000800A0008000000000000000087
:102C000000000000000000000102030401020304B0
:102C1000060708090204060800A24A040000000092
:102C2000000000000102030406070809000000007C
:102C30000000000000000000000000000000000094
:102C40000000000000000000000000000000000084
:102C50000000000000000000000000000000000074
:102C60000000000000000000000000000000000064
:102C70000000000000000000000000000000000054
:102C80000000000000000000000000000000000044
:102C9000000000000000000000000000AAAAAAAA8C
:0C2CA00000000000000000000000000028
:0400000508000131BD
:00000001FF
