:020000040800F2
:10000000E0980020E1010008C904000899030008F5
:10001000C504000879020008270B00080000000052
:10002000000000000000000000000000490100087E
:100030007D020008000000008D010008550700083F
:10004000FB010008FB010008FB010008FB010008A0
:10005000FB010008FB010008FB010008FB01000890
:10006000FB010008FB010008FB010008FB01000880
:10007000FB010008FB010008FB010008FB01000870
:10008000FB010008FB010008FB010008FB01000860
:10009000FB010008FB010008FB010008FB01000850
:1000A000FB010008FB010008FB010008FB01000840
:1000B000FB010008FB010008FB010008FB01000830
:1000C000FB010008FB010008FB010008FB01000820
:1000D000FB01000821080008FB010008FB010008E3
:1000E000FB010008FB010008FB010008FB01000800
:1000F000FB010008FB010008FB010008FB010008F0
:10010000FB010008FB010008FB010008FB010008DF
:10011000FB010008FB010008FB010008FB010008CF
:10012000FB010008FB010008FB010008FB010008BF
:10013000DFF810D000F08EF800480047B50E000838
:10014000AFF30080E0980020224B19680868B0E8FF
:10015000F00F80F30988BFF36F8F4FF0000080F33A
:1001600011884EF00D0E7047000000000648006830
:10017000006880F3088862B661B6BFF34F8FBFF3A3
:100180006F8F00DF00BF00BF08ED00E0EFF30980D4
:10019000BFF36F8F0F4B1A6820E9F00F106008B59E
:1001A0004FF0500080F31188BFF34F8FBFF36F8F74
:1001B00002F006F94FF0000080F31188BDE8084016
:1001C00019680868B0E8F00F80F30988BFF36F8FF3
:1001D000704700BF40000020EFF30580704700002B
:1001E0000648804706480047FEE7FEE7FEE7FEE7D1
:1001F000FEE7FEE7FEE7FEE7FEE7FEE7C1070008D1
:100200003101000840EA01039B0703D009E008C957
:10021000121F08C0042AFAD203E011F8013B00F8CB
:10022000013B521EF9D2704730B50B460146002003
:100230002022012409E021FA02F59D4205D303FAA8
:1002400002F5491B04FA02F52844151EA2F1010229
:10025000F1DC30BD064C074D06E0E06840F00103DC
:1002600094E8070098471034AC42F6D3FFF764FFD8
:100270001C3000083C30000800BFFEE770472DE945
:10028000F04102460025002600200023002400271C
:1002900091F803C00CF00F0591F803C00CF0100C9E
:1002A000BCF1000F03D091F802C04CEA050591F8AB
:1002B00000C0BCF1000F31D0146800202BE04FF0DB
:1002C000010C0CFA00F3B1F800C00CEA03069E42E0
:1002D00020D183004FF00F0C0CFA03F7BC4305FA52
:1002E00003FC4CEA040491F803C0BCF1280F06D1CA
:1002F0004FF0010C0CFA00FCC2F814C00AE091F8AF
:1003000003C0BCF1480F05D14FF0010C0CFA00FC02
:10031000C2F810C0401C0828D1D31460B1F800C046
:10032000BCF1FF0F34DD546800202EE000F1080C12
:100330004FF0010808FA0CF3B1F800C00CEA03060C
:100340009E4221D183004FF00F0C0CFA03F7BC43FF
:1003500005FA03FC4CEA040491F803C0BCF1280F31
:1003600005D100F1080C08FA0CF8C2F8148091F8D5
:1003700003C0BCF1480F07D100F1080C4FF0010891
:1003800008FA0CF8C2F81080401C0828CED354603C
:10039000BDE8F0810161704700BFFEE708B50121AB
:1003A000442000F0D5F80120ADF8000028208DF899
:1003B000030069460648FFF762FF1C20ADF8000005
:1003C00048208DF8030069460248FFF758FF08BD32
:1003D000000801400018014010B50446012C01D16D
:1003E000224908702148007801282AD12048006855
:1003F00001280AD01F48006838B11E48001F006855
:1004000018B11C4808380068D8B90A2000F08AFCE6
:1004100000201649087016480068012800D110BD58
:100420001448006808B90220F9E71248001F006864
:1004300008B90320F3E70F4808380068A0B9042082
:10044000EDE70B48006878B90A48006801280BD12D
:100450000848001F0068012806D1064808380068CF
:10046000012801D1014908700020D8E73800002098
:10047000000121421001234208B50121482000F06B
:1004800067F82020ADF8000010208DF8030003204D
:100490008DF8020069460948FFF7F1FE2021074860
:1004A000FFF778FF2020ADF8000069460448FFF709
:1004B000E6FE20210248FFF76DFF08BD000C014059
:1004C0000018014000BFFEE77047000070B5002132
:1004D00000230F22C47804B3154C246804F4E064AC
:1004E000C4F5E064210AC1F10403CA40447804FA67
:1004F00003F184781440214309010E4C0678A1557C
:10050000047804F01F050124AC4005786D11AD009E
:1005100005F1E025C5F8004109E0047804F01F0565
:100520000124AC40044D0678761145F8264070BD94
:100530000CED00E000E400E080E100E0024901434E
:10054000024A1160704700000000FA050CED00E05F
:1005500029B1064A92690243044B9A6104E0034AB6
:1005600092698243014B9A6170470000001002407B
:1005700030B500210022002400232D4D6D6805F0C8
:100580000C0121B1042905D0082923D105E0294D0A
:10059000056022E0274D05601FE0254D6D6805F4DC
:1005A0007012234D6D6805F48034022505EB9242EC
:1005B0001CB9214D554305600BE01D4D6D6805F4D8
:1005C00000351DB11C4D5543056002E0194D5543E2
:1005D000056002E0174D056000BF00BF144D6D6857
:1005E00005F0F0010909154D6B5C0568DD404560BB
:1005F0000F4D6D6805F4E061090A104D6B5C4568AC
:10060000DD4085600A4D6D6805F46051C90A0B4DE7
:100610006B5C4568DD40C560054D6D6805F4404183
:10062000890B074D6B5CC568B5FBF3F5056130BD03
:100630000010024000127A0000093D001000002066
:100640002000002010B500F001F810BD0CB500200E
:10065000019000903348006840F4803031490860D0
:1006600000BF3048006800F4003000900198401C42
:100670000190009818B90198B0F5A06FF1D1294800
:10068000006800F4003010B10120009001E000206B
:1006900000900098012843D12348006840F01000E2
:1006A000214908600846006820F0030008600846F9
:1006B000006840F0020008601A4840681949486024
:1006C0000846406848600846406840F480604860DA
:1006D0000846406820F47C1048600846406840F4B2
:1006E000E81048600846006840F08070086000BF6D
:1006F0000C48006800F000700028F9D009484068F4
:1007000020F00300074948600846406840F00200B6
:10071000486000BF0348406800F00C000828F9D189
:100720000CBD00000010024000200240042808D147
:100730004FF0E021096941F004014FF0E02211611E
:1007400007E04FF0E021096921F004014FF0E022B9
:100750001161704710B502F02BFA012801D001F0A9
:10076000D3FE10BD70B505460420FFF7DFFF10482B
:1007700000681049B0FBF1F00F4908700C480068A0
:100780000C49B0FBF1F44FF47A70444301200B495B
:1007900008804FF0E020006940F002004FF0E021B7
:1007A000086108464461006940F00100086170BDBD
:1007B0002400002040420F003A0000203C000020AE
:1007C00010B51348006840F0010011490860084660
:1007D0004068104908400E494860084600680E49C4
:1007E00008400B4908600846006820F48020086033
:1007F0000846406820F4FE0048604FF41F008860FF
:10080000FFF720FF4FF000600449086010BD0000B2
:10081000001002400000FFF8FFFFF6FE08ED00E0C8
:1008200010B540F225511D4800F0B8F810B31B4830
:1008300000F070F9C4B21A48008800F40040C8B94A
:100840001748008800F4804060B10A2C03D00020D3
:100850001349088020E01248008840F40040104905
:10086000088019E00D2C06D10D48008840F4804026
:100870000B49088010E00A480088C0F30D000949C0
:100880000C5407480088401C054908800846008829
:10089000C72801DD0020088010BD0000003801409D
:1008A0003E000020B800002010B586B004460121AB
:1008B0000420FFF74DFE01218803FFF749FE4FF4A6
:1008C0000070ADF8140003208DF8160018208DF884
:1008D000170005A91E48FFF7D2FC4FF48060ADF861
:1008E000140004208DF8170005A91948FFF7C7FC6C
:1008F00001940020ADF80800ADF80A00ADF80C0036
:10090000ADF810000C20ADF80E0001A9114800F060
:1009100095F801210F4800F028F840210D4800F01B
:100920001BF8012240F225510A4800F061F8252009
:100930008DF8000003208DF801008DF802000120E1
:100940008DF803006846FFF7C1FD06B010BD00003A
:10095000000801400038014001F40072B2F5007F48
:1009600000D100BFCA430280704721B1828942F49E
:100970000052828104E082894DF6FF731A40828121
:10098000704702460020B1F5007F00D100BF1388F8
:100990000B400BB1012000E00020704770B502460B
:1009A000002400230025002040F66A16B14200D141
:1009B00000BFC1F3421501F01F03012606FA03F33D
:1009C000012D02D19689334006E0022D02D1168A0C
:1009D000334001E0968A33400C12012606FA04F4F3
:1009E0001688344013B10CB1012000E0002070BD26
:1009F000F0B50346002400260025002040F66A17C3
:100A0000B94200D100BF1846C1F3421401F01F06DD
:100A1000012707FA06F5012C01D10C3004E0022C65
:100A200001D1103000E014301AB107682F4307607D
:100A300002E00768AF430760F0BD00002DE9F04712
:100A400086B005460E460024A24600BFA1460027F8
:100A5000B08900B100BF2F462C8A4CF6FF700440CD
:100A6000F08804432C82AC894EF6F3100440B08821
:100A700031890843718908430443AC81AC8A4FF63D
:100A8000FF400440B0890443AC8201A8FFF770FD29
:100A90001F48874202D1DDF810A001E0DDF80CA06C
:100AA000A88900F4004040B10AEBCA0000EB0A102C
:100AB00031684900B0FBF1F807E00AEBCA0000EB2F
:100AC0000A1031688900B0FBF1F86420B8FBF0F03F
:100AD00004012009642101FB1089A88900F4004069
:100AE00040B1322000EBC900B0FBF1F000F007008C
:100AF000044308E0322000EB09106421B0FBF1F060
:100B000000F00F0004432C8106B0BDE8F087000020
:100B10000038014001468888C0F308007047C1F3DF
:100B200008028280704700BFFEE700000FB4054B4B
:100B300010B503A9044A029800F018F810BC5DF83B
:100B400014FB0000AD0D0008B400002002E008C84E
:100B5000121F08C1002AFAD170477047002001E037
:100B600001C1121F002AFBD1704700002DE9FF4F81
:100B70008BB09A460F460546002606E025280BD086
:100B800052460D9990476D1C761C28780028F5D1A7
:100B90000FB03046BDE8F08F0024A0460122604926
:100BA00000E0044315F8013F203B02FA03F008423D
:100BB000F7D128782E2817D115F8010F44F0040436
:100BC0002A280ED06FF02F022878A0F130010929D1
:100BD0000AD808EB880102EB410100EB01086D1C0B
:100BE000F2E757F8048B6D1C287869283ED006DCA4
:100BF0000028CDD063280BD0642804D136E07328B8
:100C000010D075284BD052460D999047761C85E040
:100C100017F8040B8DF8000000208DF80100E9465C
:100C2000012003E057F8049B4FF0FF3061074FF0BD
:100C3000000401D40AE0641C44450DDA8442FADB66
:100C400019F804100029F6D106E0641C8442FCDB8C
:100C500019F804100029F8D1264404E019F8010B12
:100C600052460D999047641EF8D257E001CF4FF0DD
:100C70000A0B002802DA40422D2102E0210504D5AA
:100C80002B218DF82410012103E0E10705D020215C
:100C9000F7E70DF1200908910CE00021F9E701CFF9
:100CA0004FF00A0BF9E75946FFF7BEFA01F130029F
:100CB00009F8012D0028F6D1ADEB090000F1200B59
:100CC000600701D44FF00108D84502DDA8EB0B0006
:100CD00000E000208046002406E009A85246005D9E
:100CE0000D999047641C761C08988442F5DB04E05B
:100CF000302052460D999047761CB8F10001A8F1BA
:100D00000108F5DC05E019F8010B52460D999047F2
:100D1000761CBBF10001ABF1010BF4DC6D1C34E778
:100D20000928010070B5044601F042FF012810D0E7
:100D30000B480088844206D309480088B4FBF0F5CC
:100D4000284601F0C5F806480088B4FBF0F100FB26
:100D500011444FF47A7104FB01F000F003F870BD08
:100D60003C00002070B5034600224FF0E026756974
:100D70000D4E367803FB06F44FF0E026B16910E023
:100D80004FF0E026B06988420BD0884202D20E1A9A
:100D9000324402E02E1A0E4432440146A24200D3ED
:100DA00000E0EDE700BF70BD3A00002070B50446DA
:100DB0000D46E1B20548FFF7B2FE00BF80210348AF
:100DC000FFF7DFFD0028F9D0204670BD0038014054
:100DD00000241FE00020FFF7FFFA0446012C0AD18F
:100DE0000DA0FFF7A3FE1048006801F061FA0FA004
:100DF000FFF79CFE0BE0032C09D111A0FFF796FE34
:100E00000948006801F082F911A0FFF78FFE142055
:100E100001F05EF8DEE70000B9D2C6F04C4544C8E8
:100E2000CECEF1A3A10A000008000020B9D2C6F07E
:100E30004C4544C8CECEF1B3C9B9A6A3A10A00005F
:100E4000BBD6B8B44C4544C8CECEF1A3A10A00002D
:100E5000BBD6B8B44C4544C8CECEF1B3C9B9A6A3ED
:100E6000A10A00000DE0002006490860C82001F03A
:100E70002FF801200449C1F894014FF4487001F0A3
:100E800027F8F0E794812142008021420DE0002004
:100E9000064908604FF4487001F01AF8012004492F
:100EA000C1F89401C82001F013F8F0E7940123423F
:100EB000000023421CB54820FFF754FC4FF440705B
:100EC000FFF73CFBFFF7D8FAFFF768FA4FF4E13081
:100ED000FFF7EAFC0648012100238022CDE900103B
:100EE00004A1074801F034FE01F08CF900201CBD7C
:100EF0000000002073746172745F7461736B000092
:100F0000D11A00082DE9F04105460E461C48076835
:100F10001C480068001D00F025FE50B91948006803
:100F200090F82C1001208840174909688143164821
:100F30000160681C38B936B112480168091D1348B0
:100F400000F04EFE1AE07C190E4800684460BC4276
:100F500007D20C480168091D0D48006800F026FE04
:100F60000CE008480168091D0A48006800F01EFEF0
:100F700009480068844201D207480460BDE8F08156
:100F8000540000204000002058000020A004002051
:100F900048000020440000207000002010B50446E6
:100FA00000F02AFE23480068401C224908602248BD
:100FB000006840B9204804600846006801280DD147
:100FC00000F0D8F90AE01D48006838B91A480068EE
:100FD000C06AE16A884201D817480460184800686E
:100FE000401C1749086094F82C10012088401549CE
:100FF0000968084313490860E16A01EB8101124A5C
:1010000002EB8100211D00F0EBFD00F037FE0B48E4
:10101000006868B108480068C06AE16A884207D27F
:101020004FF0805009490860BFF34F8FBFF36F8FB7
:1010300010BD000050000020400000205C00002097
:101040006C00002058000020D001002004ED00E0DA
:1010500010B500F0D1FD10480068D0B90F4800F07D
:1010600095FD0F4800F092FD0C480E4908600C48B1
:101070000D49086000220C210A2001F05FFA0649A0
:1010800008600846006820B108A10348006800F025
:10109000E3FE00F0F3FD10BD84000020B404002046
:1010A000C80400207C00002080000020546D725194
:1010B0000000000070B523E001F07AF913480068E1
:1010C00008B9012000E00020054601F091FEBDB9FD
:1010D00000F092FD0D48C068C468201D00F042FD7C
:1010E0000B480068401E0A4908600A480068401E14
:1010F0000849086000F0C2FD204600F057F800BF24
:10110000044800680028D7D170BD00008C0400207E
:10111000500000204C00002070B504460D46206CA5
:1011200070B1216CE0680844E0606168E068884262
:1011300001D32068E0602846226CE168FFF762F87E
:1011400070BD2DE9F04104460F4615464FF00008EA
:10115000A66B206C28B37DB93946226CA068FFF7D6
:1011600051F8216CA0680844A060D4E901108842BD
:1011700017D32068A06014E03946226CE068FFF7BE
:1011800041F8216CE068401AE0602168E06888421C
:1011900003D2216C6068401AE060022D01D106B1D3
:1011A000761E701CA0634046BDE8F08110B5044671
:1011B000206B00F099FD204600F096FD10BD000068
:1011C0000146084A126812680AB9012200E00022AA
:1011D0000A600A6822B9034A1268D268106800E0FF
:1011E000002070477C00002030B54FF410431748B2
:1011F00000F007042CB1C01D20F00700134C041BA5
:101200001B1B0246124C22600024114D6C60D0184A
:10121000083820F007000F4C206000240D4D2D6889
:101220006C600C4D2D682C601146441A4C60094CC2
:1012300024680C60084D4C682C60084D4C682C608C
:101240004FF00044064D2C6030BD0000DC0400204F
:101250009000002098000020A00000209C000020AA
:10126000A400002000BFFFF725FF06480068012802
:10127000F9D94FF0805004490860BFF34F8FBFF396
:101280006F8FF0E7D001002004ED00E02DE9F04180
:1012900006460D4617469846069C0DB9246000E0A8
:1012A0002760E66325640121204601F057FABDE876
:1012B000F08100002DE9FF5F81460E469246DDE990
:1012C0000E7B109CAAF10100216B01EB800828F035
:1012D000070808F0070008B9012000E0002028B93D
:1012E00040F22B321AA11FA0FFF720FC002507E0D7
:1012F000715D04F134004155705D00B902E06D1C70
:10130000102DF5D300BF002143200155202F00D31D
:101310001F27E762201D00F046FC04F1180000F0D2
:1013200042FC2461C7F12000A06164620020606477
:1013300084F8480049464046039A00F0B7FB206015
:10134000BBF1000F01D0CBF80040BDE8FF9F0000CB
:101350004672656552544F535C7461736B732E63B0
:10136000000000004572726F723A25732C25640DDF
:101370000A00000010B5002407E004EB84010F4AC6
:1013800002EB810000F002FC641C202CF5D30C4819
:1013900000F0FCFB0B4800F0F9FB0B4800F0F6FBFB
:1013A0000A4800F0F3FB0A4800F0F0FB0448094942
:1013B000086004480849086010BD0000D001002002
:1013C0005004002064040020780400208C040020D5
:1013D000A0040020440000204800002010B5014671
:1013E000164800E0006803688B42FBD3024643685E
:1013F00013448B4204D143684C6823444360014644
:101400000A464B6813440468A34211D10C4C03688C
:101410002468A34208D04B680468646823444B6086
:1014200003681B680B6005E0054B1B680B6001E05F
:1014300003680B60884200D0016010BD900000205E
:10144000980000202DE9F04104460D4616461F463F
:101450004FF0000865602461B5420CD8F01BA1690B
:10146000884202D34FF0010811E0211D09480068AD
:1014700000F09CFB0BE0BE4204D2BD4202D34FF011
:10148000010804E0211D0448006800F08FFB40467D
:10149000BDE8F081800000207C00002070B505468A
:1014A00000F0AAFBA86B08B9012400E0002400F0BA
:1014B000E5FB204670BD70B5054600F09DFBA86BAE
:1014C000E96B884201D1012400E0002400F0D6FB42
:1014D000204670BDF8B505460F4613480068C06841
:1014E000C468201D00F03EFBE069012818D1A06906
:1014F00041192B463A462046FFF7A4FF80B1002051
:1015000003462A4601460090204601F039FD064672
:101510002EB94FF4027205A109A0FFF707FB00BF27
:101520002046616A8847F8BD7C00002046726565E8
:1015300052544F535C74696D6572732E63000000E2
:101540004572726F723A25732C25640D0A000000F3
:1015500070B586B060E0039800285DDB059C60698B
:1015600008B9012000E0002010B9201D00F0FAFAAF
:1015700002A800F0C5F8054603980A284AD2DFE819
:1015800000F00905072C2E4506082D2F00BF00BFCF
:1015900000BF00BF0498A269811803462A4620466E
:1015A000FFF750FFC0B12046616A8847E069012813
:1015B00012D1002000900498A16942180023194616
:1015C000204601F0DDFC06462EB940F2213218A17A
:1015D0001CA0FFF7ABFA00BF1DE000BF1BE000BF7F
:1015E0000498A061A06908B1012000E0002028B99A
:1015F0004FF44E720EA113A0FFF798FAA06941199B
:101600002B462A462046FFF71DFF04E0204600F047
:101610006BFB00E000BF00BF00231A4603A90D4882
:10162000006800F0C5FF002895D106B070BD00002D
:101630004672656552544F535C74696D6572732EC2
:10164000630000004572726F723A25732C25640D99
:101650000A00000084000020F8B505460C4600F0A2
:10166000A7FE684600F04CF80646009820BB44B937
:10167000B54206D801F0BCFB31462846FFF72AFFE9
:101680001CE03CB10E480068006808B9012000E089
:1016900000200446A91B22460A48006800F0F2FB1D
:1016A00001F0A6FB50B94FF0805007490860BFF326
:1016B0004F8FBFF36F8F01E001F09AFBF8BD000080
:1016C000800000208400002004ED00E00A49096841
:1016D000096809B9012100E0002121B14FF0FF3173
:1016E000064A116006E004490968C968C868034AE7
:1016F0004168116070470000440000207000002025
:1017000070B5044601F064FA054607480068854252
:1017100004D200F00BF80120206001E000202060DE
:1017200001480560284670BD8C0000202DE9F84373
:101730002DE021480068C06805681F480068C0683F
:10174000C468201D00F00EFA2046616A8847E069EF
:1017500001281CD1A0694619AE4207D966602461F0
:10176000211D1548006800F021FA10E00020034612
:101770002A4601460090204601F002FC07462FB998
:1017800040F292320DA112A0FFF7D0F900BF0A4833
:101790000068006808B9012000E000200028C8D0D7
:1017A0000548D0F800800E480068034908600C48DE
:1017B000C0F80080BDE8F8837C00002046726565B3
:1017C00052544F535C74696D6572732E6300000050
:1017D0004572726F723A25732C25640D0A00000061
:1017E000800000200B480068401C08B9012000E080
:1017F000002020B9F42208A111A0FFF797F900BF3B
:10180000502080F31188BFF34F8FBFF36F8F00BF5D
:1018100000BFFEE7A80000204672656552544F5392
:101820005C706F727461626C655C525644535C41CB
:10183000524D5F434D335C706F72742E6300000035
:101840004572726F723A25732C25640D0A000000F0
:1018500070B5054600262C462DB940F281620EA1D6
:1018600012A0FFF763F915496069884201D1012090
:1018700000E0002070B11249A06A884201D1012025
:1018800000E0002030B9A06A08B9012000E0002083
:1018900000B10126304670BD4672656552544F5303
:1018A0005C7461736B732E63000000004572726F8D
:1018B000723A25732C25640D0A000000A004002054
:1018C0007804002008B500BF6846FFF779FC04469D
:1018D00020460099FFF7C0FEFFF73AFEF4E770B527
:1018E000044600F089F994F9455010E0606A08B99F
:1018F000012000E0002038B904F1240001F01EFAB4
:1019000018B100F0A5FB00E003E0681E45B2002D11
:10191000ECDC00BFFF2084F8450000F0AFF900F0D8
:101920006BF994F9445010E0206908B9012000E0F7
:10193000002048B904F1100001F000FA08B100F0ED
:1019400087FB681E45B200E001E0002DECDC00BF23
:10195000FF2084F8440000F091F970BD2DE9F041BA
:1019600004464FF0000800F023FD3E48006808B927
:10197000FFF73AFC3C480068204000285FD1A4B142
:10198000083404F0070080B104F00700C0F108003B
:10199000044404F0070008B9012000E0002020B949
:1019A000BF2232A13AA0FFF7C1F8002C47D03C4833
:1019B0000068844243D83B4E3046056801E02E461D
:1019C0002D686868A04202D228680028F7D125480F
:1019D0000068854233D0306800F10808286830601C
:1019E0006868001B102813D92F1907F0070008B9E1
:1019F000012000E0002020B9EC221CA124A0FFF768
:101A000095F86868001B78606C603846FFF7E6FC64
:101A1000234968680968081A21490860084600686F
:101A200021490968884203D21D4800681E490860A0
:101A30000D4968680968084368600020286001F063
:101A4000D7F908F0070008B9012000E0002028B904
:101A50004FF4967205A10EA0FFF768F84046BDE866
:101A6000F081000098000020A40000204672656507
:101A700052544F535C706F727461626C655C4D655B
:101A80006D4D616E675C686561705F342E63000048
:101A90004572726F723A25732C25640D0A0000009E
:101AA0009C00002090000020A0000020001F4FF0AC
:101AB00080730360001F21F001030360001F034BCC
:101AC000036014380260203870470000E5170008F2
:101AD0001CB5044600F090F812480221002332227F
:101AE000CDE9001010A1134801F032F8124803218B
:101AF00000233222CDE9001010A1134801F028F88C
:101B00001248042100233222CDE9001010A113480D
:101B100001F01EF81248006800F014FA00F0AEF868
:101B20001CBD0000040000206C6564315F746173AB
:101B30006B000000650E0008080000206C65643230
:101B40005F7461736B0000008D0E00080C000020B4
:101B50006B65795F7461736B00000000D10D000844
:101B60000000002001460A69D1E901309860D1E9FE
:101B7000010358605068884201D188685060002095
:101B800008611068401E10601068704700F108017D
:101B900041604FF0FF31816000F10801C1600161D7
:101BA00000210160704700210161704710B50246B5
:101BB0000B685C1C0CB9106907E002F1080000E03A
:101BC0004068446824689C42FAD944684C604C6878
:101BD000A160886041600A611468641C146010BDD3
:101BE00042684A6093688B609368596091600861AD
:101BF00003685B1C0360704710B500BF502080F382
:101C00001188BFF34F8FBFF36F8F00BF0B48006881
:101C1000401C0A4908600846006801280DD10848A0
:101C20000068C0B208B9012000E0002028B94FF4D4
:101C3000BD7204A10DA0FEF779FF10BDA800002021
:101C400004ED00E04672656552544F535C706F724C
:101C50007461626C655C525644535C41524D5F4303
:101C60004D335C706F72742E630000004572726FAA
:101C7000723A25732C25640D0A00000010B50B483C
:101C8000006828B940F2811209A113A0FEF74EFFA7
:101C900006480068401E054908600846006820B9EB
:101CA000002080F3118800BF00BF10BDA8000020F5
:101CB0004672656552544F535C706F727461626C0A
:101CC000655C525644535C41524D5F434D335C70EA
:101CD0006F72742E630000004572726F723A257342
:101CE0002C25640D0A00000070B506463546002E0E
:101CF00035D0083D2C461A4960680968084008B18B
:101D0000012000E0002028B94FF4A07215A11EA008
:101D1000FEF70CFF206808B9012000E0002028B978
:101D200040F241120FA118A0FEF700FF0C496068B5
:101D30000968084098B1206888B90949606809684D
:101D40008843606000F034FB134960680968084408
:101D5000114908602046FFF741FB01F049F870BDCA
:101D6000A40000204672656552544F535C706F7238
:101D70007461626C655C4D656D4D616E675C686534
:101D800061705F342E6300004572726F723A257382
:101D90002C25640D0A0000009C0000200648006805
:101DA0004FF47A71B0FBF1F0401E4FF0E021486132
:101DB00007200861704700002400002070B5FEF77E
:101DC0000BFA0546102D11D305F1E02090F8F043F1
:101DD00010480078844201DB012000E0002028B98F
:101DE0004FF42A720CA116A0FEF7A0FE1848006856
:101DF00000F4E06017490968884201D8012000E03A
:101E0000002028B94FF42E7203A10DA0FEF78EFE1C
:101E100070BD0000AC0000204672656552544F53FF
:101E20005C706F727461626C655C525644535C41C5
:101E3000524D5F434D335C706F72742E630000002F
:101E40004572726F723A25732C25640D0A000000EA
:101E50000CED00E0B0000020024600200BE0084B33
:101E600053F8303033B9064B43F8301003EBC0035E
:101E70005A6002E0401C0A28F1D300BF70470000FE
:101E8000800100202DE9F04105460E4617462C46FC
:101E9000FFF7B2FE94F94400401C10B9002084F80A
:101EA000440094F94500401C10B9002084F8450016
:101EB000FFF7E4FEA06B28B93A46314604F124004E
:101EC00000F0F6F82046FFF70AFDBDE8F0810000BB
:101ED00070B504460025ACB10F48006808B9012070
:101EE00000E0002028B940F2CF420CA110A0FEF77C
:101EF0001DFE00F05DFA00212046FFF703F800F018
:101F000077FF05463DB94FF080500D490860BFF39B
:101F10004F8FBFF36F8F70BD7800002046726565EC
:101F200052544F535C7461736B732E630000000056
:101F30004572726F723A25732C25640D0A000000F9
:101F400004ED00E070B50546FFF756FE15B92D48C3
:101F5000006800E028460446201DFFF703FE78B91C
:101F6000E06A00EB8000284951F8200040B994F85D
:101F70002C100120884025490968814323480160CD
:101F8000A06A18B104F11800FFF7ECFD20480068C2
:101F9000401C1F4908601B480068844209D1211D6C
:101FA0001C48FFF71DFE1C480068401C1A490860C9
:101FB00009E01A480068401E184908602046FFF7EB
:101FC000F5F8FFF783FBFFF759FE15480068C0B12D
:101FD0000C480068844214D11248006808B90120F6
:101FE00000E0002028B940F265420FA113A0FEF7DF
:101FF0009DFD4FF0805015490860BFF34F8FBFF330
:102000006F8F70BD40000020D001002058000020DC
:102010006C0000208C0400204C00002050000020A8
:102020005C000020780000204672656552544F53D2
:102030005C7461736B732E63000000004572726FF5
:10204000723A25732C25640D0A00000004ED00E0AF
:1020500001200149086070476400002070B5044603
:102060000D462CB940F6063207A10CA0FEF75EFD26
:102070000E48016818312046FFF798FD01212846D7
:10208000FEF740FF70BD00004672656552544F5325
:102090005C7461736B732E63000000004572726F95
:1020A000723A25732C25640D0A00000040000020C0
:1020B00070B505460E4614462DB940F6313209A1D9
:1020C0000DA0FEF733FD1048016818312846FFF7D0
:1020D00087FD0CB14FF0FF3621463046FEF712FF68
:1020E00070BD00004672656552544F535C74617355
:1020F0006B732E63000000004572726F723A257395
:102100002C25640D0A0000004000002070B5054633
:102110002C462DB940F2AB621AA11FA0FEF706FDB6
:1021200074B32148006884422AD0FFF765FD204639
:10213000FFF78EFB10B3201DFFF714FD94F82C1051
:102140000120884019490968084318490860E16A74
:1021500001EB8101164A02EB8100211DFFF740FDD2
:102160001149E06A0968C96A884207D34FF0805074
:1021700010490860BFF34F8FBFF36F8FFFF77EFDED
:1021800070BD00004672656552544F535C746173B4
:102190006B732E63000000004572726F723A2573F4
:1021A0002C25640D0A00000040000020580000208B
:1021B000D001002004ED00E010B504462CB940F633
:1021C000C13205A109A0FEF7B1FC0C4800682060EF
:1021D0000B480068606010BD4672656552544F53ED
:1021E0005C7461736B732E63000000004572726F44
:1021F000723A25732C25640D0A0000006800002047
:10220000540000201CB51A4800210B468022CDE95D
:10221000001018A1194800F09BFC0446012C02D1C3
:1022200000F076FE0446012C15D100BF502080F34B
:102230001188BFF34F8FBFF36F8F00BF4FF0FF3098
:102240000F49086001200F49086000200E4908600E
:1022500000F00AF90BE0601C08B1012000E000204A
:1022600028B940F2847209A10DA0FEF75FFC1CBDE5
:102270007400002049444C4500000000651200082D
:10228000700000205C00002054000020467265654C
:1022900052544F535C7461736B732E6300000000E3
:1022A0004572726F723A25732C25640D0A00000086
:1022B00070B50546FFF7A0FC15B92C48006800E092
:1022C00028460446201DFFF74DFC78B9E06A00EB74
:1022D0008000274951F8200040B994F82C100120C3
:1022E000884024490968814322480160A06A18B1E6
:1022F00004F11800FFF736FC211D1F48FFF770FCA2
:10230000FFF7BCFC1D48006828B1FFF775FCFFF71C
:10231000DDF9FFF7B3FC15480068844224D1174863
:102320000068A8B11648006808B9012000E0002044
:1023300028B940F2576213A117A0FEF7F7FB4FF040
:10234000805019490860BFF34F8FBFF36F8F0BE0C8
:102350000948006815490968884203D100200349EB
:10236000086001E000F02CF870BD00004000002083
:10237000D001002058000020A00400205C000020B4
:10238000780000204672656552544F535C74617347
:102390006B732E63000000004572726F723A2573F2
:1023A0002C25640D0A00000004ED00E05000002020
:1023B00002480068401C014908607047780000200E
:1023C00010B51B48006818B101201A4908602DE0BB
:1023D00000201849086018480068B0FA80F0C0F181
:1023E0001F0404EB8400154951F8200008B10120B6
:1023F00000E0002028B940F6F62211A115A0FEF752
:1024000095FB04EB84010D4A02EB810041684968A9
:10241000416000F1080142688A4202D1416849687E
:1024200041604168C9680F4A116000BF10BD0000DB
:10243000780000206400002058000020D001002017
:102440004672656552544F535C7461736B732E63AF
:10245000000000004572726F723A25732C25640DDE
:102460000A000000400000201CB5224801460978FF
:102470000191FF21024611700146097800919DF8F3
:10248000001001F050011C4A117007211B4A116015
:1024900009E01A490968491E184A11609DF80010A0
:1024A0004906090E00919DF8001001F08001802975
:1024B000EFD0124909680902104A116011460988D3
:1024C00001F4E06111600B4A019911700C48006839
:1024D00040F470000A4908600846006840F0704007
:1024E0000860FFF75BFC002006490860FDF73EFE30
:1024F00000201CBD00E400E0AC000020B000002083
:1025000020ED00E0A800002010B500BF502080F3AF
:102510001188BFF34F8FBFF36F8F00BF00F05EFBDA
:1025200018B14FF080500449086000BF002080F3CC
:10253000118800BF10BD000004ED00E02DE9F84354
:1025400005460E4690460DB1012000E0002028B956
:102550004FF4C4720DA112A0FEF7E8FA0EB90027DD
:1025600001E005FB06F707F14800FFF7F7F904461D
:1025700044B104F1480943464A463146284600948E
:10258000FEF784FE2046BDE8F883000046726565CC
:1025900052544F535C71756575652E6300000000E1
:1025A0004572726F723A25732C25640D0A00000083
:1025B0002DE9FF4782B005460E461F464FF0000A40
:1025C0002C462CB940F2DC425AA15FA0FEF7AEFACD
:1025D0000EB9206C08B9012000E0002028B940F2B3
:1025E000DD4254A158A0FEF7A1FA00F0E1FA08B9C3
:1025F000049808B9012000E0002028B94FF49C623B
:102600004CA151A0FEF792FA00BFFFF7F5FAD4F8FB
:102610003890B9F1000F38D0D4F80C8031462046FC
:10262000FEF77AFDB7B9A9F10100A063206908B9E6
:10263000012000E0002010BB04F1100000F07EFB40
:10264000E8B14FF0805044490860BFF34F8FBFF3AB
:102650006F8F14E0C4F80C80606A08B9012000E0B4
:10266000002060B904F1240000F068FB38B14FF09D
:10267000805039490860BFF34F8FBFF36F8FFFF76A
:10268000FDFA012006B0BDE8F087049818B9FFF7FD
:10269000F5FA0020F6E7BAF1000F04D16846FFF71B
:1026A0008BFD4FF0010AFFF7E9FAFFF781FEFFF714
:1026B000A3FA94F94400401C10B9002084F84400A7
:1026C00094F94500401C10B9002084F84500FFF73C
:1026D000D5FA04A9684600F0EBF9F0B92046FEF7F8
:1026E000DDFEA0B104F124000499FFF7B7FC2046F9
:1026F000FFF7F5F800F07CFB002886D14FF0805002
:1027000015490860BFF34F8FBFF36F8F7DE72046F9
:10271000FFF7E5F800F06CFB77E72046FFF7DFF8FE
:1027200000F066FB2046FEF7B9FE0028EED0002040
:10273000A8E700004672656552544F535C71756599
:1027400075652E63000000004572726F723A257342
:102750002C25640D0A00000004ED00E070B505466C
:102760000E462C462CB940F21B121EA122A0FEF7E9
:10277000DDF9FFF741FAD4E90F12206801FB0200EE
:1027800060600020A0632068A060E06B401E226CA7
:10279000216800FB0210E060FF2084F8440084F808
:1027A00045009EB9206908B9012000E00020A8B9C1
:1027B00004F1100000F0C2FA80B14FF080501249CD
:1027C0000860BFF34F8FBFF36F8F07E004F1100075
:1027D000FFF7DCF904F12400FFF7D8F9FFF74EFA10
:1027E000012070BD4672656552544F535C7175652A
:1027F00075652E63000000004572726F723A257392
:102800002C25640D0A00000004ED00E02DE9FF43D3
:1028100083B0064688461D464FF0000934462CB961
:1028200040F2D92258A15DA0FEF780F9B8F1000F5F
:1028300001D1206C08B9012000E0002028B940F245
:10284000DA2251A155A0FEF771F9022D02D1E06BF9
:10285000012801D1012000E0002028B940F2DB224C
:1028600049A14EA0FEF762F900F0A2F908B9059857
:1028700008B9012000E0002028B940F2DE2242A180
:1028800046A0FEF753F900BFFFF7B6F9A06BE16B66
:10289000884201D3022D28D12A4641462046FEF720
:1028A00050FC0746606A08B9012000E0002068B9C2
:1028B00004F1240000F042FA88B14FF080503B4907
:1028C0000860BFF34F8FBFF36F8F08E03FB14FF049
:1028D000805036490860BFF34F8FBFF36F8FFFF70B
:1028E000CDF9012007B0BDE8F083059818B9FFF7CE
:1028F000C5F90020F6E7B9F1000F04D101A8FFF7F0
:102900005BFC4FF00109FFF7B9F9FFF751FDFFF745
:1029100073F994F94400401C10B9002084F8440075
:1029200094F94500401C10B9002084F84500FFF7D9
:10293000A5F905A901A800F0BBF8F0B92046FEF7FB
:10294000BAFDA0B104F110000599FFF787FB2046FE
:10295000FEF7C5FF00F04CFA002895D14FF08050EB
:1029600012490860BFF34F8FBFF36F8F8CE720468B
:10297000FEF7B5FF00F03CFA86E72046FEF7AFFF12
:1029800000F036FA0020ADE74672656552544F53A9
:102990005C71756575652E63000000004572726F8D
:1029A000723A25732C25640D0A00000004ED00E046
:1029B0002DE9F05F07468A4690461E463C462CB9F4
:1029C00040F29F3231A136A0FEF7B0F8BAF1000F05
:1029D00001D1206C08B9012000E0002028B94FF493
:1029E00068722AA12EA0FEF7A1F8022E02D1E06B98
:1029F000012801D1012000E0002028B940F2A132D5
:102A000022A127A0FEF792F8FFF7D8F900BF5021C6
:102A1000EFF3118081F31188BFF34F8FBFF36F8FF6
:102A200000BF0546A06BE16B884201D3022E23D183
:102A300094F945B0324651462046FEF782FB0BF131
:102A4000010088B9606A08B9012000E0002080B95F
:102A500004F1240000F072F958B1B8F1000F08D069
:102A60000120C8F8000004E00BF1010040B284F836
:102A700045004FF0010901E04FF0000900BF85F368
:102A8000118800BF4846BDE8F09F000046726565AA
:102A900052544F535C71756575652E6300000000DC
:102AA0004572726F723A25732C25640D0A0000007E
:102AB0002DE9F04104460D462CB940F6CB3219A160
:102AC0001DA0FEF733F82DB940F6CC3215A11AA09F
:102AD000FEF72CF8FFF790F81B4807682868401CA1
:102AE00008B9002619E0194920680968884204D00D
:102AF0006068B84201D801260FE06068381A29687A
:102B0000884209D228686168791A401A28602046EC
:102B1000FFF752FB002600E00126FFF7AFF8304632
:102B2000BDE8F0814672656552544F535C74617321
:102B30006B732E63000000004572726F723A25734A
:102B40002C25640D0A0000005400002068000020BD
:102B50002DE9FF4F85B0804689461746DDE912AB67
:102B6000B800FEF7FBFE064656B14C20FEF7F6FE17
:102B700004460CB1266304E03046FFF7B5F800E0E8
:102B800000247CB10020CDE900ABCDE902403A46FB
:102B900049464046089BFEF78DFB2046FEF7FEF9AE
:102BA000012501E04FF0FF35284609B0BDE8F08F60
:102BB0000549096809B9012005E00449096809B90E
:102BC000022000E0002070475C0000207800002018
:102BD0000149086870470000540000202DE9F041C9
:102BE0004FF0000841480068002872D14048006852
:102BF000451C3F480560EDB93E480068006808B9CB
:102C0000012000E0002028B940F6D9123AA13FA0E7
:102C1000FDF78CFF37480768404800683549086071
:102C20003E4807603E480068401C3D490860FEF78A
:102C30004DFD00BF3B48006885423CD300BF2D4896
:102C40000068006808B9012000E0002020B14FF0C2
:102C5000FF30344908602DE026480068C068C46829
:102C60006668B54202D22F48066023E0201DFEF7B9
:102C700079FFA06A18B104F11800FEF773FF94F809
:102C80002C1001208840284909680843264908601B
:102C9000E16A01EB8101254A02EB8100211DFEF76B
:102CA0009FFF2349E06A0968C96A8842C7D34FF089
:102CB0000108C4E700BF1E480068C06A00EB80003E
:102CC0001A4951F82000012801D94FF0010805E008
:102CD000FFE718480068401C16490860164800685D
:102CE00008B14FF001084046BDE8F08178000020AF
:102CF00054000020440000204672656552544F5332
:102D00005C7461736B732E63000000004572726F18
:102D1000723A25732C25640D0A000000480000203B
:102D2000680000207000002058000020D001002022
:102D300040000020600000206400002070B50646BE
:102D4000F068C4682CB940F661321AA11EA0FDF7E4
:102D5000EDFE04F11800FEF705FF1F480068A8B952
:102D6000201DFEF7FFFE94F82C10012088401B491F
:102D70000968084319490860E16A01EB8101184AB2
:102D800002EB8100211DFEF72BFF04E004F1180186
:102D90001448FEF725FF1449E06A0968C96A8842A9
:102DA00004D9012501201149086000E000252846CA
:102DB00070BD00004672656552544F535C74617378
:102DC0006B732E63000000004572726F723A2573B8
:102DD0002C25640D0A000000780000205800002017
:102DE000D001002078040020400000206400002072
:102DF00070B5002400263448006828B94FF4FD62FD
:102E000032A137A0FDF792FEFEF7F6FE2E480068CD
:102E1000401E2D4908600846006800284FD13448FC
:102E2000006800284BD024E03248C068C46804F130
:102E30001800FEF797FE201DFEF794FE94F82C1064
:102E4000012088402C49096808432B490860E16A41
:102E500001EB8101294A02EB8100211DFEF7C0FE32
:102E60002749E06A0968C96A884202D301202549D6
:102E700008602048006808B9012000E00020002810
:102E8000D2D00CB1FEF722FC1F48056865B100BF27
:102E9000FFF7A4FE10B101201A4908606D1E002D35
:102EA000F6D10020184908601648006838B101269C
:102EB000300716490860BFF34F8FBFF36F8FFEF7DF
:102EC000DDFE304670BD000078000020467265656A
:102ED00052544F535C7461736B732E630000000097
:102EE0004572726F723A25732C25640D0A0000003A
:102EF000500000207804002058000020D00100205D
:102F000040000020640000206000002004ED00E08C
:102F10001CB50024FEF79CF80B48006858B10B481C
:102F20001F2100234FF48072CDE9001008A10A4848
:102F3000FFF70EFE04462CB940F2331207A10CA095
:102F4000FDF7F4FD20461CBD840000208800002011
:102F5000546D722053766300C5180008467265658B
:102F600052544F535C74696D6572732E6300000098
:102F70004572726F723A25732C25640D0A000000A9
:102F80002DE9FE4304460D4616461F46DDF828800F
:102F90004FF000092CB94FF4D37216A11AA0FDF717
:102FA000C5FD1D48006810B3009501960294062DDA
:102FB00015DAFFF7FDFD022808D1002342466946D5
:102FC00015480068FFF722FC814610E000231A46EE
:102FD000694611480068FFF719FC814607E00023A5
:102FE0003A4669460C480068FFF7E2FC81464846CD
:102FF000BDE8FE834672656552544F535C74696D3B
:103000006572732E630000004572726F723A257309
:103010002C25640D0A000000840000203C300008CC
:1030200000000020B80000004C0B0008F43000083D
:10303000B8000020289800005C0B00080000000089
:103040000000000000000000000000000000000080
:10305000010203040102030406070809020406082A
:1030600000A24A0400000000000000000102030466
:103070000607080901000000000000000000000031
:103080000000000000000000000000000000000040
:103090000000000000000000000000000000000030
:1030A0000000000000000000000000000000000020
:1030B0000000000000000000000000000000000010
:1030C0000000000000000000000000000000000000
:1030D00000000000000000000000000000000000F0
:1030E00000000000AAAAAAAA000000000000000038
:0430F00000000000DC
:0400000508000131BD
:00000001FF
