:020000040800F2
:10000000E8980020E1010008DD05000899030008D8
:10001000A9050008790200083B0C00080000000058
:10002000000000000000000000000000490100087E
:100030007D020008000000008D010008690800082A
:10004000FB010008FB010008FB010008FB010008A0
:10005000FB010008FB010008FB010008FB01000890
:10006000FB010008FB010008FB010008FB01000880
:10007000FB010008FB010008FB010008FB01000870
:10008000FB010008FB010008FB010008FB01000860
:10009000FB010008FB010008FB010008FB01000850
:1000A000FB010008FB010008FB010008FB01000840
:1000B000FB010008FB010008FB010008FB01000830
:1000C000FB010008FB010008FB010008FB01000820
:1000D000FB01000835090008FB010008FB010008CE
:1000E000FB010008FB010008FB010008FB01000800
:1000F000FB010008FB010008FB010008FB010008F0
:10010000FB010008FB010008FB010008FB010008DF
:10011000FB010008FB010008FB010008FB010008CF
:10012000FB010008FB010008FB010008FB010008BF
:10013000DFF810D000F08EF800480047850E000868
:10014000AFF30080E8980020224B19680868B0E8F7
:10015000F00F80F30988BFF36F8F4FF0000080F33A
:1001600011884EF00D0E7047000000000648006830
:10017000006880F3088862B661B6BFF34F8FBFF3A3
:100180006F8F00DF00BF00BF08ED00E0EFF30980D4
:10019000BFF36F8F0F4B1A6820E9F00F106008B59E
:1001A0004FF0500080F31188BFF34F8FBFF36F8F74
:1001B00002F096F84FF0000080F31188BDE8084087
:1001C00019680868B0E8F00F80F30988BFF36F8FF3
:1001D000704700BF4C000020EFF30580704700001F
:1001E0000648804706480047FEE7FEE7FEE7FEE7D1
:1001F000FEE7FEE7FEE7FEE7FEE7FEE7D5080008BC
:100200003101000840EA01039B0703D009E008C957
:10021000121F08C0042AFAD203E011F8013B00F8CB
:10022000013B521EF9D2704730B50B460146002003
:100230002022012409E021FA02F59D4205D303FAA8
:1002400002F5491B04FA02F52844151EA2F1010229
:10025000F1DC30BD064C074D06E0E06840F00103DC
:1002600094E8070098471034AC42F6D3FFF764FFD8
:10027000303000085030000800BFFEE770472DE91D
:10028000F04102460025002600200023002400271C
:1002900091F803C00CF00F0591F803C00CF0100C9E
:1002A000BCF1000F03D091F802C04CEA050591F8AB
:1002B00000C0BCF1000F31D0146800202BE04FF0DB
:1002C000010C0CFA00F3B1F800C00CEA03069E42E0
:1002D00020D183004FF00F0C0CFA03F7BC4305FA52
:1002E00003FC4CEA040491F803C0BCF1280F06D1CA
:1002F0004FF0010C0CFA00FCC2F814C00AE091F8AF
:1003000003C0BCF1480F05D14FF0010C0CFA00FC02
:10031000C2F810C0401C0828D1D31460B1F800C046
:10032000BCF1FF0F34DD546800202EE000F1080C12
:100330004FF0010808FA0CF3B1F800C00CEA03060C
:100340009E4221D183004FF00F0C0CFA03F7BC43FF
:1003500005FA03FC4CEA040491F803C0BCF1280F31
:1003600005D100F1080C08FA0CF8C2F8148091F8D5
:1003700003C0BCF1480F07D100F1080C4FF0010891
:1003800008FA0CF8C2F81080401C0828CED354603C
:10039000BDE8F0810161704700BFFEE7012423E062
:1003A00012A000F04DFC00235A1E194617480068A1
:1003B00002F08EF80446012C02D115A000F040FC9A
:1003C0001A48006808B9012000E0002017490860B9
:1003D00000231A4619460D48006802F0B5F9044694
:1003E0004FF4FA7001F082FDDAE7000048696768AF
:1003F0005072696F726974795F5461736B20BBF1DD
:10040000C8A1D0C5BAC5C1BF0A00000014000020B1
:10041000486967685072696F726974795F54617373
:100420006B2052756E6E696E670A0000940123425C
:1004300008B50121442000F015F90120ADF80000B5
:1004400028208DF8030069460648FFF718FF1C2096
:10045000ADF8000048208DF8030069460248FFF718
:100460000EFF08BD000801400018014008B5012139
:10047000482000F0F7F82020ADF8000010208DF89B
:10048000030003208DF8020069460948FFF7F7FED4
:1004900020210748FFF77EFF2020ADF800006946C5
:1004A0000448FFF7ECFE20210248FFF773FF08BD68
:1004B000000C01400018014001243CE01EA000F0A7
:1004C000BFFB00235A1E19462348006802F000F8BB
:1004D0000446012C02D121A000F0B2FB00202649E5
:1004E00008600CE04FF0805024490860BFF34F8F44
:1004F000BFF36F8F20480068401C1F4908601E48EA
:1005000000681F498842EDD31EA000F099FB00232C
:100510001A4619461048006802F016F904462148A8
:10052000006808B9012000E000201E4908604FF46F
:10053000FA7001F0DBFCC1E74C6F775072696F72A3
:100540006974795F5461736B20BBF1C8A1D0C5BADF
:10055000C5C1BF0A00000000140000204C6F775096
:1005600072696F726974795F5461736B2052756E32
:100570006E696E670A0A00001800002004ED00E0B2
:1005800080841E004C6F775072696F726974795F56
:100590005461736B20CACDB7C5D0C5BAC5C1BF21E0
:1005A0000D0A00009401234200BFFEE706E004A00C
:1005B00000F046FB4FF4FA7001F098FCF7E70000FA
:1005C0004D69645072696F726974795F5461736BBD
:1005D0002052756E6E696E670A0000007047000059
:1005E00070B5002100230F22C47804B3154C246891
:1005F00004F4E064C4F5E064210AC1F10403CA40D4
:10060000447804FA03F184781440214309010E4C24
:100610000678A155047804F01F050124AC40057844
:100620006D11AD0005F1E025C5F8004109E0047841
:1006300004F01F050124AC40044D0678761145F8FE
:10064000264070BD0CED00E000E400E080E100E039
:1006500002490143024A1160704700000000FA0598
:100660000CED00E029B1064A92690243044B9A61FD
:1006700004E0034A92698243014B9A61704700008B
:100680000010024030B500210022002400232D4D2F
:100690006D6805F00C0121B1042905D0082923D18A
:1006A00005E0294D056022E0274D05601FE0254D3E
:1006B0006D6805F47012234D6D6805F480340225D1
:1006C00005EB92421CB9214D554305600BE01D4DD1
:1006D0006D6805F400351DB11C4D5543056002E001
:1006E000194D5543056002E0174D056000BF00BF7E
:1006F000144D6D6805F0F0010909154D6B5C056836
:10070000DD4045600F4D6D6805F4E061090A104D4C
:100710006B5C4568DD4085600A4D6D6805F460518D
:10072000C90A0B4D6B5C4568DD40C560054D6D68C1
:1007300005F44041890B074D6B5CC568B5FBF3F5CB
:10074000056130BD0010024000127A0000093D0032
:100750001C0000202C00002010B500F001F810BD96
:100760000CB50020019000903348006840F48030C0
:100770003149086000BF3048006800F40030009044
:100780000198401C0190009818B90198B0F5A06F2D
:10079000F1D12948006800F4003010B10120009028
:1007A00001E0002000900098012843D12348006810
:1007B00040F01000214908600846006820F003005E
:1007C00008600846006840F0020008601A48406867
:1007D000194948600846406848600846406840F447
:1007E000806048600846406820F47C1048600846F5
:1007F000406840F4E81048600846006840F08070A7
:10080000086000BF0C48006800F000700028F9D0B4
:100810000948406820F003000749486008464068DE
:1008200040F00200486000BF0348406800F00C0040
:100830000828F9D10CBD0000001002400020024041
:10084000042808D14FF0E021096941F004014FF07C
:10085000E022116107E04FF0E021096921F0040175
:100860004FF0E0221161704710B502F03FF9012806
:1008700001D001F0D9FD10BD70B505460420FFF789
:10088000DFFF104800681049B0FBF1F00F49087015
:100890000C4800680C49B0FBF1F44FF47A70444303
:1008A00001200B4908804FF0E020006940F0020071
:1008B0004FF0E021086108464461006940F0010002
:1008C000086170BD3000002040420F00440000204D
:1008D0004600002010B51348006840F0010011499F
:1008E000086008464068104908400E4948600846BC
:1008F00000680E4908400B4908600846006820F46B
:10090000802008600846406820F4FE0048604FF4EC
:100910001F008860FFF720FF4FF000600449086067
:1009200010BD0000001002400000FFF8FFFFF6FEBF
:1009300008ED00E010B540F225511D4800F0B8F870
:1009400010B31B4800F070F9C4B21A48008800F4D4
:100950000040C8B91748008800F4804060B10A2CF4
:1009600003D000201349088020E01248008840F49A
:1009700000401049088019E00D2C06D10D48008870
:1009800040F480400B49088010E00A480088C0F31A
:100990000D0009490C5407480088401C054908808F
:1009A00008460088C72801DD0020088010BD00002F
:1009B0000038014048000020C400002010B586B077
:1009C000044601210420FFF74DFE01218803FFF7B3
:1009D00049FE4FF40070ADF8140003208DF81600A6
:1009E00018208DF8170005A91E48FFF748FC4FF4A2
:1009F0008060ADF8140004208DF8170005A919488F
:100A0000FFF73DFC01940020ADF80800ADF80A00A6
:100A1000ADF80C00ADF810000C20ADF80E0001A9E7
:100A2000114800F095F801210F4800F028F8402106
:100A30000D4800F01BF8012240F225510A4800F051
:100A400061F825208DF8000003208DF801008DF855
:100A5000020001208DF803006846FFF7C1FD06B0D3
:100A600010BD0000000801400038014001F4007290
:100A7000B2F5007F00D100BFCA430280704721B1A8
:100A8000828942F40052828104E082894DF6FF732C
:100A90001A408281704702460020B1F5007F00D1E4
:100AA00000BF13880B400BB1012000E0002070470D
:100AB00070B50246002400230025002040F66A1687
:100AC000B14200D100BFC1F3421501F01F0301265E
:100AD00006FA03F3012D02D19689334006E0022D78
:100AE00002D1168A334001E0968A33400C12012667
:100AF00006FA04F41688344013B10CB1012000E06A
:100B0000002070BDF0B5034600240026002500201B
:100B100040F66A17B94200D100BF1846C1F342142B
:100B200001F01F06012707FA06F5012C01D10C3050
:100B300004E0022C01D1103000E014301AB1076833
:100B40002F43076002E00768AF430760F0BD000075
:100B50002DE9F04786B005460E460024A24600BFA8
:100B6000A1460027B08900B100BF2F462C8A4CF661
:100B7000FF700440F08804432C82AC894EF6F310D9
:100B80000440B08831890843718908430443AC812B
:100B9000AC8A4FF6FF400440B0890443AC8201A800
:100BA000FFF770FD1F48874202D1DDF810A001E079
:100BB000DDF80CA0A88900F4004040B10AEBCA009F
:100BC00000EB0A1031684900B0FBF1F807E00AEBCE
:100BD000CA0000EB0A1031688900B0FBF1F864200C
:100BE000B8FBF0F004012009642101FB1089A889F9
:100BF00000F4004040B1322000EBC900B0FBF1F03E
:100C000000F00700044308E0322000EB09106421E3
:100C1000B0FBF1F000F00F0004432C8106B0BDE8FA
:100C2000F08700000038014001468888C0F30800C2
:100C30007047C1F308028280704700BFFEE70000E2
:100C40000FB4054B10B503A9044A029800F018F838
:100C500010BC5DF814FB0000390E0008C000002035
:100C600002E008C8121F08C1002AFAD17047704775
:100C7000002001E001C1121F002AFBD170470000D3
:100C80002DE9FF4F8BB09A460F460546002606E039
:100C900025280BD052460D9990476D1C761C28785C
:100CA0000028F5D10FB03046BDE8F08F0024A046F3
:100CB0000122604900E0044315F8013F203B02FA9D
:100CC00003F00842F7D128782E2817D115F8010F24
:100CD00044F004042A280ED06FF02F022878A0F1E7
:100CE000300109290AD808EB880102EB410100EB29
:100CF00001086D1CF2E757F8048B6D1C28786928F1
:100D00003ED006DC0028CDD063280BD0642804D167
:100D100036E0732810D075284BD052460D99904775
:100D2000761C85E017F8040B8DF8000000208DF884
:100D30000100E946012003E057F8049B4FF0FF3023
:100D400061074FF0000401D40AE0641C44450DDA49
:100D50008442FADB19F804100029F6D106E0641C7D
:100D60008442FCDB19F804100029F8D1264404E081
:100D700019F8010B52460D999047641EF8D257E0BE
:100D800001CF4FF00A0B002802DA40422D2102E089
:100D9000210504D52B218DF82410012103E0E10762
:100DA00005D02021F7E70DF1200908910CE0002182
:100DB000F9E701CF4FF00A0BF9E75946FFF734FA8C
:100DC00001F1300209F8012D0028F6D1ADEB090040
:100DD00000F1200B600701D44FF00108D84502DD77
:100DE000A8EB0B0000E000208046002406E009A8E4
:100DF0005246005D0D999047641C761C0898844209
:100E0000F5DB04E0302052460D999047761CB8F18E
:100E10000001A8F10108F5DC05E019F8010B5246C4
:100E20000D999047761CBBF10001ABF1010BF4DC8E
:100E30006D1C34E70928010070B504460D46E1B287
:100E40000548FFF7F6FE00BF80210348FFF723FEA9
:100E50000028F9D0204670BD003801400DE0002088
:100E600006490860C82001F041F801200449C1F892
:100E700094014FF4487001F039F8F0E79481214271
:100E8000008021421CB54820FFF7F6FC4FF440706B
:100E9000FFF7DEFBFFF7EAFAFFF7CAFA4FF4E1309B
:100EA000FFF78CFD08A0FFF7CBFE0E4801210023C1
:100EB0008022CDE900100CA10E4801F0E7FD01F001
:100EC000B1F900201CBD00004672656552544F53B5
:100ED000D3C5CFC8BCB6B7ADD7AACAB5D1E90D0A3C
:100EE000000000000000002073746172745F746180
:100EF000736B0000851A00082DE9F04105460E4687
:100F00001C4807681C480068001D00F039FE50B9F5
:100F10001948006890F82C1001208840174909688A
:100F2000814316480160681C38B936B1124801681F
:100F3000091D134800F062FE1AE07C190E48006893
:100F40004460BC4207D20C480168091D0D48006886
:100F500000F03AFE0CE008480168091D0A480068E4
:100F600000F032FE09480068844201D2074804605C
:100F7000BDE8F081600000204C00002064000020EB
:100F8000AC04002054000020500000207C00002011
:100F900010B5044600F03EFE23480068401C22497C
:100FA00008602248006840B920480460084600688C
:100FB00001280DD100F0E2F90AE01D48006838B9B7
:100FC0001A480068C06AE16A884201D8174804607C
:100FD00018480068401C1749086094F82C1001203C
:100FE000884015490968084313490860E16A01EB24
:100FF0008101124A02EB8100211D00F0FFFD00F08B
:101000004BFE0B48006868B108480068C06AE16A96
:10101000884207D24FF0805009490860BFF34F8FD4
:10102000BFF36F8F10BD00005C0000204C0000205B
:10103000680000207800002064000020DC0100200F
:1010400004ED00E010B500F0E5FD10480068D0B9EF
:101050000F4800F0A9FD0F4800F0A6FD0C480E490E
:1010600008600C480D49086000220C210A2001F09C
:10107000F5F9064908600846006820B108A1034850
:10108000006800F0F7FE00F007FE10BD90000020A1
:10109000C0040020D4040020880000208C00002020
:1010A000546D72510000000070B523E001F010F99A
:1010B0001348006808B9012000E00020054601F04F
:1010C000A1FEBDB900F0A6FD0D48C068C468201D92
:1010D00000F056FD0B480068401E0A4908600A48A7
:1010E0000068401E0849086000F0D6FD204600F068
:1010F00060F800BF044800680028D7D170BD000028
:10110000980400205C0000205800002070B50446C0
:101110000D46206C70B1216CE0680844E0606168A5
:10112000E068884201D32068E0602846226CE168CC
:10113000FFF768F870BD2DE9F04104460F461546EB
:101140004FF00008A66B206C40B9206860BB606857
:1011500001F092FD80460020606025E07DB93946AF
:10116000226CA068FFF74EF8216CA0680844A060CC
:10117000D4E90110884217D32068A06014E03946F2
:10118000226CE068FFF73EF8216CE068401AE060EE
:101190002168E068884203D2216C6068401AE060F0
:1011A000022D01D106B1761E701CA0634046BDE839
:1011B000F08110B50446206B00F0A4FD204600F03D
:1011C000A1FD10BD0146084A126812680AB9012241
:1011D00000E000220A600A6822B9034A1268D26855
:1011E000106800E0002070478800002030B54FF400
:1011F0001043174800F007042CB1C01D20F0070071
:10120000134C041B1B1B0246124C22600024114D80
:101210006C60D018083820F007000F4C20600024C4
:101220000D4D2D686C600C4D2D682C601146441AD4
:101230004C60094C24680C60084D4C682C60084DCB
:101240004C682C604FF00044064D2C6030BD00000F
:10125000E80400209C000020A4000020AC00002036
:10126000A8000020B000002000BFFFF71DFF0648C7
:1012700000680128F9D94FF0805004490860BFF395
:101280004F8FBFF36F8FF0E7DC01002004ED00E02B
:101290002DE9F04106460D4617469846069C0DB9C5
:1012A000246000E02760E66325640121204601F008
:1012B000F3F9BDE8F08100002DE9FF5F81460F469C
:1012C0009246DDE90E6B109CAAF10100216B01EB47
:1012D000800828F0070808F0070008B9012000E09E
:1012E000002028B940F22B321BA120A0FFF7A8FC58
:1012F000002507E0795D04F134004155785D00B9BF
:1013000002E06D1C102DF5D300BF002143200155D4
:10131000202E00D31F26E66266640020A064201DF4
:1013200000F04FFC04F1180000F04BFC2461C6F102
:101330002000A06164620020E06484F85000494607
:101340004046039A00F08CFB2060BBF1000F01D0F7
:10135000CBF80040BDE8FF9F4672656552544F537D
:101360005C7461736B732E63000000004572726FD2
:10137000723A25732C25640D0A00000010B5002474
:1013800007E004EB84010F4A02EB810000F00CFC43
:10139000641C202CF5D30C4800F006FC0B4800F030
:1013A00003FC0B4800F000FC0A4800F0FDFB0A4873
:1013B00000F0FAFB0448094908600448084908603D
:1013C00010BD0000DC0100205C040020700400203F
:1013D0008404002098040020AC0400205000002069
:1013E0005400002010B50146164800E0006803686C
:1013F0008B42FBD30246436813448B4204D14368BB
:101400004C682344436001460A464B681344046811
:10141000A34211D10C4C03682468A34208D04B6846
:101420000468646823444B6003681B680B6005E034
:10143000054B1B680B6001E003680B60884200D01D
:10144000016010BD9C000020A40000202DE9F041A7
:1014500004460D4616461F464FF00008656024619D
:10146000B5420CD8F01BA169884202D34FF00108A5
:1014700011E0211D0948006800F0A6FB0BE0BE4208
:1014800004D2BD4202D34FF0010804E0211D0448FC
:10149000006800F099FB4046BDE8F0818C00002018
:1014A0008800002070B5054600F0B4FBA86B08B9B1
:1014B000012400E0002400F0EFFB204670BD70B571
:1014C000054600F0A7FBA86BE96B884201D1012417
:1014D00000E0002400F0E0FB204670BDF8B50546B2
:1014E0000F4613480068C068C468201D00F048FB20
:1014F000E069012818D1A06941192B463A462046D7
:10150000FFF7A4FF80B1002003462A460146009061
:10151000204601F03FFD06462EB94FF4027205A1A8
:1015200009A0FFF78DFB00BF2046616A8847F8BD20
:10153000880000204672656552544F535C74696D93
:101540006572732E630000004572726F723A2573E4
:101550002C25640D0A00000070B586B060E0039889
:1015600000285DDB059C606908B9012000E00020CF
:1015700010B9201D00F004FB02A800F0C5F80546D4
:1015800003980A284AD2DFE800F00905072C2E4507
:1015900006082D2F00BF00BF00BF00BF0498A2693E
:1015A000811803462A462046FFF750FFC0B1204667
:1015B000616A8847E069012812D1002000900498F0
:1015C000A169421800231946204601F0E3FC0646B3
:1015D0002EB940F2213218A11CA0FFF731FB00BF49
:1015E0001DE000BF1BE000BF0498A061A06908B126
:1015F000012000E0002028B94FF44E720EA113A084
:10160000FFF71EFBA06941192B462A462046FFF72B
:101610001DFF04E0204600F075FB00E000BF00BFA6
:1016200000231A4603A90D48006800F051FF002866
:1016300095D106B070BD00004672656552544F5397
:101640005C74696D6572732E630000004572726F81
:10165000723A25732C25640D0A00000090000020CA
:10166000F8B505460C4600F033FE684600F04CF82D
:101670000646009820BB44B9B54206D801F0C2FB2B
:1016800031462846FFF72AFF1CE03CB10E480068AF
:10169000006808B9012000E000200446A91B22468A
:1016A0000A48006800F0FCFB01F0ACFB50B94FF0B9
:1016B000805007490860BFF34F8FBFF36F8F01E081
:1016C00001F0A0FBF8BD00008C000020900000207D
:1016D00004ED00E00A490968096809B9012100E040
:1016E000002121B14FF0FF31064A116006E00449A4
:1016F0000968C968C868034A4168116070470000FA
:10170000500000207C00002070B5044601F0FEF976
:10171000054607480068854204D200F00BF8012016
:10172000206001E00020206001480560284670BD6F
:10173000980000202DE9F8432DE021480068C0689A
:1017400005681F480068C068C468201D00F018FACA
:101750002046616A8847E06901281CD1A0694619C2
:10176000AE4207D966602461211D1548006800F06B
:101770002BFA10E0002003462A460146009020463E
:1017800001F008FC07462FB940F292320DA112A0D9
:10179000FFF756FA00BF0A480068006808B9012040
:1017A00000E000200028C8D00548D0F800800E488E
:1017B0000068034908600C48C0F80080BDE8F88361
:1017C000880000204672656552544F535C74696D01
:1017D0006572732E630000004572726F723A257352
:1017E0002C25640D0A0000008C0000200B480068C6
:1017F000401C08B9012000E0002020B9F42208A113
:1018000011A0FFF71DFA00BF502080F31188BFF32D
:101810004F8FBFF36F8F00BF00BFFEE7B400002003
:101820004672656552544F535C706F727461626C9E
:10183000655C525644535C41524D5F434D335C707E
:101840006F72742E630000004572726F723A2573D6
:101850002C25640D0A00000008B500BF6846FFF79C
:10186000B1FC044620460099FFF7FAFEFFF774FE2C
:10187000F4E770B5044600F0CDF994F9455010E056
:10188000606A08B9012000E0002038B904F12400A2
:1018900001F05EFA18B100F0E9FB00E003E0681E19
:1018A00045B2002DECDC00BFFF2084F8450000F0BD
:1018B000F3F900F0AFF994F9445010E0206908B949
:1018C000012000E0002048B904F1100001F040FAC6
:1018D00008B100F0CBFB681E45B200E001E0002D2E
:1018E000ECDC00BFFF2084F8440000F0D5F970BDA7
:1018F0002DE9F04104464FF0000800F0E9FC3E48B5
:10190000006808B9FFF772FC3C48006820400028D6
:101910005FD1A4B1083404F0070080B104F00700DF
:10192000C0F10800044404F0070008B9012000E0F9
:10193000002020B9BF2232A13AA0FFF781F9002C84
:1019400047D03C480068844243D83B4E3046056847
:1019500001E02E462D686868A04202D2286800285F
:10196000F7D125480068854233D0306800F1080877
:10197000286830606868001B102813D92F1907F0F9
:10198000070008B9012000E0002020B9EC221CA1CA
:1019900024A0FFF755F96868001B78606C60384632
:1019A000FFF720FD234968680968081A2149086083
:1019B0000846006821490968884203D21D4800682A
:1019C0001E4908600D49686809680843686000207E
:1019D000286001F017FA08F0070008B9012000E0BC
:1019E000002028B94FF4967205A10EA0FFF728F940
:1019F0004046BDE8F0810000A4000020B0000020B7
:101A00004672656552544F535C706F727461626CBC
:101A1000655C4D656D4D616E675C686561705F34D6
:101A20002E6300004572726F723A25732C25640D87
:101A30000A000000A80000209C000020AC0000204C
:101A40000648006830B10549096801F14800896C11
:101A5000491C016001480068704700004C000020EC
:101A6000001F4FF080730360001F21F0010303602B
:101A7000001F034B036014380260203870470000D9
:101A8000ED1700087CB50546012400F0C3F80322D9
:101A90000021012000F0E2FC1D49086000231A46E5
:101AA00019461B48006800F04FFE04461948022101
:101AB00000233222CDE9001017A11A4800F0E6FFFA
:101AC0001948032100234FF40072CDE9001017A13B
:101AD0001B4800F0DBFF1B4804210023CA01CDE9AD
:101AE000001019A11D4800F0D1FF1D480521002359
:101AF0004FF40072CDE900101AA11F4800F0C6FF94
:101B00001E48006800F02CFA00F0C6F87CBD00000A
:101B100014000020040000206C6564315F74617360
:101B20006B0000005D0E0008080000204C6F77502D
:101B300072696F726974795F5461736B00000000A1
:101B4000B90400080C0000204D69645072696F727E
:101B50006974795F5461736B00000000AD05000883
:101B600010000020486967685072696F7269747963
:101B70005F5461736B0000009D03000800000020AB
:101B800001460A69D1E901309860D1E90103586042
:101B90005068884201D18868506000200861106850
:101BA000401E10601068704700F1080141604FF05E
:101BB000FF31816000F10801C16001610021016015
:101BC000704700210161704710B502460B685C1C2C
:101BD0000CB9106907E002F1080000E040684468B1
:101BE00024689C42FAD944684C604C68A1608860C3
:101BF00041600A611468641C146010BD42684A6048
:101C000093688B60936859609160086103685B1CFE
:101C10000360704710B500BF502080F31188BFF3F8
:101C20004F8FBFF36F8F00BF0B480068401C0A49FD
:101C300008600846006801280DD108480068C0B255
:101C400008B9012000E0002028B94FF4BD7204A1BA
:101C50000DA0FEF7F5FF10BDB400002004ED00E07C
:101C60004672656552544F535C706F727461626C5A
:101C7000655C525644535C41524D5F434D335C703A
:101C80006F72742E630000004572726F723A257392
:101C90002C25640D0A00000010B50B48006828B917
:101CA00040F2811209A113A0FEF7CAFF064800689E
:101CB000401E054908600846006820B9002080F3EE
:101CC000118800BF00BF10BDB400002046726565DA
:101CD00052544F535C706F727461626C655C525603
:101CE00044535C41524D5F434D335C706F72742EB0
:101CF000630000004572726F723A25732C25640DE3
:101D00000A00000070B506463546002E35D0083D65
:101D10002C461A4960680968084008B1012000E0B3
:101D2000002028B94FF4A07215A11EA0FEF788FF6D
:101D3000206808B9012000E0002028B940F24112D3
:101D40000FA118A0FEF77CFF0C49606809680840E5
:101D500098B1206888B9094960680968884360605B
:101D600000F0B6FA13496068096808441149086030
:101D70002046FFF737FB01F045F870BDB0000020AA
:101D80004672656552544F535C706F727461626C39
:101D9000655C4D656D4D616E675C686561705F3453
:101DA0002E6300004572726F723A25732C25640D04
:101DB0000A000000A8000020064800684FF47A716D
:101DC000B0FBF1F0401E4FF0E021486107200861B0
:101DD000704700003000002070B5FEF7FDF90546A1
:101DE000102D11D305F1E02090F8F0431048007851
:101DF000844201DB012000E0002028B94FF42A7260
:101E00000CA116A0FEF71CFF1848006800F4E06063
:101E100017490968884201D8012000E0002028B94C
:101E20004FF42E7203A10DA0FEF70AFF70BD000053
:101E3000B80000204672656552544F535C706F7253
:101E40007461626C655C525644535C41524D5F4311
:101E50004D335C706F72742E630000004572726FB8
:101E6000723A25732C25640D0A0000000CED00E089
:101E7000BC000020024600200BE0084B53F8303035
:101E800033B9064B43F8301003EBC0035A6002E04D
:101E9000401C0A28F1D300BF704700008C010020CD
:101EA0002DE9F04105460E4617462C46FFF7B2FED7
:101EB00094F94400401C10B9002084F8440094F9BF
:101EC0004500401C10B9002084F84500FFF7E4FEEF
:101ED000A06B28B93A46314604F1240000F0F6F828
:101EE0002046FFF7C6FCBDE8F081000070B504464F
:101EF0000025ACB10F48006808B9012000E00020BF
:101F000028B940F2CF420CA110A0FEF799FE00F0D4
:101F1000DFF900212046FEF7EFFF00F073FF0546D2
:101F20003DB94FF080500D490860BFF34F8FBFF3AC
:101F30006F8F70BD840000204672656552544F5308
:101F40005C7461736B732E63000000004572726FE6
:101F5000723A25732C25640D0A00000004ED00E0A0
:101F600070B50546FFF756FE15B92D48006800E02C
:101F700028460446201DFFF703FE78B9E06A00EB0F
:101F80008000284951F8200040B994F82C10012015
:101F9000884025490968814323480160A06A18B137
:101FA00004F11800FFF7ECFD20480068401C1F49B1
:101FB00008601B480068844209D1211D1C48FFF7B6
:101FC0001DFE1C480068401C1A49086009E01A48B8
:101FD0000068401E184908602046FFF7EAF8FFF73E
:101FE00079FBFFF759FE15480068C0B10C4800683E
:101FF000844214D11248006808B9012000E0002092
:1020000028B940F265420FA113A0FEF719FE4FF068
:10201000805015490860BFF34F8FBFF36F8F70BDBD
:102020004C000020DC01002064000020780000202B
:1020300098040020580000205C0000206800002068
:10204000840000204672656552544F535C7461737E
:102050006B732E63000000004572726F723A257335
:102060002C25640D0A00000004ED00E00120014968
:10207000086070477000002070B504460D462CB90A
:1020800040F6063207A10CA0FEF7DAFD0E48016803
:1020900018312046FFF798FD01212846FEF72CFF56
:1020A00070BD00004672656552544F535C74617395
:1020B0006B732E63000000004572726F723A2573D5
:1020C0002C25640D0A0000004C00002070B5054668
:1020D0000E4614462DB940F6313209A10DA0FEF787
:1020E000AFFD1048016818312846FFF787FD0CB195
:1020F0004FF0FF3621463046FEF7FEFE70BD000071
:102100004672656552544F535C7461736B732E63F2
:10211000000000004572726F723A25732C25640D21
:102120000A0000004C00002070B505462C46002D2A
:102130004BD02649E06A0968C96A884245D2A0693D
:1021400000F0004028B921480068C06AC0F12000B2
:10215000A061E16A01EB81011D4A02EB8101606926
:10216000884201D1012000E0002050B3201DFFF77C
:1021700007FD78B9E06A00EB8000154951F82000AE
:1021800040B994F82C100120884012490968814315
:10219000104801600D480068C06AE06294F82C1095
:1021A000012088400B49096808430A490860E16A30
:1021B00001EB8101064A02EB8100211DFFF71EFDA4
:1021C00003E002480068C06AE06270BD4C00002075
:1021D000DC0100206400002010B504462CB940F654
:1021E000C13205A109A0FEF72BFD0C480068206054
:1021F0000B480068606010BD4672656552544F53CD
:102200005C7461736B732E63000000004572726F23
:10221000723A25732C25640D0A000000740000201A
:10222000600000201CB51A4800210B468022CDE931
:10223000001018A1194800F029FC0446012C02D115
:1022400000F070FE0446012C15D100BF502080F331
:102250001188BFF34F8FBFF36F8F00BF4FF0FF3078
:102260000F49086001200F49086000200E490860EE
:1022700000F08AF80BE0601C08B1012000E00020AB
:1022800028B940F2847209A10DA0FEF7D9FC1CBD4B
:102290008000002049444C450000000069120008FD
:1022A0007C00002068000020600000204672656508
:1022B00052544F535C7461736B732E6300000000C3
:1022C0004572726F723A25732C25640D0A00000066
:1022D00002480068401C01490860704784000020E3
:1022E00010B51B48006818B101201A4908602DE09C
:1022F00000201849086018480068B0FA80F0C0F162
:102300001F0404EB8400154951F8200008B1012096
:1023100000E0002028B940F6F62211A115A0FEF732
:102320008FFC04EB84010D4A02EB8100416849688F
:10233000416000F1080142688A4202D1416849685F
:1023400041604168C9680F4A116000BF10BD0000BC
:10235000840000207000002064000020DC010020C8
:102360004672656552544F535C7461736B732E6390
:10237000000000004572726F723A25732C25640DBF
:102380000A0000004C0000201CB5224801460978D4
:102390000191FF21024611700146097800919DF8D4
:1023A000001001F050011C4A117007211B4A1160F6
:1023B00009E01A490968491E184A11609DF8001081
:1023C0004906090E00919DF8001001F08001802956
:1023D000EFD0124909680902104A116011460988B4
:1023E00001F4E06111600B4A019911700C4800681A
:1023F00040F470000A4908600846006840F07040E8
:102400000860FFF7D9FC002006490860FDF7AEFE22
:1024100000201CBD00E400E0B8000020BC0000204B
:1024200020ED00E0B400002010B500BF502080F384
:102430001188BFF34F8FBFF36F8F00BF00F06CFBAD
:1024400018B14FF080500449086000BF002080F3AD
:10245000118800BF10BD000004ED00E02DE9F84335
:1024600005460E4690460DB1012000E0002028B937
:102470004FF4C4720DA112A0FEF7E2FB0EB90027C3
:1024800001E005FB06F707F14800FFF731FA0446C3
:1024900044B104F1480943464A463146284600946F
:1024A000FEF7F6FE2046BDE8F8830000467265653B
:1024B00052544F535C71756575652E6300000000C2
:1024C0004572726F723A25732C25640D0A00000064
:1024D0002DE9FF4782B005460E461F464FF0000A21
:1024E0002C462CB940F2DC4261A166A0FEF7A8FBA5
:1024F0000EB9206C08B9012000E0002028B940F294
:10250000DD425BA15FA0FEF79BFB00F0EFFA08B98C
:10251000049808B9012000E0002028B94FF49C621B
:1025200053A158A0FEF78CFB00BFFFF773FBD4F854
:102530003890B9F1000F3DD0D4F80C8031462046D8
:10254000FEF7E4FDDFB9A9F10100A063206810B92E
:10255000FFF776FA6060206908B9012000E00020EA
:1025600010BB04F1100000F0F3FBE8B14FF0805015
:1025700048490860BFF34F8FBFF36F8F14E0C4F872
:102580000C80606A08B9012000E0002060B904F105
:10259000240000F0DDFB38B14FF080503D49086069
:1025A000BFF34F8FBFF36F8FFFF776FB012006B0AD
:1025B000BDE8F087049818B9FFF76EFB0020F6E736
:1025C000BAF1000F04D16846FFF706FE4FF0010A8A
:1025D000FFF762FBFFF77CFEFFF71CFB94F944005A
:1025E000401C10B9002084F8440094F94500401CB8
:1025F00010B9002084F84500FFF74EFB04A9684697
:1026000000F0F4F940BB2046FEF74CFFF0B1206823
:1026100030B9FFF7FFFA6068FFF786FDFFF73CFB74
:1026200004F124000499FFF727FD2046FFF721F964
:1026300000F0E8FB00287FF478AF4FF08050154998
:102640000860BFF34F8FBFF36F8F6EE72046FFF731
:1026500010F900F0D7FB68E72046FFF70AF900F011
:10266000D1FB2046FEF71EFF0028EED000209EE79B
:102670004672656552544F535C71756575652E637E
:10268000000000004572726F723A25732C25640DAC
:102690000A00000004ED00E070B505460E462C4629
:1026A0002CB940F21B121EA122A0FEF7C9FAFFF7B7
:1026B000B1FAD4E90F12206801FB0200606000202B
:1026C000A0632068A060E06B401E226C216800FBC4
:1026D0000210E060FF2084F8440084F845009EB9B1
:1026E000206908B9012000E00020A8B904F1100019
:1026F00000F02EFB80B14FF0805012490860BFF30C
:102700004F8FBFF36F8F07E004F11000FFF74CFA13
:1027100004F12400FFF748FAFFF7BEFA012070BD6C
:102720004672656552544F535C71756575652E63CD
:10273000000000004572726F723A25732C25640DFB
:102740000A00000004ED00E02DE9FF4383B00646D7
:1027500088461D464FF0000934462CB940F2D92274
:1027600058A15DA0FEF76CFAB8F1000F01D1206C02
:1027700008B9012000E0002028B940F2DA2251A176
:1027800055A0FEF75DFA022D02D1E06B012801D1C0
:10279000012000E0002028B940F2DB2249A14EA030
:1027A000FEF74EFA00F0A2F908B9059808B9012021
:1027B00000E0002028B940F2DE2242A146A0FEF748
:1027C0003FFA00BFFFF726FAA06BE16B884201D306
:1027D000022D28D12A4641462046FEF7ACFC07468A
:1027E000606A08B9012000E0002068B904F1240003
:1027F00000F0AEFA88B14FF080503B490860BFF35B
:102800004F8FBFF36F8F08E03FB14FF080503649D4
:102810000860BFF34F8FBFF36F8FFFF73DFA0120C2
:1028200007B0BDE8F083059818B9FFF735FA002026
:10283000F6E7B9F1000F04D101A8FFF7CDFC4FF086
:102840000109FFF729FAFFF743FDFFF7E3F994F9D0
:102850004400401C10B9002084F8440094F945005D
:10286000401C10B9002084F84500FFF715FA05A9AF
:1028700001A800F0BBF8F0B92046FEF720FEA0B199
:1028800004F110000599FFF7F7FB2046FEF7F1FF72
:1028900000F0B8FA002895D14FF080501249086036
:1028A000BFF34F8FBFF36F8F8CE72046FEF7E1FF3A
:1028B00000F0A8FA86E72046FEF7DBFF00F0A2FA58
:1028C0000020ADE74672656552544F535C717565E3
:1028D00075652E63000000004572726F723A2573B1
:1028E0002C25640D0A00000004ED00E02DE9F05FE6
:1028F00007468A4690461E463C462CB940F29F3217
:1029000031A136A0FEF79CF9BAF1000F01D1206C7D
:1029100008B9012000E0002028B94FF468722AA10C
:102920002EA0FEF78DF9022E02D1E06B012801D115
:10293000012000E0002028B940F2A13222A127A006
:10294000FEF77EF9FFF748FA00BF5021EFF3118040
:1029500081F31188BFF34F8FBFF36F8F00BF054620
:10296000A06BE16B884201D3022E23D194F945B0CC
:10297000324651462046FEF7DEFB0BF1010088B9D6
:10298000606A08B9012000E0002080B904F1240049
:1029900000F0DEF958B1B8F1000F08D00120C8F8F6
:1029A000000004E00BF1010040B284F845004FF054
:1029B000010901E04FF0000900BF85F3118800BF55
:1029C0004846BDE8F09F00004672656552544F537B
:1029D0005C71756575652E63000000004572726F4D
:1029E000723A25732C25640D0A0000002DE9F04190
:1029F00004460D462CB940F6CB3219A11DA0FEF7B6
:102A00001FF92DB940F6CC3215A11AA0FEF718F91E
:102A1000FFF700F91B4807682868401C08B9002622
:102A200019E0194920680968884204D06068B842F2
:102A300001D801260FE06068381A2968884209D257
:102A400028686168791A401A28602046FFF7C4FB9D
:102A5000002600E00126FFF71FF93046BDE8F081AF
:102A60004672656552544F535C7461736B732E6389
:102A7000000000004572726F723A25732C25640DB8
:102A80000A00000060000020740000202DE9FF4FC4
:102A900085B0804689461746DDE912ABB800FEF7DF
:102AA00027FF064656B15420FEF722FF04460CB11C
:102AB000266304E03046FFF725F900E000247CB1EE
:102AC0000020CDE900ABCDE902403A4649464046F8
:102AD000089BFEF7F1FB2046FEF75AFA012501E0BC
:102AE0004FF0FF35284609B0BDE8F08F0549096869
:102AF00009B9012005E00449096809B9022000E08C
:102B00000020704768000020840000200149086808
:102B100070470000600000202DE9F0414FF00008F0
:102B200041480068002872D140480068451C3F4871
:102B30000560EDB93E480068006808B9012000E072
:102B4000002028B940F6D9123AA13FA0FEF778F844
:102B50003748076840480068354908603E480760C4
:102B60003E480068401C3D490860FEF7B3FD00BFC9
:102B70003B48006885423CD300BF2D480068006890
:102B800008B9012000E0002020B14FF0FF303449A7
:102B900008602DE026480068C068C4686668B542D1
:102BA00002D22F48066023E0201DFEF7E9FFA06A4D
:102BB00018B104F11800FEF7E3FF94F82C1001207F
:102BC000884028490968084326490860E16A01EB02
:102BD0008101254A02EB8100211DFFF70FF82349EF
:102BE000E06A0968C96A8842C7D34FF00108C4E7A0
:102BF00000BF1E480068C06A00EB80001A4951F807
:102C00002000012801D94FF0010805E0FFE718482E
:102C10000068401C164908601648006808B14FF06B
:102C200001084046BDE8F0818400002060000020DB
:102C3000500000204672656552544F535C746173B6
:102C40006B732E63000000004572726F723A257339
:102C50002C25640D0A0000005400002074000020A0
:102C60007C00002064000020DC0100204C000020DB
:102C70006C0000207000002070B505462C46002630
:102C8000002D4BD026480068844201D1012000E08D
:102C9000002028B940F6C76222A127A0FDF7D0FF87
:102CA000A06C28B940F6C9621EA123A0FDF7C8FF99
:102CB000A06C401EA064616CE06A88422ED0A06CBB
:102CC00060BB201DFEF75CFF78B9E06A00EB800076
:102CD0001D4951F8200040B994F82C10012088407B
:102CE0001A490968814319480160606CE062E06A32
:102CF000C0F12000A06194F82C10012088401349F5
:102D00000968084311490860E16A01EB81010E4A34
:102D100002EB8100211DFEF771FF0126304670BDD8
:102D20004C0000204672656552544F535C746173C9
:102D30006B732E63000000004572726F723A257348
:102D40002C25640D0A000000DC0100206400002036
:102D500070B50646F068C4682CB940F661321AA115
:102D60001EA0FDF76DFF04F11800FEF709FF1F48D4
:102D70000068A8B9201DFEF703FF94F82C1001206D
:102D800088401B490968084319490860E16A01EB5A
:102D90008101184A02EB8100211DFEF72FFF04E09C
:102DA00004F118011448FEF729FF1449E06A096884
:102DB000C96A884204D9012501201149086000E050
:102DC0000025284670BD00004672656552544F5379
:102DD0005C7461736B732E63000000004572726F48
:102DE000723A25732C25640D0A000000840000202F
:102DF00064000020DC010020840400204C0000203E
:102E00007000002070B5002400263448006828B9FE
:102E10004FF4FD6232A137A0FDF712FFFEF7FAFE74
:102E20002E480068401E2D490860084600680028AA
:102E30004FD13448006800284BD024E03248C068A5
:102E4000C46804F11800FEF79BFE201DFEF798FEF3
:102E500094F82C10012088402C49096808432B491C
:102E60000860E16A01EB8101294A02EB8100211D22
:102E7000FEF7C4FE2749E06A0968C96A884202D39E
:102E80000120254908602048006808B9012000E0B9
:102E900000200028D2D00CB1FEF71CFC1F480568AA
:102EA00065B100BFFFF738FE10B101201A49086074
:102EB0006D1E002DF6D100201849086016480068E4
:102EC00038B10126300716490860BFF34F8FBFF3B2
:102ED0006F8FFEF7E1FE304670BD000084000020D9
:102EE0004672656552544F535C7461736B732E6305
:102EF000000000004572726F723A25732C25640D34
:102F00000A0000005C00002084040020640000200F
:102F1000DC0100204C000020700000206C0000202C
:102F200004ED00E01CB50024FEF78CF80B480068A7
:102F300058B10B481F2100234FF48072CDE90010D7
:102F400008A10A48FFF7A2FD04462CB940F233124B
:102F500007A10CA0FDF774FE20461CBD90000020C8
:102F600094000020546D72205376630059180008B5
:102F70004672656552544F535C74696D6572732E69
:102F8000630000004572726F723A25732C25640D40
:102F90000A0000002DE9FE4304460D4616461F4672
:102FA000DDF828804FF000092CB94FF4D37216A138
:102FB0001AA0FDF745FE1D48006810B30095019664
:102FC0000294062D15DAFFF791FD022808D100239F
:102FD0004246694615480068FFF7B6FB814610E097
:102FE00000231A46694611480068FFF7ADFB814689
:102FF00007E000233A4669460C480068FFF776FC74
:1030000081464846BDE8FE834672656552544F537B
:103010005C74696D6572732E630000004572726F97
:10302000723A25732C25640D0A00000090000020E0
:103030005030000800000020C4000000600C0008B0
:1030400014310008C400002024980000700C00080F
:103050000000000000000000000000000000000070
:103060000000000000000000000000000000000060
:10307000010203040102030406070809020406080A
:1030800000A24A0400000000000000000102030446
:103090000607080900000000000000000000000012
:1030A0000000000000000000000000000000000020
:1030B0000000000000000000000000000000000010
:1030C0000000000000000000000000000000000000
:1030D00000000000000000000000000000000000F0
:1030E00000000000000000000000000000000000E0
:1030F00000000000000000000000000000000000D0
:1031000000000000AAAAAAAA000000000000000017
:0431100000000000BB
:0400000508000131BD
:00000001FF
