:020000040800F2
:1000000048980020E1010008C903000875030008B2
:10001000C503000855020008270A00080000000078
:10002000000000000000000000000000490100087E
:1000300059020008000000008D0100085506000864
:10004000FB010008FB010008FB010008FB010008A0
:10005000FB010008FB010008FB010008FB01000890
:10006000FB010008FB010008FB010008FB01000880
:10007000FB010008FB010008FB010008FB01000870
:10008000FB010008FB010008FB010008FB01000860
:10009000FB010008FB010008FB010008FB01000850
:1000A000FB010008FB010008FB010008FB01000840
:1000B000FB010008FB010008FB010008FB01000830
:1000C000FB010008FB010008FB010008FB01000820
:1000D000FB01000821070008FB010008FB010008E4
:1000E000FB010008FB010008FB010008FB01000800
:1000F000FB010008FB010008FB010008FB010008F0
:10010000FB010008FB010008FB010008FB010008DF
:10011000FB010008FB010008FB010008FB010008CF
:10012000FB010008FB010008FB010008FB010008BF
:10013000DFF810D000F07CF800480047710C000890
:10014000AFF3008048980020224B19680868B0E897
:10015000F00F80F30988BFF36F8F4FF0000080F33A
:1001600011884EF00D0E7047000000000648006830
:10017000006880F3088862B661B6BFF34F8FBFF3A3
:100180006F8F00DF00BF00BF08ED00E0EFF30980D4
:10019000BFF36F8F0F4B1A6820E9F00F106008B59E
:1001A0004FF0500080F31188BFF34F8FBFF36F8F74
:1001B00001F0F2FA4FF0000080F31188BDE808402A
:1001C00019680868B0E8F00F80F30988BFF36F8FF3
:1001D000704700BF38000020EFF305807047000033
:1001E0000648804706480047FEE7FEE7FEE7FEE7D1
:1001F000FEE7FEE7FEE7FEE7FEE7FEE7C1060008D2
:100200003101000830B50B460146002020220124B0
:1002100009E021FA02F59D4205D303FA02F5491BD4
:1002200004FA02F52844151EA2F10102F1DC30BDEA
:10023000064C074D06E0E06840F0010394E8070033
:1002400098471034AC42F6D3FFF776FF141C000831
:10025000341C000800BFFEE770472DE9F04102465C
:1002600000250026002000230024002791F803C069
:100270000CF00F0591F803C00CF0100CBCF1000F4E
:1002800003D091F802C04CEA050591F800C0BCF11A
:10029000000F31D0146800202BE04FF0010C0CFA55
:1002A00000F3B1F800C00CEA03069E4220D183009F
:1002B0004FF00F0C0CFA03F7BC4305FA03FC4CEAB1
:1002C000040491F803C0BCF1280F06D14FF0010CD3
:1002D0000CFA00FCC2F814C00AE091F803C0BCF1AB
:1002E000480F05D14FF0010C0CFA00FCC2F810C009
:1002F000401C0828D1D31460B1F800C0BCF1FF0F36
:1003000034DD546800202EE000F1080C4FF00108A5
:1003100008FA0CF3B1F800C00CEA03069E4221D1A2
:1003200083004FF00F0C0CFA03F7BC4305FA03FCF3
:100330004CEA040491F803C0BCF1280F05D100F188
:10034000080C08FA0CF8C2F8148091F803C0BCF14C
:10035000480F07D100F1080C4FF0010808FA0CF81B
:10036000C2F81080401C0828CED35460BDE8F0814C
:100370000161704700BFFEE708B50121482000F089
:1003800067F82020ADF8000010208DF8030003204E
:100390008DF8020069460948FFF75FFF20210748F2
:1003A000FFF7E6FF2020ADF8000069460448FFF79C
:1003B00054FF20210248FFF7DBFF08BD000C01407D
:1003C0000018014000BFFEE77047000070B5002133
:1003D00000230F22C47804B3154C246804F4E064AD
:1003E000C4F5E064210AC1F10403CA40447804FA68
:1003F00003F184781440214309010E4C0678A1557D
:10040000047804F01F050124AC4005786D11AD009F
:1004100005F1E025C5F8004109E0047804F01F0566
:100420000124AC40044D0678761145F8264070BD95
:100430000CED00E000E400E080E100E0024901434F
:10044000024A1160704700000000FA050CED00E060
:1004500029B1064A92690243044B9A6104E0034AB7
:1004600092698243014B9A6170470000001002407C
:1004700030B500210022002400232D4D6D6805F0C9
:100480000C0121B1042905D0082923D105E0294D0B
:10049000056022E0274D05601FE0254D6D6805F4DD
:1004A0007012234D6D6805F48034022505EB9242ED
:1004B0001CB9214D554305600BE01D4D6D6805F4D9
:1004C00000351DB11C4D5543056002E0194D5543E3
:1004D000056002E0174D056000BF00BF144D6D6858
:1004E00005F0F0010909154D6B5C0568DD404560BC
:1004F0000F4D6D6805F4E061090A104D6B5C4568AD
:10050000DD4085600A4D6D6805F46051C90A0B4DE8
:100510006B5C4568DD40C560054D6D6805F4404184
:10052000890B074D6B5CC568B5FBF3F5056130BD04
:100530000010024000127A0000093D00080000206F
:100540001800002010B500F001F810BD0CB5002017
:10055000019000903348006840F4803031490860D1
:1005600000BF3048006800F4003000900198401C43
:100570000190009818B90198B0F5A06FF1D1294801
:10058000006800F4003010B10120009001E000206C
:1005900000900098012843D12348006840F01000E3
:1005A000214908600846006820F0030008600846FA
:1005B000006840F0020008601A4840681949486025
:1005C0000846406848600846406840F480604860DB
:1005D0000846406820F47C1048600846406840F4B3
:1005E000E81048600846006840F08070086000BF6E
:1005F0000C48006800F000700028F9D009484068F5
:1006000020F00300074948600846406840F00200B7
:10061000486000BF0348406800F00C000828F9D18A
:100620000CBD00000010024000200240042808D148
:100630004FF0E021096941F004014FF0E02211611F
:1006400007E04FF0E021096921F004014FF0E022BA
:100650001161704710B501F08DF9012801D001F04A
:100660003FF910BD70B505460420FFF7DFFF1048C5
:1006700000681049B0FBF1F00F4908700C480068A1
:100680000C49B0FBF1F44FF47A70444301200B495C
:1006900008804FF0E020006940F002004FF0E021B8
:1006A000086108464461006940F00100086170BDBE
:1006B0001C00002040420F003000002032000020CB
:1006C00010B51348006840F0010011490860084661
:1006D0004068104908400E494860084600680E49C5
:1006E00008400B4908600846006820F48020086034
:1006F0000846406820F4FE0048604FF41F00886000
:10070000FFF720FF4FF000600449086010BD0000B3
:10071000001002400000FFF8FFFFF6FE08ED00E0C9
:1007200010B540F225511D4800F0B8F810B31B4831
:1007300000F070F9C4B21A48008800F40040C8B94B
:100740001748008800F4804060B10A2C03D00020D4
:100750001349088020E01248008840F40040104906
:10076000088019E00D2C06D10D48008840F4804027
:100770000B49088010E00A480088C0F30D000949C1
:100780000C5407480088401C05490880084600882A
:10079000C72801DD0020088010BD0000003801409E
:1007A000340000209C00002010B586B004460121D2
:1007B0000420FFF74DFE01218803FFF749FE4FF4A7
:1007C0000070ADF8140003208DF8160018208DF885
:1007D000170005A91E48FFF740FD4FF48060ADF8F3
:1007E000140004208DF8170005A91948FFF735FDFE
:1007F00001940020ADF80800ADF80A00ADF80C0037
:10080000ADF810000C20ADF80E0001A9114800F061
:1008100095F801210F4800F028F840210D4800F01C
:100820001BF8012240F225510A4800F061F825200A
:100830008DF8000003208DF801008DF802000120E2
:100840008DF803006846FFF7C1FD06B010BD00003B
:10085000000801400038014001F40072B2F5007F49
:1008600000D100BFCA430280704721B1828942F49F
:100870000052828104E082894DF6FF731A40828122
:10088000704702460020B1F5007F00D100BF1388F9
:100890000B400BB1012000E00020704770B502460C
:1008A000002400230025002040F66A16B14200D142
:1008B00000BFC1F3421501F01F03012606FA03F33E
:1008C000012D02D19689334006E0022D02D1168A0D
:1008D000334001E0968A33400C12012606FA04F4F4
:1008E0001688344013B10CB1012000E0002070BD27
:1008F000F0B50346002400260025002040F66A17C4
:10090000B94200D100BF1846C1F3421401F01F06DE
:10091000012707FA06F5012C01D10C3004E0022C66
:1009200001D1103000E014301AB107682F4307607E
:1009300002E00768AF430760F0BD00002DE9F04713
:1009400086B005460E460024A24600BFA1460027F9
:10095000B08900B100BF2F462C8A4CF6FF700440CE
:10096000F08804432C82AC894EF6F3100440B08822
:1009700031890843718908430443AC81AC8A4FF63E
:10098000FF400440B0890443AC8201A8FFF770FD2A
:100990001F48874202D1DDF810A001E0DDF80CA06D
:1009A000A88900F4004040B10AEBCA0000EB0A102D
:1009B00031684900B0FBF1F807E00AEBCA0000EB30
:1009C0000A1031688900B0FBF1F86420B8FBF0F040
:1009D00004012009642101FB1089A88900F400406A
:1009E00040B1322000EBC900B0FBF1F000F007008D
:1009F000044308E0322000EB09106421B0FBF1F061
:100A000000F00F0004432C8106B0BDE8F087000021
:100A10000038014001468888C0F308007047C1F3E0
:100A200008028280704700BFFEE700000FB4054B4C
:100A300010B503A9044A029800F018F810BC5DF83C
:100A400014FB0000250C00089800002002E008C8F4
:100A5000121F08C1002AFAD170477047002001E038
:100A600001C1121F002AFBD1704700002DE9FF4F82
:100A70008BB09A460F460546002606E025280BD087
:100A800052460D9990476D1C761C28780028F5D1A8
:100A90000FB03046BDE8F08F0024A0460122604927
:100AA00000E0044315F8013F203B02FA03F008423E
:100AB000F7D128782E2817D115F8010F44F0040437
:100AC0002A280ED06FF02F022878A0F130010929D2
:100AD0000AD808EB880102EB410100EB01086D1C0C
:100AE000F2E757F8048B6D1C287869283ED006DCA5
:100AF0000028CDD063280BD0642804D136E07328B9
:100B000010D075284BD052460D999047761C85E041
:100B100017F8040B8DF8000000208DF80100E9465D
:100B2000012003E057F8049B4FF0FF3061074FF0BE
:100B3000000401D40AE0641C44450DDA8442FADB67
:100B400019F804100029F6D106E0641C8442FCDB8D
:100B500019F804100029F8D1264404E019F8010B13
:100B600052460D999047641EF8D257E001CF4FF0DE
:100B70000A0B002802DA40422D2102E0210504D5AB
:100B80002B218DF82410012103E0E10705D020215D
:100B9000F7E70DF1200908910CE00021F9E701CFFA
:100BA0004FF00A0BF9E75946FFF72CFB01F1300231
:100BB00009F8012D0028F6D1ADEB090000F1200B5A
:100BC000600701D44FF00108D84502DDA8EB0B0007
:100BD00000E000208046002406E009A85246005D9F
:100BE0000D999047641C761C08988442F5DB04E05C
:100BF000302052460D999047761CB8F10001A8F1BB
:100C00000108F5DC05E019F8010B52460D999047F3
:100C1000761CBBF10001ABF1010BF4DC6D1C34E779
:100C20000928010070B504460D46E1B20548FFF7FA
:100C3000F6FE00BF80210348FFF723FE0028F9D00D
:100C4000204670BD003801400DE0002006490860D4
:100C5000C82000F087FC01200449C1F894014FF43A
:100C6000487000F07FFCF0E794812142008021422F
:100C70001CB54820FFF7F6FC4FF44070FFF7DEFB91
:100C8000FFF77AFB4FF4E130FFF78EFD06480121B4
:100C900000238022CDE9001004A1074800F03AFEAD
:100CA00000F020FD00201CBD000000207374617264
:100CB000745F7461736B0000C91200082DE9F04184
:100CC00005460E461C4807681C480068001D00F0D9
:100CD0001DFB50B91948006890F82C10012088407D
:100CE00017490968814316480160681C38B936B154
:100CF00012480168091D134800F046FB1AE07C19F0
:100D00000E4800684460BC4207D20C480168091DC7
:100D10000D48006800F01EFB0CE008480168091D42
:100D20000A48006800F016FB09480068844201D2B6
:100D300007480460BDE8F0814C0000203800002026
:100D40005000002034040020400000203C0000201F
:100D50006800002010B5044600F022FB234800681C
:100D6000401C224908602248006840B920480460BD
:100D70000846006801280DD100F034F90AE01D484A
:100D8000006838B91A480068C06AE16A884201D828
:100D90001748046018480068401C1749086094F818
:100DA0002C10012088401549096808431349086040
:100DB000E16A01EB8101124A02EB8100211D00F082
:100DC000E3FA00F02FFB0B48006868B108480068A0
:100DD000C06AE16A884207D24FF080500949086032
:100DE000BFF34F8FBFF36F8F10BD0000480000208E
:100DF0003800002054000020640000205000002033
:100E00006401002004ED00E070B523E000F0BCFCBC
:100E10001348006808B9012000E00020054600F0F2
:100E200069FEBDB900F0BCFA0D48C068C468201D59
:100E300000F06CFA0B480068401E0A4908600A4836
:100E40000068401E0849086000F0ECFA204600F0F7
:100E50000DF800BF044800680028D7D170BD00001D
:100E600020040020480000204400002010B5044663
:100E7000206B00F00DFB204600F00AFB10BD0000C7
:100E800030B54FF41043174800F007042CB1C01DD3
:100E900020F00700134C041B1B1B0246124C22605F
:100EA0000024114D6C60D018083820F007000F4C5A
:100EB000206000240D4D2D686C600C4D2D682C6059
:100EC0001146441A4C60094C24680C60084D4C686B
:100ED0002C60084D4C682C604FF00044064D2C608F
:100EE00030BD000048040020740000207C00002079
:100EF00084000020800000208800002000BFFFF751
:100F000083FF064800680128F9D94FF08050044952
:100F10000860BFF34F8FBFF36F8FF0E764010020CD
:100F200004ED00E02DE9FF5F81460E469246DDE9C3
:100F30000E7B109CAAF10100216B01EB800828F0C8
:100F4000070808F0070008B9012000E0002028B9D0
:100F500040F22B321AA11FA0FFF768FD002507E021
:100F6000715D04F134004155705D00B902E06D1C03
:100F7000102DF5D300BF002143200155202F00D3B1
:100F80001F27E762201D00F0E2F904F1180000F0CD
:100F9000DEF92461C7F12000A06164620020606472
:100FA00084F8480049464046039A00F07BF92060E7
:100FB000BBF1000F01D0CBF80040BDE8FF9F00005F
:100FC0004672656552544F535C7461736B732E6344
:100FD000000000004572726F723A25732C25640D73
:100FE0000A00000010B5002407E004EB84010F4A5A
:100FF00002EB810000F09EF9641C202CF5D30C4814
:1010000000F098F90B4800F095F90B4800F092F9C0
:101010000A4800F08FF90A4800F08CF904480949A1
:10102000086004480849086010BD00006401002001
:10103000E4030020F80300200C040020200400201A
:10104000340400203C0000204000002010B5014680
:10105000164800E0006803688B42FBD302464368F1
:1010600013448B4204D143684C68234443600146D7
:101070000A464B6813440468A34211D10C4C036820
:101080002468A34208D04B680468646823444B601A
:1010900003681B680B6005E0054B1B680B6001E0F3
:1010A00003680B60884200D0016010BD740000200E
:1010B0007C0000200A490968096809B9012100E09B
:1010C000002121B14FF0FF31064A116006E00449CA
:1010D0000968C968C868034A416811607047000020
:1010E0003C000020680000200B480068401C08B944
:1010F000012000E0002020B9F42208A111A0FFF790
:1011000095FC00BF502080F31188BFF34F8FBFF3D1
:101110006F8F00BF00BFFEE78C0000204672656540
:1011200052544F535C706F727461626C655C5256BE
:1011300044535C41524D5F434D335C706F72742E6B
:10114000630000004572726F723A25732C25640D9E
:101150000A0000002DE9F04104464FF0000800F0BD
:1011600013FB3E48006808B9FFF78AFE3C48006858
:10117000204000285FD1A4B1083404F0070080B1FA
:1011800004F00700C0F10800044404F0070008B9A7
:10119000012000E0002020B9BF2232A13AA0FFF7D1
:1011A00045FC002C47D03C480068844243D83B4E65
:1011B0003046056801E02E462D686868A04202D2DC
:1011C00028680028F7D125480068854233D0306868
:1011D00000F10808286830606868001B102813D9DF
:1011E0002F1907F0070008B9012000E0002020B9FE
:1011F000EC221CA124A0FFF719FC6868001B786092
:101200006C603846FFF722FF234968680968081AAE
:10121000214908600846006821490968884203D2CC
:101220001D4800681E4908600D4968680968084340
:1012300068600020286000F05DFC08F0070008B935
:10124000012000E0002028B94FF4967205A10EA0FD
:10125000FFF7ECFB4046BDE8F08100007C00002079
:10126000880000204672656552544F535C706F725F
:101270007461626C655C4D656D4D616E675C68653F
:1012800061705F342E6300004572726F723A25738D
:101290002C25640D0A00000080000020740000204E
:1012A00084000020001F4FF080730360001F21F0B6
:1012B00001030360001F034B0360143802602038F1
:1012C00070470000E91000081CB5044600F068F8FB
:1012D0000848022100233222CDE9001006A1094866
:1012E00000F018FB0848006800F076F900F09AF862
:1012F0001CBD0000040000206C6564315F746173E4
:101300006B000000490C00080000002001460A693B
:10131000D1E901309860D1E90103586050688842F2
:1013200001D188685060002008611068401E10607C
:101330001068704700F1080141604FF0FF31816093
:1013400000F10801C16001610021016070470021C6
:101350000161704710B502460B685C1C0CB910693E
:1013600007E002F1080000E04068446824689C42FD
:10137000FAD944684C604C68A160886041600A6199
:101380001468641C146010BD42684A6093688B60E6
:10139000936859609160086103685B1C0360704743
:1013A00010B500BF502080F31188BFF34F8FBFF3FB
:1013B0006F8F00BF0B480068401C0A490860084650
:1013C000006801280DD108480068C0B208B90120A2
:1013D00000E0002028B94FF4BD7204A10DA0FFF772
:1013E00025FB10BD8C00002004ED00E04672656511
:1013F00052544F535C706F727461626C655C5256EC
:1014000044535C41524D5F434D335C706F72742E98
:10141000630000004572726F723A25732C25640DCB
:101420000A00000010B50B48006828B940F281128C
:1014300009A113A0FFF7FAFA06480068401E054903
:1014400008600846006820B9002080F3118800BFBA
:1014500000BF10BD8C0000204672656552544F538A
:101460005C706F727461626C655C525644535C418F
:10147000524D5F434D335C706F72742E63000000F9
:101480004572726F723A25732C25640D0A000000B4
:1014900070B506463546002E35D0083D2C461A4913
:1014A00060680968084008B1012000E0002028B900
:1014B0004FF4A07215A11EA0FFF7B8FA206808B972
:1014C000012000E0002028B940F241120FA118A02D
:1014D000FFF7ACFA0C4960680968084098B12068C9
:1014E00088B90949606809688843606000F04CF970
:1014F0001349606809680844114908602046FFF7ED
:10150000A5FD00F0F7FA70BD880000204672656501
:1015100052544F535C706F727461626C655C4D65C0
:101520006D4D616E675C686561705F342E630000AD
:101530004572726F723A25732C25640D0A00000003
:1015400080000020064800684FF47A71B0FBF1F08B
:10155000401E4FF0E02148610720086170470000FD
:101560001C00002070B504460025ACB10F4800688F
:1015700008B9012000E0002028B940F2CF420CA1B8
:1015800010A0FFF753FA00F0FFF800212046FFF704
:1015900095FB00F0AFFA05463DB94FF080500D497C
:1015A0000860BFF34F8FBFF36F8F70BD70000020D6
:1015B0004672656552544F535C7461736B732E634E
:1015C000000000004572726F723A25732C25640D7D
:1015D0000A00000004ED00E070B50546FFF7E0FEEC
:1015E00015B92D48006800E028460446201DFFF785
:1015F0008DFE78B9E06A00EB8000284951F82000A0
:1016000040B994F82C10012088402549096881438D
:1016100023480160A06A18B104F11800FFF776FEB4
:1016200020480068401C1F4908601B48006884422D
:1016300009D1211D1C48FFF7A7FE1C480068401C6B
:101640001A49086009E01A480068401E18490860F5
:101650002046FFF70BFCFFF72DFDFFF7E3FE1548D3
:101660000068C0B10C480068844214D11248006878
:1016700008B9012000E0002028B940F265420FA11E
:1016800013A0FFF7D3F94FF0805015490860BFF35E
:101690004F8FBFF36F8F70BD3800002064010020B2
:1016A000500000206400002020040020440000209E
:1016B000480000205400002070000020467265653C
:1016C00052544F535C7461736B732E6300000000BF
:1016D0004572726F723A25732C25640D0A00000062
:1016E00004ED00E01CB5184800210B468022CDE92E
:1016F000001016A1174800F00DF90446012C15D171
:1017000000BF502080F31188BFF34F8FBFF36F8F5E
:1017100000BF4FF0FF301049086001200F490860FA
:1017200000200F49086000F08BF80BE0601C08B146
:10173000012000E0002028B940F2847209A10EA027
:10174000FFF774F91CBD00006C00002049444C45B3
:1017500000000000FD0E000868000020540000207A
:101760004C0000204672656552544F535C7461739F
:101770006B732E63000000004572726F723A25731E
:101780002C25640D0A00000002480068401C014935
:10179000086070477000002010B51B48006818B141
:1017A00001201A4908602DE00020184908601848F7
:1017B0000068B0FA80F0C0F11F0404EB8400154902
:1017C00051F8200008B1012000E0002028B940F6BF
:1017D000F62211A115A0FFF729F904EB84010D4AA7
:1017E00002EB810041684968416000F108014268EC
:1017F0008A4202D14168496841604168C9680F4A1C
:10180000116000BF10BD0000700000205C000020CF
:1018100050000020640100204672656552544F5309
:101820005C7461736B732E63000000004572726F0D
:10183000723A25732C25640D0A0000003800002040
:101840001CB52248014609780191FF21024611701A
:101850000146097800919DF8001001F050011C4AE2
:10186000117007211B4A116009E01A490968491ED5
:10187000184A11609DF800104906090E00919DF864
:10188000001001F080018029EFD012490968090297
:10189000104A11601146098801F4E06111600B4A99
:1018A000019911700C48006840F470000A49086002
:1018B0000846006840F070400860FFF743FE0020D3
:1018C00006490860FEF752FC00201CBD00E400E061
:1018D000900000209400002020ED00E08C0000200B
:1018E00010B500BF502080F31188BFF34F8FBFF3B6
:1018F0006F8F00BF00F04EF818B14FF080500449D0
:10190000086000BF002080F3118800BF10BD0000F8
:1019100004ED00E02DE9FF4F85B08046894617466B
:10192000DDE912ABB800FFF715FC064656B14C20B6
:10193000FFF710FC04460CB1266304E03046FFF7C5
:10194000A7FD00E000247CB10020CDE900ABCDE98B
:1019500002403A4649464046089BFFF7E3FA2046D4
:10196000FFF7F8F9012501E04FF0FF35284609B0EF
:10197000BDE8F08F0549096809B9012005E004496F
:10198000096809B9022000E00020704754000020D7
:10199000700000202DE9F0414FF000084148006838
:1019A000002872D140480068451C3F480560EDB9E9
:1019B0003E480068006808B9012000E0002028B90E
:1019C00040F6D9123AA13FA0FFF730F83748076830
:1019D00040480068354908603E4807603E48006856
:1019E000401C3D490860FFF765FB00BF3B480068AD
:1019F00085423CD300BF2D480068006808B901202B
:101A000000E0002020B14FF0FF30344908602DE0A5
:101A100026480068C068C4686668B54202D22F488C
:101A2000066023E0201DFFF771FCA06A18B104F1E5
:101A30001800FFF76BFC94F82C100120884028490F
:101A40000968084326490860E16A01EB8101254ADB
:101A500002EB8100211DFFF797FC2349E06A09682A
:101A6000C96A8842C7D34FF00108C4E700BF1E48C7
:101A70000068C06A00EB80001A4951F82000012874
:101A800001D94FF0010805E0FFE718480068401C45
:101A9000164908601648006808B14FF00108404632
:101AA000BDE8F081700000204C0000203C000020C8
:101AB0004672656552544F535C7461736B732E6349
:101AC000000000004572726F723A25732C25640D78
:101AD0000A00000040000020600000206800002094
:101AE0005000002064010020380000205800002031
:101AF0005C00002070B5002400263448006828B936
:101B00004FF4FD6232A137A0FEF790FFFFF748FCCB
:101B10002E480068401E2D490860084600680028CD
:101B20004FD13448006800284BD024E03248C068C8
:101B3000C46804F11800FFF7E9FB201DFFF7E6FB7E
:101B400094F82C10012088402C49096808432B493F
:101B50000860E16A01EB8101294A02EB8100211D45
:101B6000FFF712FC2749E06A0968C96A884202D374
:101B70000120254908602048006808B9012000E0DC
:101B800000200028D2D00CB1FFF794FA1F48056856
:101B900065B100BFFFF7FEFE10B101201A490860D1
:101BA0006D1E002DF6D10020184908601648006807
:101BB00038B10126300716490860BFF34F8FBFF3D5
:101BC0006F8FFFF72FFC304670BD000070000020C3
:101BD0004672656552544F535C7461736B732E6328
:101BE000000000004572726F723A25732C25640D57
:101BF0000A000000480000200C04002050000020D3
:101C000064010020380000205C0000205800002003
:101C100004ED00E0341C0008000000209C000000DF
:101C20004C0A0008D01C00089C000020AC97000063
:101C30005C0A000800000000000000000000000036
:101C4000010203040102030406070809020406084E
:101C500000A24A040000000000000000010203048A
:101C60000607080900000000000000000000000056
:101C70000000000000000000000000000000000064
:101C80000000000000000000000000000000000054
:101C90000000000000000000000000000000000044
:101CA0000000000000000000000000000000000034
:101CB0000000000000000000000000000000000024
:101CC000AAAAAAAA0000000000000000000000006C
:0400000508000131BD
:00000001FF
