:020000040800F2
:1000000018170020E1010008ED030008990300081B
:10001000E9030008790200084B0A0008000000000C
:10002000000000000000000000000000490100087E
:100030007D020008000000008D010008790600081C
:10004000FB010008FB010008FB010008FB010008A0
:10005000FB010008FB010008FB010008FB01000890
:10006000FB010008FB010008FB010008FB01000880
:10007000FB010008FB010008FB010008FB01000870
:10008000FB010008FB010008FB010008FB01000860
:10009000FB010008FB010008FB010008FB01000850
:1000A000FB010008FB010008FB010008FB01000840
:1000B000FB010008FB010008FB010008FB01000830
:1000C000FB010008FB010008FB010008FB01000820
:1000D000FB01000845070008FB010008FB010008C0
:1000E000FB010008FB010008FB010008FB01000800
:1000F000FB010008FB010008FB010008FB010008F0
:10010000FB010008FB010008FB010008FB010008DF
:10011000FB010008FB010008FB010008FB010008CF
:10012000FB010008FB010008FB010008FB010008BF
:10013000DFF810D000F08EF8004800476D0C000882
:10014000AFF3008018170020224B19680868B0E848
:10015000F00F80F30988BFF36F8F4FF0000080F33A
:1001600011884EF00D0E7047000000000648006830
:10017000006880F3088862B661B6BFF34F8FBFF3A3
:100180006F8F00DF00BF00BF08ED00E0EFF30980D4
:10019000BFF36F8F0F4B1A6820E9F00F106008B59E
:1001A0004FF0500080F31188BFF34F8FBFF36F8F74
:1001B00001F078FE4FF0000080F31188BDE80840A0
:1001C00019680868B0E8F00F80F30988BFF36F8FF3
:1001D000704700BF3C000020EFF30580704700002F
:1001E0000648804706480047FEE7FEE7FEE7FEE7D1
:1001F000FEE7FEE7FEE7FEE7FEE7FEE7E5060008AE
:100200003101000840EA01039B0703D009E008C957
:10021000121F08C0042AFAD203E011F8013B00F8CB
:10022000013B521EF9D2704730B50B460146002003
:100230002022012409E021FA02F59D4205D303FAA8
:1002400002F5491B04FA02F52844151EA2F1010229
:10025000F1DC30BD064C074D06E0E06840F00103DC
:1002600094E8070098471034AC42F6D3FFF764FFD8
:10027000C02B0008E02B000800BFFEE770472DE907
:10028000F04102460025002600200023002400271C
:1002900091F803C00CF00F0591F803C00CF0100C9E
:1002A000BCF1000F03D091F802C04CEA050591F8AB
:1002B00000C0BCF1000F31D0146800202BE04FF0DB
:1002C000010C0CFA00F3B1F800C00CEA03069E42E0
:1002D00020D183004FF00F0C0CFA03F7BC4305FA52
:1002E00003FC4CEA040491F803C0BCF1280F06D1CA
:1002F0004FF0010C0CFA00FCC2F814C00AE091F8AF
:1003000003C0BCF1480F05D14FF0010C0CFA00FC02
:10031000C2F810C0401C0828D1D31460B1F800C046
:10032000BCF1FF0F34DD546800202EE000F1080C12
:100330004FF0010808FA0CF3B1F800C00CEA03060C
:100340009E4221D183004FF00F0C0CFA03F7BC43FF
:1003500005FA03FC4CEA040491F803C0BCF1280F31
:1003600005D100F1080C08FA0CF8C2F8148091F8D5
:1003700003C0BCF1480F07D100F1080C4FF0010891
:1003800008FA0CF8C2F81080401C0828CED354603C
:10039000BDE8F0810161704700BFFEE708B50121AB
:1003A000482000F067F82020ADF8000010208DF8FC
:1003B000030003208DF8020069460948FFF75FFF3C
:1003C00020210748FFF7E6FF2020ADF8000069462E
:1003D0000448FFF754FF20210248FFF7DBFF08BD68
:1003E000000C01400018014000BFFEE7704700000C
:1003F00070B5002100230F22C47804B3154C246883
:1004000004F4E064C4F5E064210AC1F10403CA40C5
:10041000447804FA03F184781440214309010E4C16
:100420000678A155047804F01F050124AC40057836
:100430006D11AD0005F1E025C5F8004109E0047833
:1004400004F01F050124AC40044D0678761145F8F0
:10045000264070BD0CED00E000E400E080E100E02B
:1004600002490143024A1160704700000000FA058A
:100470000CED00E029B1064A92690243044B9A61EF
:1004800004E0034A92698243014B9A61704700007D
:100490000010024030B500210022002400232D4D21
:1004A0006D6805F00C0121B1042905D0082923D17C
:1004B00005E0294D056022E0274D05601FE0254D30
:1004C0006D6805F47012234D6D6805F480340225C3
:1004D00005EB92421CB9214D554305600BE01D4DC3
:1004E0006D6805F400351DB11C4D5543056002E0F3
:1004F000194D5543056002E0174D056000BF00BF70
:10050000144D6D6805F0F0010909154D6B5C056827
:10051000DD4045600F4D6D6805F4E061090A104D3E
:100520006B5C4568DD4085600A4D6D6805F460517F
:10053000C90A0B4D6B5C4568DD40C560054D6D68B3
:1005400005F44041890B074D6B5CC568B5FBF3F5BD
:10055000056130BD0010024000127A0000093D0024
:100560000C0000201C00002010B500F001F810BDA8
:100570000CB50020019000903348006840F48030B2
:100580003149086000BF3048006800F40030009036
:100590000198401C0190009818B90198B0F5A06F1F
:1005A000F1D12948006800F4003010B1012000901A
:1005B00001E0002000900098012843D12348006802
:1005C00040F01000214908600846006820F0030050
:1005D00008600846006840F0020008601A48406859
:1005E000194948600846406848600846406840F439
:1005F000806048600846406820F47C1048600846E7
:10060000406840F4E81048600846006840F0807098
:10061000086000BF0C48006800F000700028F9D0A6
:100620000948406820F003000749486008464068D0
:1006300040F00200486000BF0348406800F00C0032
:100640000828F9D10CBD0000001002400020024033
:10065000042808D14FF0E021096941F004014FF06E
:10066000E022116107E04FF0E021096921F0040167
:100670004FF0E0221161704710B502F059F80128DF
:1006800001D001F0B3FC10BD70B505460420FFF7A2
:10069000DFFF104800681049B0FBF1F00F49087007
:1006A0000C4800680C49B0FBF1F44FF47A704443F5
:1006B00001200B4908804FF0E020006940F0020063
:1006C0004FF0E021086108464461006940F00100F4
:1006D000086170BD2000002040420F00340000205F
:1006E0003600002010B51348006840F001001149A1
:1006F000086008464068104908400E4948600846AE
:1007000000680E4908400B4908600846006820F45C
:10071000802008600846406820F4FE0048604FF4DE
:100720001F008860FFF720FF4FF000600449086059
:1007300010BD0000001002400000FFF8FFFFF6FEB1
:1007400008ED00E010B540F225511D4800F0B8F862
:1007500010B31B4800F070F9C4B21A48008800F4C6
:100760000040C8B91748008800F4804060B10A2CE6
:1007700003D000201349088020E01248008840F48C
:1007800000401049088019E00D2C06D10D48008862
:1007900040F480400B49088010E00A480088C0F30C
:1007A0000D0009490C5407480088401C0549088081
:1007B00008460088C72801DD0020088010BD000021
:1007C0000038014038000020300E002010B586B0FF
:1007D000044601210420FFF74DFE01218803FFF7A5
:1007E00049FE4FF40070ADF8140003208DF8160098
:1007F00018208DF8170005A91E48FFF740FD4FF49B
:100800008060ADF8140004208DF8170005A9194880
:10081000FFF735FD01940020ADF80800ADF80A009F
:10082000ADF80C00ADF810000C20ADF80E0001A9D9
:10083000114800F095F801210F4800F028F84021F8
:100840000D4800F01BF8012240F225510A4800F043
:1008500061F825208DF8000003208DF801008DF847
:10086000020001208DF803006846FFF7C1FD06B0C5
:1008700010BD0000000801400038014001F4007282
:10088000B2F5007F00D100BFCA430280704721B19A
:10089000828942F40052828104E082894DF6FF731E
:1008A0001A408281704702460020B1F5007F00D1D6
:1008B00000BF13880B400BB1012000E000207047FF
:1008C00070B50246002400230025002040F66A1679
:1008D000B14200D100BFC1F3421501F01F03012650
:1008E00006FA03F3012D02D19689334006E0022D6A
:1008F00002D1168A334001E0968A33400C12012659
:1009000006FA04F41688344013B10CB1012000E05B
:10091000002070BDF0B5034600240026002500200D
:1009200040F66A17B94200D100BF1846C1F342141D
:1009300001F01F06012707FA06F5012C01D10C3042
:1009400004E0022C01D1103000E014301AB1076825
:100950002F43076002E00768AF430760F0BD000067
:100960002DE9F04786B005460E460024A24600BF9A
:10097000A1460027B08900B100BF2F462C8A4CF653
:10098000FF700440F08804432C82AC894EF6F310CB
:100990000440B08831890843718908430443AC811D
:1009A000AC8A4FF6FF400440B0890443AC8201A8F2
:1009B000FFF770FD1F48874202D1DDF810A001E06B
:1009C000DDF80CA0A88900F4004040B10AEBCA0091
:1009D00000EB0A1031684900B0FBF1F807E00AEBC0
:1009E000CA0000EB0A1031688900B0FBF1F86420FE
:1009F000B8FBF0F004012009642101FB1089A889EB
:100A000000F4004040B1322000EBC900B0FBF1F02F
:100A100000F00700044308E0322000EB09106421D5
:100A2000B0FBF1F000F00F0004432C8106B0BDE8EC
:100A3000F08700000038014001468888C0F30800B4
:100A40007047C1F308028280704700BFFEE70000D4
:100A50000FB4054B10B503A9044A029800F018F82A
:100A600010BC5DF814FB0000490C0008B000002029
:100A700002E008C8121F08C1002AFAD17047704767
:100A8000002001E001C1121F002AFBD170470000C5
:100A90002DE9FF4F8BB09A460F460546002606E02B
:100AA00025280BD052460D9990476D1C761C28784E
:100AB0000028F5D10FB03046BDE8F08F0024A046E5
:100AC0000122604900E0044315F8013F203B02FA8F
:100AD00003F00842F7D128782E2817D115F8010F16
:100AE00044F004042A280ED06FF02F022878A0F1D9
:100AF000300109290AD808EB880102EB410100EB1B
:100B000001086D1CF2E757F8048B6D1C28786928E2
:100B10003ED006DC0028CDD063280BD0642804D159
:100B200036E0732810D075284BD052460D99904767
:100B3000761C85E017F8040B8DF8000000208DF876
:100B40000100E946012003E057F8049B4FF0FF3015
:100B500061074FF0000401D40AE0641C44450DDA3B
:100B60008442FADB19F804100029F6D106E0641C6F
:100B70008442FCDB19F804100029F8D1264404E073
:100B800019F8010B52460D999047641EF8D257E0B0
:100B900001CF4FF00A0B002802DA40422D2102E07B
:100BA000210504D52B218DF82410012103E0E10754
:100BB00005D02021F7E70DF1200908910CE0002174
:100BC000F9E701CF4FF00A0BF9E75946FFF72CFB85
:100BD00001F1300209F8012D0028F6D1ADEB090032
:100BE00000F1200B600701D44FF00108D84502DD69
:100BF000A8EB0B0000E000208046002406E009A8D6
:100C00005246005D0D999047641C761C08988442FA
:100C1000F5DB04E0302052460D999047761CB8F180
:100C20000001A8F10108F5DC05E019F8010B5246B6
:100C30000D999047761CBBF10001ABF1010BF4DC80
:100C40006D1C34E70928010070B504460D46E1B279
:100C50000548FFF7F6FE00BF80210348FFF723FE9B
:100C60000028F9D0204670BD003801400EB548205C
:100C7000FFF70AFD4FF44070FFF7F2FBFFF78EFB22
:100C80004FF4E130FFF7A2FD084809490122002393
:100C9000CDE900210290802206A1094801F0F8FC6C
:100CA0000849086001F08CF800200EBDB402002055
:100CB000B400002073746172745F7461736B000020
:100CC000C1160008000000202DE9F04105460E463F
:100CD0001C4807681C480068001D00F05FFD50B903
:100CE0001948006890F82C100120884017490968BD
:100CF000814316480160681C38B936B11248016852
:100D0000091D134800F0A0FD1AE07C190E48006888
:100D10004460BC4207D20C480168091D0D480068B8
:100D200000F078FD0CE008480168091D0A480068D9
:100D300000F070FD09480068844201D20748046051
:100D4000BDE8F081500000203C000020540000204D
:100D50001812002044000020400000206C000020F9
:100D600010B5044600F07CFD23480068401C224971
:100D700008602248006840B92048046008460068BE
:100D800001280DD100F0CEF90AE01D48006838B9FD
:100D90001A480068C06AE16A884201D817480460AE
:100DA00018480068401C1749086094F82C1001206E
:100DB000884015490968084313490860E16A01EB56
:100DC0008101124A02EB8100211D00F03DFD00F07F
:100DD00089FD0B48006868B108480068C06AE16A8C
:100DE000884207D24FF0805009490860BFF34F8F07
:100DF000BFF36F8F10BD00004C0000203C000020AE
:100E0000580000206800002054000020480F0020F7
:100E100004ED00E008B500F023FD12480068E8B9D1
:100E2000114800F0E7FC114800F0E4FC0E481049BE
:100E300008600E480F49086000200F4B0F4A0C2134
:100E400000900A2001F0ECF80649086008460068A6
:100E500020B10BA10348006800F032FE00F042FD13
:100E600008BD0000800000202C120020401200204D
:100E7000780000207C000020541200209C120020EA
:100E8000546D72510000000070B523E001F002F8CB
:100E90001348006808B9012000E00020054601F071
:100EA00067FDBDB900F0DCFC0D48C068C468201DBA
:100EB00000F074FC0B480068401E0A4908600A48AC
:100EC0000068401E0849086000F00CFD204600F054
:100ED00057F800BF044800680028D7D170BD000053
:100EE000041200204C0000204800002070B5044689
:100EF0000D46206C70B1216CE0680844E0606168C8
:100F0000E068884201D32068E0602846226CE168EE
:100F1000FFF778F970BD2DE9F04104460F461546FC
:100F20004FF00008A66B206C28B37DB93946226CBF
:100F3000A068FFF767F9216CA0680844A060D4E9B5
:100F40000110884217D32068A06014E03946226C53
:100F5000E068FFF757F9216CE068401AE06021680B
:100F6000E068884203D2216C6068401AE060022D7C
:100F700001D106B1761E701CA0634046BDE8F08129
:100F800010B5044694F8490030B9206B00F0E0FC3D
:100F9000204600F0DDFC15E094F84900012803D15B
:100FA000204600F0D5FC0DE094F84900022801D15C
:100FB000012000E0002028B940F6296202A107A024
:100FC000FFF746FD10BD00004672656552544F5351
:100FD0005C7461736B732E63000000004572726F66
:100FE000723A25732C25640D0A0000000146084A58
:100FF000126812680AB9012200E000220A600A6839
:1010000022B9034A1268D268106800E000207047D5
:101010007800002000BFFFF737FF0648006801286E
:10102000F9D94FF0805004490860BFF34F8FBFF3E8
:101030006F8FF0E7480F002004ED00E02DE9F0414C
:1010400006460D4617469846069C0DB9246000E0FA
:101050002760E66325640121204601F01FF9BDE801
:10106000F08100002DE9FF5F81460E469246DDE9E2
:101070000E7B109CAAF10100216B01EB800828F087
:10108000070808F0070008B9012000E0002028B98F
:1010900040F22B321AA11FA0FFF7DAFC002507E06F
:1010A000715D04F134004155705D00B902E06D1CC2
:1010B000102DF5D300BF002143200155202F00D370
:1010C0001F27E762201D00F0A2FB04F1180000F0CA
:1010D0009EFB2461C7F12000A0616462002060646F
:1010E00084F8480049464046039A00F0D7FA206049
:1010F000BBF1000F01D0CBF80040BDE8FF9F00001E
:101100004672656552544F535C7461736B732E6302
:10111000000000004572726F723A25732C25640D31
:101120000A00000010B5002407E004EB84010F4A18
:1011300002EB810000F05EFB641C202CF5D30C4810
:1011400000F058FB0B4800F055FB0B4800F052FB39
:101150000A4800F04FFB0A4800F04CFB04480949DC
:10116000086004480849086010BD0000480F0020CE
:10117000C8110020DC110020F01100200412002012
:1011800018120020400000204400002010B5014645
:10119000164800E0006803688B42FBD302464368B0
:1011A00013448B4204D143684C6823444360014696
:1011B0000A464B6813440468A34211D10C4C0368DF
:1011C0002468A34208D04B680468646823444B60D9
:1011D00003681B680B6005E0054B1B680B6001E0B2
:1011E00003680B60884200D0016010BD8C000020B5
:1011F000940000202DE9F04104460D4616461F4696
:101200004FF0000865602461B5420CD8F01BA1695D
:10121000884202D34FF0010811E0211D09480068FF
:1012200000F0F8FA0BE0BE4204D2BD4202D34FF008
:10123000010804E0211D0448006800F0EBFA404674
:10124000BDE8F0817C0000207800002070B50546E4
:1012500000F006FBA86B08B9012400E0002400F0B0
:1012600041FB204670BD70B5054600F0F9FAA86B49
:10127000E96B884201D1012400E0002400F032FB38
:10128000204670BDF8B505460F4613480068C06893
:10129000C468201D00F082FAE069012818D1A06915
:1012A00041192B463A462046FFF7A4FF80B10020A3
:1012B00003462A4601460090204601F033FC0646CC
:1012C0002EB94FF4027205A109A0FFF7C1FB00BFC0
:1012D0002046616A8847F8BD78000020467265653F
:1012E00052544F535C74696D6572732E6300000035
:1012F0004572726F723A25732C25640D0A00000046
:1013000070B586B063E00398002860DB059C6069D7
:1013100008B9012000E0002010B9201D00F03EFABD
:1013200002A800F0C7F8054603980A284DD2DFE866
:1013300000F00905072C2E4506082D2F00BF00BF21
:1013400000BF00BF0498A269811803462A462046C0
:10135000FFF750FFC0B12046616A8847E069012865
:1013600012D1002000900498A16942180023194668
:10137000204601F0D7FB06462EB940F2213219A1D2
:101380001DA0FFF765FB00BF20E000BF1EE000BF0F
:101390000498A061A06908B1012000E0002028B9EC
:1013A0004FF44E720FA114A0FFF752FBA069411930
:1013B0002B462A462046FFF71DFF07E094F8280039
:1013C00010B9204600F0C4FA00E000BF00BF0023BF
:1013D0001A4603A90C48006800F08AFE002892D142
:1013E00006B070BD4672656552544F535C74696DAA
:1013F0006572732E630000004572726F723A257336
:101400002C25640D0A00000080000020F8B5054678
:101410000C4600F03FFD684600F04CF80646009888
:1014200020BB44B9B54206D801F0A2FA314628469D
:10143000FFF728FF1CE03CB10E480068006808B9BF
:10144000012000E000200446A91B22460A4800684B
:1014500000F04CFB01F08CFA50B94FF08050074976
:101460000860BFF34F8FBFF36F8F01E001F080FA88
:10147000F8BD00007C0000208000002004ED00E0AA
:101480000A490968096809B9012100E0002121B170
:101490004FF0FF31064A116006E004490968C96847
:1014A000C868034A4168116070470000400000208E
:1014B0006C00002070B5044601F04AF90546074863
:1014C0000068854204D200F00BF80120206001E0A2
:1014D0000020206001480560284670BD880000207B
:1014E0002DE9F8432DE021480068C06805681F48D1
:1014F0000068C068C468201D00F050F92046616A89
:101500008847E06901281CD1A0694619AE4207D975
:1015100066602461211D1548006800F07BF910E029
:10152000002003462A4601460090204601F0FAFAC0
:1015300007462FB940F292320DA112A0FFF788FAA8
:1015400000BF0A480068006808B9012000E00020D8
:101550000028C8D00548D0F800800E48006803492C
:1015600008600C48C0F80080BDE8F88378000020CF
:101570004672656552544F535C74696D6572732E83
:10158000630000004572726F723A25732C25640D5A
:101590000A0000007C0000200B480068401C08B9CD
:1015A000012000E0002020B9F42208A111A0FFF7DB
:1015B0004FFA00BF502080F31188BFF34F8FBFF365
:1015C0006F8F00BF00BFFEE7A40000204672656574
:1015D00052544F535C706F727461626C655C52560A
:1015E00044535C41524D5F434D335C706F72742EB7
:1015F000630000004572726F723A25732C25640DEA
:101600000A00000008B500BF6846FFF7EFFC04467B
:1016100020460099FFF7FAFEFFF772FEF4E770B577
:10162000044600F01DF994F9455010E0606A08B9CD
:10163000012000E0002038B904F1240001F03EF957
:1016400018B100F039FB00E003E0681E45B2002D40
:10165000ECDC00BFFF2084F8450000F043F900F007
:10166000FFF894F9445010E0206908B9012000E027
:10167000002048B904F1100001F020F908B100F091
:101680001BFB681E45B200E001E0002DECDC00BF52
:10169000FF2084F8440000F025F970BD001F4FF0D2
:1016A00080730360001F21F001030360001F034BE0
:1016B0000360143802602038704700009915000854
:1016C0003EB5044600F0CCF811481249022200232E
:1016D000CDE90021029080220FA1124800F0D8FF2E
:1016E000114908601148124903220023CDE9002165
:1016F000029080220FA1124800F0CAFF1149086031
:101700001148006800F052FA00F0ECF83EBD00000D
:1017100000050020000300207461736B315F746169
:10172000736B00004D170008040000204C070020D8
:101730004C0500207461736B325F7461736B000041
:101740007517000808000020000000200DE00020B0
:1017500006490860C82000F0EFF901200449C1F8EB
:1017600094014FF4487000F0E7F9F0E794812142CA
:10177000008021420DE00020064908604FF44870C7
:1017800000F0DAF901200449C1F89401C82000F002
:10179000D3F9F0E7940123420000234201460A698D
:1017A000D1E901309860D1E901035860506888425E
:1017B00001D188685060002008611068401E1060E8
:1017C00010687047034B0360034B0B60802313606A
:1017D00070470000980D002098070020034B03601D
:1017E000034B0B604FF4807313607047E40D0020CF
:1017F0009809002000F1080141604FF0FF3181603D
:1018000000F10801C1600161002101607047002101
:101810000161704710B502460B685C1C0CB9106979
:1018200007E002F1080000E04068446824689C4238
:10183000FAD944684C604C68A160886041600A61D4
:101840001468641C146010BD42684A6093688B6021
:10185000936859609160086103685B1C036070477E
:1018600010B500BF502080F31188BFF34F8FBFF336
:101870006F8F00BF0B480068401C0A49086008468B
:10188000006801280DD108480068C0B208B90120DD
:1018900000E0002028B94FF4BD7204A10DA0FFF7AD
:1018A000D7F810BDA400002004ED00E04672656585
:1018B00052544F535C706F727461626C655C525627
:1018C00044535C41524D5F434D335C706F72742ED4
:1018D000630000004572726F723A25732C25640D07
:1018E0000A00000010B50B48006828B940F28112C8
:1018F00009A113A0FFF7ACF806480068401E05498F
:1019000008600846006820B9002080F3118800BFF5
:1019100000BF10BDA40000204672656552544F53AD
:101920005C706F727461626C655C525644535C41CA
:10193000524D5F434D335C706F72742E6300000034
:101940004572726F723A25732C25640D0A000000EF
:1019500070B506463546002E35D0083D2C461A494E
:1019600060680968084008B1012000E0002028B93B
:101970004FF4A07215A11EA0FFF76AF8206808B9FD
:10198000012000E0002028B940F241120FA118A068
:10199000FFF75EF80C4960680968084098B1206854
:1019A00088B90949606809688843606000F072FA84
:1019B0001349606809680844114908602046FFF728
:1019C000E5FB00F0D5FF70BDA00000204672656504
:1019D00052544F535C706F727461626C655C4D65FC
:1019E0006D4D616E675C686561705F342E630000E9
:1019F0004572726F723A25732C25640D0A0000003F
:101A000098000020064800684FF47A71B0FBF1F0AE
:101A1000401E4FF0E0214861072008617047000038
:101A20002000002070B5FEF7D7FB0546102D11D31E
:101A300005F1E02090F8F04310480078844201DB83
:101A4000012000E0002028B94FF42A720CA116A052
:101A5000FEF7FEFF1848006800F4E06017490968C7
:101A6000884201D8012000E0002028B94FF42E72EE
:101A700003A10DA0FEF7ECFF70BD0000A800002040
:101A80004672656552544F535C706F727461626C3C
:101A9000655C525644535C41524D5F434D335C701C
:101AA0006F72742E630000004572726F723A257374
:101AB0002C25640D0A0000000CED00E0AC000020B5
:101AC000024600200BE0084B53F8303033B9064B88
:101AD00043F8301003EBC0035A6002E0401C0A28B0
:101AE000F1D300BF70470000F80E00202DE9F0414F
:101AF00005460E4617462C46FFF7B2FE94F9440001
:101B0000401C10B9002084F8440094F94500401CA2
:101B100010B9002084F84500FFF7E4FEA06B28B957
:101B20003A46314604F1240000F0F6F82046FFF76B
:101B300076FDBDE8F081000070B504460025ACB12B
:101B40000F48006808B9012000E0002028B940F2E1
:101B5000CF420CA110A0FEF77BFF00F09BF9002103
:101B60002046FFF7B1F800F003FF05463DB94FF0FE
:101B700080500D490860BFF34F8FBFF36F8F70BD6A
:101B8000740000204672656552544F535C74617353
:101B90006B732E63000000004572726F723A2573FA
:101BA0002C25640D0A00000004ED00E070B5054628
:101BB000FFF756FE15B92D48006800E02846044698
:101BC000201DFFF7EBFD78B9E06A00EB80002849A3
:101BD00051F8200040B994F82C1001208840254984
:101BE0000968814323480160A06A18B104F1180014
:101BF000FFF7D4FD20480068401C1F4908601B48BF
:101C00000068844209D1211D1C48FFF71DFE1C48B5
:101C10000068401C1A49086009E01A480068401E24
:101C2000184908602046FFF7ABF9FFF729FCFFF7DA
:101C300059FE15480068C0B10C480068844214D1B0
:101C40001248006808B9012000E0002028B940F2DD
:101C500065420FA113A0FEF7FBFE4FF0805015491F
:101C60000860BFF34F8FBFF36F8F70BD3C00002043
:101C7000480F0020540000206800002004120020BB
:101C8000480000204C000020580000207400002074
:101C90004672656552544F535C7461736B732E6367
:101CA000000000004572726F723A25732C25640D96
:101CB0000A00000004ED00E00120014908607047BF
:101CC0006000002070B504460D462CB940F606327F
:101CD00007A10CA0FEF7BCFE0E4801681831204693
:101CE000FFF798FD01212846FEF7EEFF70BD0000CA
:101CF0004672656552544F535C7461736B732E6307
:101D0000000000004572726F723A25732C25640D35
:101D10000A0000003C00002070B505460E4614463F
:101D20002DB940F6313209A10DA0FEF791FE104801
:101D3000016818312846FFF787FD0CB14FF0FF36D8
:101D400021463046FEF7C0FF70BD00004672656553
:101D500052544F535C7461736B732E630000000028
:101D60004572726F723A25732C25640D0A000000CB
:101D70003C00002010B504462CB940F6C13205A144
:101D800009A0FEF765FE0C48006820600B4800685B
:101D9000606010BD4672656552544F535C74617348
:101DA0006B732E63000000004572726F723A2573E8
:101DB0002C25640D0A000000640000205000002063
:101DC00010B586B000200590049003AA04A905A8C8
:101DD000FFF7F8FC0022DDE904101346CDE90021ED
:101DE00002901CA11D48039A00F052FC1C49086097
:101DF0000846006808B1012400E00024012C02D14B
:101E000000F046FE0446012C15D100BF502080F39F
:101E10001188BFF34F8FBFF36F8F00BF4FF0FF30BC
:101E20001049086001201049086000200F4908602F
:101E300000F08CF80BE0601C08B1012000E00020ED
:101E400028B940F284720AA10EA0FEF701FE06B086
:101E500010BD000049444C4500000000151000086A
:101E6000700000206C00002058000020500000206E
:101E70004672656552544F535C7461736B732E6385
:101E8000000000004572726F723A25732C25640DB4
:101E90000A00000002480068401C014908607047C1
:101EA0007400002010B51B48006818B101201A49C1
:101EB00008602DE000201849086018480068B0FA52
:101EC00080F0C0F11F0404EB8400154951F8200094
:101ED00008B1012000E0002028B940F6F62211A147
:101EE00015A0FEF7B5FD04EB84010D4A02EB81005D
:101EF00041684968416000F1080142688A4202D1A4
:101F00004168496841604168C9680F4A116000BF73
:101F100010BD00007400002060000020540000206C
:101F2000480F00204672656552544F535C746173CC
:101F30006B732E63000000004572726F723A257356
:101F40002C25640D0A0000003C0000201CB522482E
:101F5000014609780191FF21024611700146097876
:101F600000919DF8001001F050011C4A11700721EA
:101F70001B4A116009E01A490968491E184A116094
:101F80009DF800104906090E00919DF8001001F01F
:101F900080018029EFD0124909680902104A1160B6
:101FA0001146098801F4E06111600B4A0199117032
:101FB0000C48006840F470000A4908600846006850
:101FC00040F070400860FFF71DFD002006490860E2
:101FD000FEF7CCF800201CBD00E400E0A8000020C3
:101FE000AC00002020ED00E0A400002010B500BFF0
:101FF000502080F31188BFF34F8FBFF36F8F00BF66
:1020000000F0ACFB18B14FF080500449086000BFED
:10201000002080F3118800BF10BD000004ED00E037
:102020002DE9F84380460E4617461D46DDF8209000
:10203000B8F1000F01D0012000E0002028B94FF4D2
:10204000A97222A126A0FEF703FD0DB1012000E038
:10205000002028B94FF4AB721CA121A0FEF7F8FCB8
:1020600007B10EB1012000E0002028B94FF4AD7295
:1020700016A11BA0FEF7ECFC07B90EB9012000E089
:10208000002028B940F25B1210A115A0FEF7E0FC79
:10209000482000900098482801D1012000E000204D
:1020A00028B940F2631209A10DA0FEF7D1FC2C461D
:1020B0004CB1012084F846004B463A463146404632
:1020C0000094FEF7BBFF2046BDE8F88346726565C5
:1020D00052544F535C71756575652E6300000000A6
:1020E0004572726F723A25732C25640D0A00000048
:1020F0002DE9FF4782B005460E461F464FF0000A05
:102100002C462CB940F2DC425AA15FA0FEF7A0FC9D
:102110000EB9206C08B9012000E0002028B940F277
:10212000DD4254A158A0FEF793FC00F001FB08B972
:10213000049808B9012000E0002028B94FF49C62FF
:102140004CA151A0FEF784FC00BFFFF789FBD4F837
:102150003890B9F1000F38D0D4F80C8031462046C1
:10216000FEF7C4FEB7B9A9F10100A063206908B960
:10217000012000E0002010BB04F1100000F09EFBE5
:10218000E8B14FF0805044490860BFF34F8FBFF370
:102190006F8F14E0C4F80C80606A08B9012000E079
:1021A000002060B904F1240000F088FB38B14FF042
:1021B000805039490860BFF34F8FBFF36F8FFFF72F
:1021C00091FB012006B0BDE8F087049818B9FFF72D
:1021D00089FB0020F6E7BAF1000F04D16846FFF74B
:1021E000C9FD4FF0010AFFF77DFBFFF753FEFFF734
:1021F00037FB94F94400401C10B9002084F84400D7
:1022000094F94500401C10B9002084F84500FFF700
:1022100069FB04A9684600F0EBF9F0B92046FFF726
:1022200015F8A0B104F124000499FFF74BFD2046F6
:10223000FFF7F5F900F09CFB002886D14FF08050A5
:1022400015490860BFF34F8FBFF36F8F7DE72046BE
:10225000FFF7E5F900F08CFB77E72046FFF7DFF9A1
:1022600000F086FB2046FEF7F1FF0028EED00020AC
:10227000A8E700004672656552544F535C7175655E
:1022800075652E63000000004572726F723A257307
:102290002C25640D0A00000004ED00E070B5054631
:1022A0000E462C462CB940F21B121EA122A0FEF7AE
:1022B000CFFBFFF7D5FAD4E90F12206801FB02002B
:1022C00060600020A0632068A060E06B401E226C6C
:1022D000216800FB0210E060FF2084F8440084F8CD
:1022E00045009EB9206908B9012000E00020A8B986
:1022F00004F1100000F0E2FA80B14FF08050124972
:102300000860BFF34F8FBFF36F8F07E004F1100039
:10231000FFF770FA04F12400FFF76CFAFFF7E2FA16
:10232000012070BD4672656552544F535C717565EE
:1023300075652E63000000004572726F723A257356
:102340002C25640D0A00000004ED00E02DE9FF4398
:1023500083B0064688461D464FF0000934462CB926
:1023600040F2D92258A15DA0FEF772FBB8F1000F30
:1023700001D1206C08B9012000E0002028B940F20A
:10238000DA2251A155A0FEF763FB022D02D1E06BCA
:10239000012801D1012000E0002028B940F2DB2211
:1023A00049A14EA0FEF754FB00F0C2F908B9059808
:1023B00008B9012000E0002028B940F2DE2242A145
:1023C00046A0FEF745FB00BFFFF74AFAA06BE16BA2
:1023D000884201D3022D28D12A4641462046FEF7E5
:1023E0009AFD0746606A08B9012000E0002068B93C
:1023F00004F1240000F062FA88B14FF080503B49AC
:102400000860BFF34F8FBFF36F8F08E03FB14FF00D
:10241000805036490860BFF34F8FBFF36F8FFFF7CF
:1024200061FA012007B0BDE8F083059818B9FFF7FD
:1024300059FA0020F6E7B9F1000F04D101A8FFF71F
:1024400099FC4FF00109FFF74DFAFFF723FDFFF765
:1024500007FA94F94400401C10B9002084F84400A5
:1024600094F94500401C10B9002084F84500FFF79E
:1024700039FA05A901A800F0BBF8F0B92046FEF72B
:10248000F2FEA0B104F110000599FFF71BFC2046F5
:10249000FFF7C5F800F06CFA002895D14FF0805096
:1024A00012490860BFF34F8FBFF36F8F8CE7204650
:1024B000FFF7B5F800F05CFA86E72046FFF7AFF8C3
:1024C00000F056FA0020ADE74672656552544F534E
:1024D0005C71756575652E63000000004572726F52
:1024E000723A25732C25640D0A00000004ED00E00B
:1024F0002DE9F05F07468A4690461E463C462CB9B9
:1025000040F29F3231A136A0FEF7A2FABAF1000FD5
:1025100001D1206C08B9012000E0002028B94FF457
:1025200068722AA12EA0FEF793FA022E02D1E06B68
:10253000012801D1012000E0002028B940F2A13299
:1025400022A127A0FEF784FAFFF76CFA00BF502102
:10255000EFF3118081F31188BFF34F8FBFF36F8FBB
:1025600000BF0546A06BE16B884201D3022E23D148
:1025700094F945B0324651462046FEF7CCFC0BF1AB
:10258000010088B9606A08B9012000E0002080B924
:1025900004F1240000F092F958B1B8F1000F08D00E
:1025A0000120C8F8000004E00BF1010040B284F8FB
:1025B00045004FF0010901E04FF0000900BF85F32D
:1025C000118800BF4846BDE8F09F0000467265656F
:1025D00052544F535C71756575652E6300000000A1
:1025E0004572726F723A25732C25640D0A00000043
:1025F0002DE9F04104460D462CB940F6CB3219A125
:102600001DA0FEF725FA2DB940F6CC3215A11AA06F
:10261000FEF71EFAFFF724F91B4807682868401CDC
:1026200008B9002619E0194920680968884204D0D1
:102630006068B84201D801260FE06068381A29683E
:10264000884209D228686168791A401A28602046B1
:10265000FFF790FB002600E00126FFF743F9304624
:10266000BDE8F0814672656552544F535C746173E6
:102670006B732E63000000004572726F723A25730F
:102680002C25640D0A00000050000020640000208A
:102690002DE9F04F85B00746884691469A46DDE918
:1026A0000EB6109C0EB1012000E0002028B940F2C7
:1026B000552216A11AA0FEF7CBF90CB1012000E0BB
:1026C000002028B940F2562210A115A0FEF7C0F94B
:1026D000ACB1A6B125462E63022085F84900002042
:1026E00004A953464A46CDE900B1CDE9025041461E
:1026F0003846FEF7B7FC2846FEF732FB01E0002023
:102700000490049805B0BDE8F08F0000467265653E
:1027100052544F535C7461736B732E63000000005E
:102720004572726F723A25732C25640D0A00000001
:102730000549096809B9012005E00449096809B992
:10274000022000E0002070475800002074000020A4
:102750000149086870470000500000202DE9F04151
:102760004FF0000841480068002872D140480068D6
:10277000451C3F480560EDB93E480068006808B94F
:10278000012000E0002028B940F6D9123AA13FA06C
:10279000FEF75EF937480768404800683549086029
:1027A0003E4807603E480068401C3D490860FEF70F
:1027B00067FE00BF3B48006885423CD300BF2D4800
:1027C0000068006808B9012000E0002020B14FF047
:1027D000FF30344908602DE026480068C068C468AE
:1027E0006668B54202D22F48066023E0201DFEF73E
:1027F000D5FFA06A18B104F11800FEF7CFFF94F8D6
:102800002C1001208840284909680843264908609F
:10281000E16A01EB8101254A02EB8100211DFFF7EE
:1028200013F82349E06A0968C96A8842C7D34FF0A0
:102830000108C4E700BF1E480068C06A00EB8000C2
:102840001A4951F82000012801D94FF0010805E08C
:10285000FFE718480068401C1649086016480068E1
:1028600008B14FF001084046BDE8F0817400002037
:1028700050000020400000204672656552544F53BE
:102880005C7461736B732E63000000004572726F9D
:10289000723A25732C25640D0A00000044000020C4
:1028A000640000206C00002054000020480F00202D
:1028B0003C0000205C0000206000002070B506464F
:1028C000F068C4682CB940F661321AA11EA0FEF768
:1028D000BFF804F11800FEF761FF1F480068A8B9AF
:1028E000201DFEF75BFF94F82C10012088401B4947
:1028F0000968084319490860E16A01EB8101184A37
:1029000002EB8100211DFEF79FFF04E004F1180196
:102910001448FEF799FF1449E06A0968C96A8842B9
:1029200004D9012501201149086000E0002528464E
:1029300070BD00004672656552544F535C746173FC
:102940006B732E63000000004572726F723A25733C
:102950002C25640D0A0000007400002054000020A3
:10296000480F0020F01100203C00002060000020F3
:1029700070B5002400263448006828B94FF4FD6281
:1029800032A137A0FEF764F8FEF76AFF2E48006810
:10299000401E2D4908600846006800284FD1344881
:1029A000006800284BD024E03248C068C46804F1B5
:1029B0001800FEF7F3FE201DFEF7F0FE94F82C1031
:1029C000012088402C49096808432B490860E16AC6
:1029D00001EB8101294A02EB8100211DFEF734FF42
:1029E0002749E06A0968C96A884202D3012025495B
:1029F00008602048006808B9012000E00020002895
:102A0000D2D00CB1FEF73CFD1F48056865B100BF90
:102A1000FFF7A4FE10B101201A4908606D1E002DB9
:102A2000F6D10020184908601648006838B1012620
:102A3000300716490860BFF34F8FBFF36F8FFEF763
:102A400051FF304670BD000074000020467265657D
:102A500052544F535C7461736B732E63000000001B
:102A60004572726F723A25732C25640D0A000000BE
:102A70004C000020F011002054000020480F0020DE
:102A80003C000020600000205C00002004ED00E01D
:102A900010B586B00024FEF7BDF914480068D0B127
:102AA00000200590049003AA04A905A8FEF796FE4D
:102AB0001F22DDE904100023CDE9002102900CA1C2
:102AC0000D48039AFFF7E4FD0C49086008460068CA
:102AD00000B1012400BF2CB940F2331208A10DA0AF
:102AE000FDF7B6FF204606B010BD000080000020B4
:102AF000546D722053766300051600088400002090
:102B00004672656552544F535C74696D6572732EDD
:102B1000630000004572726F723A25732C25640DB4
:102B20000A0000002DE9FE4304460D4616461F46E6
:102B3000DDF828804FF000092CB94FF4D37216A1AC
:102B40001AA0FDF785FF1D48006810B30095019697
:102B50000294062D15DAFFF7EBFD022808D10023B9
:102B60004246694615480068FFF7F0FB814610E0D1
:102B700000231A46694611480068FFF7E7FB8146C3
:102B800007E000233A4669460C480068FFF7B0FCAE
:102B900081464846BDE8FE834672656552544F53F0
:102BA0005C74696D6572732E630000004572726F0C
:102BB000723A25732C25640D0A0000008000002065
:102BC000E02B000800000020B4000000700A00089C
:102BD000942C0008B400002064160000800A00084D
:102BE00000000000000000000000000000000000E5
:102BF000010203040102030406070809020406088F
:102C000000A24A04000000000000000001020304CA
:102C10000607080900000000000000000000000096
:102C200000000000000000000000000000000000A4
:102C30000000000000000000000000000000000094
:102C40000000000000000000000000000000000084
:102C50000000000000000000000000000000000074
:102C60000000000000000000000000000000000064
:102C70000000000000000000000000000000000054
:102C800000000000AAAAAAAA00000000000000009C
:042C90000000000040
:0400000508000131BD
:00000001FF
