:020000040800F2
:10000000E8980020E101000889050008F9040008CB
:1000100085050008BD020008F70D0008000000007B
:10002000000000000000000000000000490100087E
:10003000DD030008000000008D01000835080008FD
:10004000FB010008FB010008FB010008FB010008A0
:10005000FB010008FB010008FB010008FB01000890
:10006000FB010008FB010008FB010008FB01000880
:10007000FB010008FB010008FB010008FB01000870
:10008000FB010008FB010008FB010008FB01000860
:10009000FB010008FB010008FB010008FB01000850
:1000A000FB010008FB010008FB010008FB01000840
:1000B000FB0100080109000835090008FB010008E0
:1000C000FB010008FB010008FB010008FB01000820
:1000D000FB010008F10A0008FB010008FB01000811
:1000E000FB010008FB010008FB010008FB01000800
:1000F000FB010008FB010008FB010008FB010008F0
:10010000FB010008FB010008FB010008FB010008DF
:10011000FB010008FB01000869090008FB01000859
:10012000FB010008FB010008FB010008FB010008BF
:10013000DFF810D000F0B0F800480047CD110008FB
:10014000AFF30080E8980020224B19680868B0E8F7
:10015000F00F80F30988BFF36F8F4FF0000080F33A
:1001600011884EF00D0E7047000000000648006830
:10017000006880F3088862B661B6BFF34F8FBFF3A3
:100180006F8F00DF00BF00BF08ED00E0EFF30980D4
:10019000BFF36F8F0F4B1A6820E9F00F106008B59E
:1001A0004FF0500080F31188BFF34F8FBFF36F8F74
:1001B00002F0E2FB4FF0000080F31188BDE8084038
:1001C00019680868B0E8F00F80F30988BFF36F8FF3
:1001D000704700BF44000020EFF305807047000027
:1001E0000648804706480047FEE7FEE7FEE7FEE7D1
:1001F000FEE7FEE7FEE7FEE7FEE7FEE7A1080008F0
:100200003101000840EA01039B0703D009E008C957
:10021000121F08C0042AFAD203E011F8013B00F8CB
:10022000013B521EF9D27047D2B201E000F8012B17
:10023000491EFBD270470022F6E710B513460A4666
:1002400004461946FFF7F0FF204610BD421C10F887
:10025000011B0029FBD1801A7047034611F8012BBE
:1002600000F8012B002AF9D11846704730B50B462B
:10027000014600202022012409E021FA02F59D42D6
:1002800005D303FA02F5491B04FA02F52844151EAA
:10029000A2F10102F1DC30BD064C074D06E0E0683A
:1002A00040F0010394E8070098471034AC42F6D3BD
:1002B000FFF742FF083700082837000800BFFEE7B5
:1002C000E4B02AE04FF4C8716846FFF7B4FF68460F
:1002D00002F0A4F911A000F091FD1CA000F08EFD29
:1002E000694626A000F08AFD0CA000F087FD4FF4BF
:1002F000C8716846FFF79FFF684602F025F920A005
:1003000000F07CFD69461DA000F078FD26A000F0FD
:1003100075FD4FF47A7002F01BF8D3E72D2D2D2DCB
:100320002D2D2D2D2D2D2D2D2D2D2D2D2D2D2D2DFD
:100330002D2D2D2D2D2D2D2D2D2D2D2D2D2D2D2DED
:100340002D2D2D2D2D2D2D2D2D0D0A00C8CECEF1AC
:10035000C3FB202020202020C8CECEF1D7B4CCACC7
:1003600020D3C5CFC8BCB6202020CAA3D3E0D5BBBC
:1003700020C8CECEF1D0F2BAC50D0A002573000018
:10038000C8CECEF1C3FB20202020202020D4CBD00B
:10039000D0BCC6CAFD202020202020202020C0FB69
:1003A000D3C3C2CA0D0A00002D2D2D2D2D2D2D2DAC
:1003B0002D2D2D2D2D2D2D2D2D2D2D2D2D2D2D2D6D
:1003C0002D2D2D2D2D2D2D2D2D2D2D2D2D2D2D2D5D
:1003D0002D2D2D2D2D0D0A0A0000000070472DE94E
:1003E000F0410246002500260020002300240027BB
:1003F00091F803C00CF00F0591F803C00CF0100C3D
:10040000BCF1000F03D091F802C04CEA050591F849
:1004100000C0BCF1000F31D0146800202BE04FF079
:10042000010C0CFA00F3B1F800C00CEA03069E427E
:1004300020D183004FF00F0C0CFA03F7BC4305FAF0
:1004400003FC4CEA040491F803C0BCF1280F06D168
:100450004FF0010C0CFA00FCC2F814C00AE091F84D
:1004600003C0BCF1480F05D14FF0010C0CFA00FCA1
:10047000C2F810C0401C0828D1D31460B1F800C0E5
:10048000BCF1FF0F34DD546800202EE000F1080CB1
:100490004FF0010808FA0CF3B1F800C00CEA0306AB
:1004A0009E4221D183004FF00F0C0CFA03F7BC439E
:1004B00005FA03FC4CEA040491F803C0BCF1280FD0
:1004C00005D100F1080C08FA0CF8C2F8148091F874
:1004D00003C0BCF1480F07D100F1080C4FF0010830
:1004E00008FA0CF8C2F81080401C0828CED35460DB
:1004F000BDE8F0810161704700BFFEE708B501214A
:10050000442000F095F80120ADF8000028208DF877
:10051000030069460648FFF762FF1C20ADF80000A3
:1005200048208DF8030069460248FFF758FF08BDD0
:10053000000801400018014008B50121482000F0E2
:1005400077F82020ADF8000010208DF8030003207C
:100550008DF8020069460948FFF741FF202107484E
:10056000FFF7C8FF2020ADF8000069460448FFF7F8
:1005700036FF20210248FFF7BDFF08BD000C0140F7
:100580000018014000BFFEE77047000070B5002171
:1005900000230F22C47804B3154C246804F4E064EB
:1005A000C4F5E064210AC1F10403CA40447804FAA6
:1005B00003F184781440214309010E4C0678A155BB
:1005C000047804F01F050124AC4005786D11AD00DE
:1005D00005F1E025C5F8004109E0047804F01F05A5
:1005E0000124AC40044D0678761145F8264070BDD4
:1005F0000CED00E000E400E080E100E0024901438E
:10060000024A1160704700000000FA050CED00E09E
:1006100029B1064AD2690243044BDA6104E0034A75
:10062000D2698243014BDA6170470000001002403A
:1006300029B1064A92690243044B9A6104E0034AD5
:1006400092698243014B9A6170470000001002409A
:1006500030B500210022002400232D4D6D6805F0E7
:100660000C0121B1042905D0082923D105E0294D29
:10067000056022E0274D05601FE0254D6D6805F4FB
:100680007012234D6D6805F48034022505EB92420B
:100690001CB9214D554305600BE01D4D6D6805F4F7
:1006A00000351DB11C4D5543056002E0194D554301
:1006B000056002E0174D056000BF00BF144D6D6876
:1006C00005F0F0010909154D6B5C0568DD404560DA
:1006D0000F4D6D6805F4E061090A104D6B5C4568CB
:1006E000DD4085600A4D6D6805F46051C90A0B4D07
:1006F0006B5C4568DD40C560054D6D6805F44041A3
:10070000890B074D6B5CC568B5FBF3F5056130BD22
:100710000010024000127A0000093D001000002085
:100720002000002010B500F001F810BD0CB500202D
:10073000019000903348006840F4803031490860EF
:1007400000BF3048006800F4003000900198401C61
:100750000190009818B90198B0F5A06FF1D129481F
:10076000006800F4003010B10120009001E000208A
:1007700000900098012843D12348006840F0100001
:10078000214908600846006820F003000860084618
:10079000006840F0020008601A4840681949486043
:1007A0000846406848600846406840F480604860F9
:1007B0000846406820F47C1048600846406840F4D1
:1007C000E81048600846006840F08070086000BF8C
:1007D0000C48006800F000700028F9D00948406813
:1007E00020F00300074948600846406840F00200D6
:1007F000486000BF0348406800F00C000828F9D1A9
:100800000CBD00000010024000200240042808D166
:100810004FF0E021096941F004014FF0E02211613D
:1008200007E04FF0E021096921F004014FF0E022D8
:100830001161704710B502F0C5FC012801D002F02B
:100840005FF910BD70B505460420FFF7DFFF1048C3
:1008500000681049B0FBF1F00F4908700C480068BF
:100860000C49B0FBF1F44FF47A70444301200B497A
:1008700008804FF0E020006940F002004FF0E021D6
:10088000086108464461006940F00100086170BDDC
:100890002400002040420F003C0000203E000020C9
:1008A00010B51348006840F001001149086008467F
:1008B0004068104908400E494860084600680E49E3
:1008C00008400B4908600846006820F48020086052
:1008D0000846406820F4FE0048604FF41F0088601E
:1008E000FFF720FF4FF000600449086010BD0000D2
:1008F000001002400000FFF8FFFFF6FE08ED00E0E8
:1009000010B50121054800F086F810B104A000F0F0
:1009100075FA0121014800F06FF810BD0004004095
:1009200054494D33CAE4B3F62E2E2E2E2E2E2E0D04
:100930000A00000010B50121054800F06CF810B164
:1009400004A000F05BFA0121014800F055F810BD49
:100950000008004054494D34CAE4B3F62E2E2E2E22
:100960002E2E2E0D0A00000010B50121064800F0C1
:1009700052F820B105480068401C04490860012174
:10098000014800F039F810BD001000403800002088
:100990007FB505460C4601211020FFF739FEADF862
:1009A0000850ADF804400020ADF80A00ADF806008C
:1009B00001A9104800F04AF8012211460D4800F044
:1009C0003BF801210B4800F017F836208DF80000A5
:1009D00005208DF8010000208DF8020001208DF81F
:1009E00003006846FFF7D2FD0121024800F007F836
:1009F0007FBD000000100040CA430282704721B151
:100A0000028842F00102028004E002884FF6FE7381
:100A10001A400280704730B50246002000230024AF
:100A2000158A05EA0103958905EA010413B10CB1A1
:100A3000012000E0002030BD1AB183890B4383817F
:100A400002E083898B438381704700000022028883
:100A50001D4B98420ED01D4B98420BD0B0F1804FE9
:100A600008D01B4B984205D01A4B984202D01A4B23
:100A7000984204D14FF68F731A404B881A43174B94
:100A8000984207D0164B984204D04FF6FF431A40C5
:100A9000CB881A4302808B8883850B8803850A4B99
:100AA00098420BD0094B984208D00E4B984205D083
:100AB0000D4B984202D00D4B984201D10B7A038620
:100AC0000123838270470000002C01400034014064
:100AD0000004004000080040000C004000100040EE
:100AE0000014004000400140004401400048014023
:100AF00010B540F225511D4800F0B8F810B31B485E
:100B000000F070F9C4B21A48008800F40040C8B977
:100B10001748008800F4804060B10A2C03D0002000
:100B20001349088020E01248008840F40040104932
:100B3000088019E00D2C06D10D48008840F4804053
:100B40000B49088010E00A480088C0F30D000949ED
:100B50000C5407480088401C054908800846008856
:100B6000C72801DD0020088010BD000000380140CA
:100B700040000020C400002010B586B004460121CA
:100B80000420FFF755FD01218803FFF751FD4FF4C5
:100B90000070ADF8140003208DF8160018208DF8B1
:100BA000170005A91E48FFF71AFC4FF48060ADF846
:100BB000140004208DF8170005A91948FFF70FFC51
:100BC00001940020ADF80800ADF80A00ADF80C0063
:100BD000ADF810000C20ADF80E0001A9114800F08E
:100BE00095F801210F4800F028F840210D4800F049
:100BF0001BF8012240F225510A4800F061F8252037
:100C00008DF8000003208DF801008DF8020001200E
:100C10008DF803006846FFF7B9FC06B010BD000070
:100C2000000801400038014001F40072B2F5007F75
:100C300000D100BFCA430280704721B1828942F4CB
:100C40000052828104E082894DF6FF731A4082814E
:100C5000704702460020B1F5007F00D100BF138825
:100C60000B400BB1012000E00020704770B5024638
:100C7000002400230025002040F66A16B14200D16E
:100C800000BFC1F3421501F01F03012606FA03F36A
:100C9000012D02D19689334006E0022D02D1168A39
:100CA000334001E0968A33400C12012606FA04F420
:100CB0001688344013B10CB1012000E0002070BD53
:100CC000F0B50346002400260025002040F66A17F0
:100CD000B94200D100BF1846C1F3421401F01F060B
:100CE000012707FA06F5012C01D10C3004E0022C93
:100CF00001D1103000E014301AB107682F430760AB
:100D000002E00768AF430760F0BD00002DE9F0473F
:100D100086B005460E460024A24600BFA146002725
:100D2000B08900B100BF2F462C8A4CF6FF700440FA
:100D3000F08804432C82AC894EF6F3100440B0884E
:100D400031890843718908430443AC81AC8A4FF66A
:100D5000FF400440B0890443AC8201A8FFF778FC4F
:100D60001F48874202D1DDF810A001E0DDF80CA099
:100D7000A88900F4004040B10AEBCA0000EB0A1059
:100D800031684900B0FBF1F807E00AEBCA0000EB5C
:100D90000A1031688900B0FBF1F86420B8FBF0F06C
:100DA00004012009642101FB1089A88900F4004096
:100DB00040B1322000EBC900B0FBF1F000F00700B9
:100DC000044308E0322000EB09106421B0FBF1F08D
:100DD00000F00F0004432C8106B0BDE8F08700004E
:100DE0000038014001468888C0F308007047C1F30D
:100DF00008028280704700BFFEE700000FB4054B79
:100E000010B503A9044A029800F02CF810BC5DF854
:100E100014FB0000C9100008C00000200FB4084BEC
:100E200010B504A902AA039800F01CF8044602A910
:100E3000002000F0F3F8204610BC5DF814FB000021
:100E40001D10000802E008C8121F08C1002AFAD1CC
:100E500070477047002001E001C1121F002AFBD13A
:100E6000704700002DE9FF4F8BB09A460F460546AC
:100E7000002606E025280BD052460D9990476D1CA0
:100E8000761C28780028F5D10FB03046BDE8F08FE9
:100E90000024A0460122604900E0044315F8013F08
:100EA000203B02FA03F00842F7D128782E2817D108
:100EB00015F8010F44F004042A280ED06FF02F0219
:100EC0002878A0F1300109290AD808EB880102EB43
:100ED000410100EB01086D1CF2E757F8048B6D1C13
:100EE000287869283ED006DC0028CDD063280BD0B6
:100EF000642804D136E0732810D075284BD05246B0
:100F00000D999047761C85E017F8040B8DF80000CA
:100F100000208DF80100E946012003E057F8049B0A
:100F20004FF0FF3061074FF0000401D40AE0641C69
:100F300044450DDA8442FADB19F804100029F6D191
:100F400006E0641C8442FCDB19F804100029F8D187
:100F5000264404E019F8010B52460D999047641E8F
:100F6000F8D257E001CF4FF00A0B002802DA4042D6
:100F70002D2102E0210504D52B218DF8241001211B
:100F800003E0E10705D02021F7E70DF120090891E2
:100F90000CE00021F9E701CF4FF00A0BF9E75946C1
:100FA000FFF764F901F1300209F8012D0028F6D1AC
:100FB000ADEB090000F1200B600701D44FF00108F0
:100FC000D84502DDA8EB0B0000E00020804600249D
:100FD00006E009A85246005D0D999047641C761CF6
:100FE00008988442F5DB04E0302052460D99904782
:100FF000761CB8F10001A8F10108F5DC05E019F84C
:10100000010B52460D999047761CBBF10001ABF1E4
:10101000010BF4DC6D1C34E7092801000A68531C3D
:101020000B601070704700002DE9F04107463E4606
:101030002EB940F2FB4216A11AA0FFF7DFFE1D48B1
:101040000068864201D100241EE001F015F87569A0
:1010500001F054F818480068854203D0174800682A
:10106000854201D102240FE01548854205D1B06ABE
:1010700008B9032408E0022406E01248854200D0A3
:101080000DB9042400E001242046BDE8F0810000F1
:101090004672656552544F535C7461736B732E6373
:1010A000000000004572726F723A25732C25640DA2
:1010B0000A00000044000020480000204C000020EE
:1010C000AC0400209804002070B504460D46E1B23F
:1010D0000548FFF78CFE00BF80210348FFF7B9FDEC
:1010E0000028F9D0204670BD0038014013E00020F0
:1010F00009490860C82001F02BF908A0FFF77EFE1F
:1011000001200D49C1F894014FF4487001F020F915
:101110000AA0FFF773FEEAE7948121424C4544316F
:101120005F5461736B2052756E6E696E672C4C450F
:1011300044325F4F4E0D0A00008021424C4544313D
:101140005F5461736B2052756E6E696E672C4C45EF
:1011500044325F4F46460D0A0000000013E00020B5
:10116000094908604FF4487001F0F2F807A0FFF752
:1011700045FE01200C49C1F89401C82001F0E8F8AF
:101180000AA0FFF73BFEEAE7940123424C454432B4
:101190005F5461736B2052756E6E696E672C4C459F
:1011A00044325F4F4E0D0A00000023424C4544324A
:1011B0005F5461736B2052756E6E696E672C4C457F
:1011C00044325F4F46460D0A000000001CB548201F
:1011D000FFF738FB4FF44070FFF710FAFFF7ACF958
:1011E000FFF78CF94FF4E130FFF7C6FC472163208D
:1011F000FFF7CEFB08A0FFF701FE0E4801210023F8
:101200008022CDE900100CA10E4801F0ABFF01F0E7
:1012100051FB00201CBD00004672656552544F53BF
:1012200020435055C0FBD3C3C2CACDB3BCC60D0AC0
:10123000000000000000002073746172745F74612C
:10124000736B0000991E00082DE9F04105460E461B
:101250001C4807681C480068001D00F067FE50B974
:101260001948006890F82C10012088401749096837
:10127000814316480160681C38B936B112480168CC
:10128000091D134800F0ECFE1AE07C190E480068B6
:101290004460BC4207D20C480168091D0D48006833
:1012A00000F0C4FE0CE008480168091D0A48006807
:1012B00000F0BCFE09480068844201D2074804607F
:1012C000BDE8F08158000020440000205C000020B0
:1012D000AC0400204C0000204800002074000020D6
:1012E00010B5044600F0C8FE24480068401C23499D
:1012F00008602348006840B9214804600846006837
:1013000001280DD100F0ECF90AE01E48006838B958
:101310001B480068C06AE16A884201D81848046026
:1013200019480068401C1849086008460068606455
:1013300094F82C1001208840144909680843134987
:101340000860E16A01EB8101114A02EB8100211D75
:1013500000F086FE00F0D2FE0A48006868B1084836
:101360000068C06AE16A884207D24FF0805009499C
:101370000860BFF34F8FBFF36F8F10BD5400002084
:101380004400002060000020700000205C0000206D
:10139000DC01002004ED00E010B500F06DFE104807
:1013A0000068D0B90F4800F031FE0F4800F02EFE63
:1013B0000C480E4908600C480D49086000220C21B9
:1013C0000A2001F0B7FB064908600846006820B112
:1013D00008A10348006800F07FFF00F08FFE10BDF9
:1013E00090000020C0040020D404002088000020C9
:1013F0008C000020546D72510000000070B523E095
:1014000001F0B2FA1348006808B9012000E000209A
:10141000054602F063F8BDB900F02EFE0D48C06825
:10142000C468201D00F082FD0B480068401E0A4978
:1014300008600A480068401E0849086000F05EFE27
:10144000204600F060F800BF044800680028D7D1AB
:1014500070BD0000980400205400002050000020BF
:1014600070B504460D46206C70B1216CE0680844EC
:10147000E0606168E068884201D32068E060284647
:10148000226CE168FEF7BEFE70BD2DE9F041044616
:101490000F4615464FF00008A66B206C40B9206837
:1014A00060BB606801F054FF80460020606025E06A
:1014B0007DB93946226CA068FEF7A4FE216CA068B5
:1014C0000844A060D4E90110884217D32068A060C6
:1014D00014E03946226CE068FEF794FE216CE06867
:1014E000401AE0602168E068884203D2216C60689D
:1014F000401AE060022D01D106B1761E701CA06377
:101500004046BDE8F08110B50446206B00F02CFE8B
:10151000204600F029FE10BD0146084A12681268F4
:101520000AB9012200E000220A600A6822B9034ACF
:101530001268D268106800E0002070478800002020
:1015400030B54FF41043174800F007042CB1C01D0C
:1015500020F00700134C041B1B1B0246124C226098
:101560000024114D6C60D018083820F007000F4C93
:10157000206000240D4D2D686C600C4D2D682C6092
:101580001146441A4C60094C24680C60084D4C68A4
:101590002C60084D4C682C604FF00044064D2C60C8
:1015A00030BD0000E80400209C000020A4000020C2
:1015B000AC000020A8000020B000002000BFFFF712
:1015C0001DFF064800680128F9D94FF080500449F2
:1015D0000860BFF34F8FBFF36F8FF0E7DC0100208F
:1015E00004ED00E02DE9F04106460D461746984609
:1015F000069C0DB9246000E02760E66325640121A4
:10160000204601F0B5FB84F84C80BDE8F081000075
:101610002DE9F05F82460F4690469B460A9E0C9C41
:101620004FEA8801A522206BFEF7FEFDA8F101001C
:10163000216B01EB800929F0070909F0070008B9BF
:10164000012000E0002028B940F22B321BA120A08D
:10165000FFF7D4FB002507E0795D04F13400415524
:10166000785D00B902E06D1C102DF5D300BF00219C
:1016700043200155202E00D31F26E662E664002099
:101680002065201D00F0CFFC04F1180000F0CBFC19
:101690002461C6F12000A061646200206065A0653D
:1016A00084F85C005A465146484600F0E3FB20604F
:1016B0000B9808B10B980460BDE8F09F4672656511
:1016C00052544F535C7461736B732E6300000000BF
:1016D0004572726F723A25732C25640D0A00000062
:1016E00010B5002407E004EB84010F4A02EB8100EF
:1016F00000F08CFC641C202CF5D30C4800F086FC18
:101700000B4800F083FC0B4800F080FC0A4800F016
:101710007DFC0A4800F07AFC044809490860044846
:101720000849086010BD0000DC0100205C040020B6
:10173000700400208404002098040020AC040020E1
:10174000480000204C00002010B50146164800E07B
:10175000006803688B42FBD30246436813448B4204
:1017600004D143684C682344436001460A464B68F1
:1017700013440468A34211D10C4C03682468A342AB
:1017800008D04B680468646823444B6003681B6896
:101790000B6005E0054B1B680B6001E003680B6004
:1017A000884200D0016010BD9C000020A4000020F1
:1017B0002DE9F04104460D4616461F464FF000083D
:1017C00065602461B5420CD8F01BA169884202D340
:1017D0004FF0010811E0211D0948006800F026FCC7
:1017E0000BE0BE4204D2BD4202D34FF0010804E038
:1017F000211D0448006800F019FC4046BDE8F08156
:101800008C0000208800002070B5054600F034FCF4
:10181000A86B08B9012400E0002400F06FFC20460A
:1018200070BD70B5054600F027FCA86BE96B8842D7
:1018300001D1012400E0002400F060FC204670BDCE
:101840002DE9F04707460C4690460026206848B32D
:10185000204641684968416000F1080142688A42B7
:1018600002D14168496841604168D1F80C9000BFDD
:10187000204641684968416000F1080142688A4297
:1018800002D14168496841604168CD6806EBC600F5
:1018900007EB800143460122284600F019FE761C22
:1018A0004D45E5D13046BDE8F0870000F8B5054666
:1018B0000F4613480068C068C468201D00F036FB5E
:1018C000E069012818D1A06941192B463A46204603
:1018D000FFF76EFF80B1002003462A4601460090C4
:1018E000204601F0C3FE06462EB94FF4027205A150
:1018F00009A0FFF783FA00BF2046616A8847F8BD58
:10190000880000204672656552544F535C74696DBF
:101910006572732E630000004572726F723A257310
:101920002C25640D0A00000070B586B060E00398B5
:1019300000285DDB059C606908B9012000E00020FB
:1019400010B9201D00F0F2FA02A800F0C5F8054613
:1019500003980A284AD2DFE800F00905072C2E4533
:1019600006082D2F00BF00BF00BF00BF0498A2696A
:10197000811803462A462046FFF71AFFC0B12046C9
:10198000616A8847E069012812D10020009004981C
:10199000A169421800231946204601F067FE064659
:1019A0002EB940F2213218A11CA0FFF727FA00BF80
:1019B0001DE000BF1BE000BF0498A061A06908B152
:1019C000012000E0002028B94FF44E720EA113A0B0
:1019D000FFF714FAA06941192B462A462046FFF763
:1019E000E7FE04E0204600F0BFFB00E000BF00BFC0
:1019F00000231A4603A90D48006801F0D5F8002815
:101A000095D106B070BD00004672656552544F53C3
:101A10005C74696D6572732E630000004572726FAD
:101A2000723A25732C25640D0A00000090000020F6
:101A3000F8B505460C4600F097FF684600F04CF8F4
:101A40000646009820BB44B9B54206D801F046FDD1
:101A500031462846FFF72AFF1CE03CB10E480068DB
:101A6000006808B9012000E000200446A91B2246B6
:101A70000A48006800F046FC01F030FD50B94FF014
:101A8000805007490860BFF34F8FBFF36F8F01E0AD
:101A900001F024FDF8BD00008C0000209000002023
:101AA00004ED00E00A490968096809B9012100E06C
:101AB000002121B14FF0FF31064A116006E00449D0
:101AC0000968C968C868034A416811607047000026
:101AD000480000207400002070B5044601F082FB2D
:101AE000054607480068854204D200F00BF8012043
:101AF000206001E00020206001480560284670BD9C
:101B0000980000202DE9F8432DE021480068C068C6
:101B100005681F480068C068C468201D00F006FA08
:101B20002046616A8847E06901281CD1A0694619EE
:101B3000AE4207D966602461211D1548006800F097
:101B400075FA10E0002003462A4601460090204620
:101B500001F08CFD07462FB940F292320DA112A080
:101B6000FFF74CF900BF0A480068006808B9012077
:101B700000E000200028C8D00548D0F800800E48BA
:101B80000068034908600C48C0F80080BDE8F8838D
:101B9000880000204672656552544F535C74696D2D
:101BA0006572732E630000004572726F723A25737E
:101BB0002C25640D0A0000008C0000200246002144
:101BC00001E0521C491C1078A528FAD0890888B277
:101BD000704700000B480068401C08B9012000E075
:101BE000002020B9F42208A111A0FFF707F900BFD7
:101BF000502080F31188BFF34F8FBFF36F8F00BF6A
:101C000000BFFEE7B40000204672656552544F5392
:101C10005C706F727461626C655C525644535C41D7
:101C2000524D5F434D335C706F72742E6300000041
:101C30004572726F723A25732C25640D0A000000FC
:101C400008B500BF6846FFF767FC044620460099C8
:101C5000FFF7EEFEFFF768FEF4E770B5044600F00C
:101C60000BFA94F9455010E0606A08B9012000E0D1
:101C7000002038B904F1240001F0D6FB18B100F0BF
:101C80003DFD00E003E0681E45B2002DECDC00BF26
:101C9000FF2084F8450000F031FA00F0EDF994F9E6
:101CA000445010E0206908B9012000E0002048B944
:101CB00004F1100001F0B8FB08B100F01FFD681E30
:101CC00045B200E001E0002DECDC00BFFF2084F80D
:101CD000440000F013FA70BD70B505460E4631465B
:101CE0002846FEF7BAFA2846FEF7B0FA044602E0A4
:101CF00020202855641C0F2CFAD3002028552819C1
:101D000070BD00002DE9F04104464FF0000800F0DE
:101D10002BFE3E48006808B9FFF712FC3C480068FB
:101D2000204000285FD1A4B1083404F0070080B13E
:101D300004F00700C0F10800044404F0070008B9EB
:101D4000012000E0002020B9BF2232A13AA0FFF715
:101D500055F8002C47D03C480068844243D83B4E9D
:101D60003046056801E02E462D686868A04202D220
:101D700028680028F7D125480068854233D03068AC
:101D800000F10808286830606868001B102813D923
:101D90002F1907F0070008B9012000E0002020B942
:101DA000EC221CA124A0FFF729F86868001B7860CA
:101DB0006C603846FFF7C8FC234968680968081A50
:101DC000214908600846006821490968884203D211
:101DD0001D4800681E4908600D4968680968084385
:101DE00068600020286001F079FB08F0070008B95E
:101DF000012000E0002028B94FF4967205A10EA042
:101E0000FEF7FCFF4046BDE8F0810000A400002082
:101E1000B00000204672656552544F535C706F727B
:101E20007461626C655C4D656D4D616E675C686583
:101E300061705F342E6300004572726F723A2573D1
:101E40002C25640D0A000000A80000209C00002042
:101E5000AC0000200648006830B10549096801F16E
:101E60005000096D491C016001480068704700007E
:101E700044000020001F4FF080730360001F21F01A
:101E800001030360001F034B036014380260203815
:101E900070470000D51B00081CB5044600F0ECF8A4
:101EA0001248022100233222CDE9001010A113486C
:101EB00001F058F91248032100233222CDE9001025
:101EC00010A1134801F04EF9124804210023CA0161
:101ED000CDE9001010A1134801F044F91248006840
:101EE00000F070FA00F00AF91CBD000004000020A8
:101EF0006C6564315F7461736B000000ED10000865
:101F0000080000206C6564325F7461736B00000030
:101F10005D1100080C0000204350555F7461736B25
:101F200000000000C10200080000002001460A690C
:101F3000D1E901309860D1E90103586050688842C6
:101F400001D188685060002008611068401E106050
:101F5000106870472DE9F041054688461646002472
:101F6000202700F001FD2248006880453AD300BFD9
:101F70007F1E07EB87021F4B03EB820104EBC402B9
:101F800005EB82000122FFF75BFC0444002FEFD138
:101F900004EBC40105EB8100022217490968FFF731
:101FA0004FFC044404EBC40105EB810002221349F9
:101FB0000968FFF745FC044404EBC40105EB81000C
:101FC00004220F49FFF73CFC044404EBC40105EB79
:101FD000810003220B49FFF733FC044416B10A4881
:101FE0000068306001F07AFA2046BDE8F081000018
:101FF00054000020DC010020480000204C0000209C
:1020000098040020AC0400203800002000F10801F2
:1020100041604FF0FF31816000F10801C160016152
:1020200000210160704700210161704710B5024630
:102030000B685C1C0CB9106907E002F1080000E0B5
:102040004068446824689C42FAD944684C604C68F3
:10205000A160886041600A611468641C146010BD4E
:1020600042684A6093688B60936859609160086128
:1020700003685B1C0360704710B500BF502080F3FD
:102080001188BFF34F8FBFF36F8F00BF0B480068FD
:10209000401C0A4908600846006801280DD108481C
:1020A0000068C0B208B9012000E0002028B94FF450
:1020B000BD7204A10DA0FEF7A1FE10BDB40000206A
:1020C00004ED00E04672656552544F535C706F72C8
:1020D0007461626C655C525644535C41524D5F437F
:1020E0004D335C706F72742E630000004572726F26
:1020F000723A25732C25640D0A00000010B50B48B8
:10210000006828B940F2811209A113A0FEF776FEFB
:1021100006480068401E054908600846006820B966
:10212000002080F3118800BF00BF10BDB400002064
:102130004672656552544F535C706F727461626C85
:10214000655C525644535C41524D5F434D335C7065
:102150006F72742E630000004572726F723A2573BD
:102160002C25640D0A00000070B506463546002E89
:1021700035D0083D2C461A4960680968084008B106
:10218000012000E0002028B94FF4A07215A11EA084
:10219000FEF734FE206808B9012000E0002028B9CD
:1021A00040F241120FA118A0FEF728FE0C4960680A
:1021B0000968084098B1206888B9094960680968C9
:1021C0008843606000F0D0FB1349606809680844E8
:1021D000114908602046FFF7B7FA01F07FF970BD9A
:1021E000B00000204672656552544F535C706F72A8
:1021F0007461626C655C4D656D4D616E675C6865B0
:1022000061705F342E6300004572726F723A2573FD
:102210002C25640D0A000000A80000200648006874
:102220004FF47A71B0FBF1F0401E4FF0E0214861AD
:1022300007200861704700002400002070B5FDF7FA
:10224000CBFF0546102D11D305F1E02090F8F043A7
:1022500010480078844201DB012000E0002028B90A
:102260004FF42A720CA116A0FEF7C8FD18480068AA
:1022700000F4E06017490968884201D8012000E0B5
:10228000002028B94FF42E7203A10DA0FEF7B6FD71
:1022900070BD0000B80000204672656552544F536F
:1022A0005C706F727461626C655C525644535C4141
:1022B000524D5F434D335C706F72742E63000000AB
:1022C0004572726F723A25732C25640D0A00000066
:1022D0000CED00E0BC000020024600200BE0084BA3
:1022E00053F8303033B9064B43F8301003EBC003DA
:1022F0005A6002E0401C0A28F1D300BF704700007A
:102300008C0100202DE9F04105460E4617462C466B
:10231000FFF7B2FE94F94400401C10B9002084F885
:10232000440094F94500401C10B9002084F8450091
:10233000FFF7E4FEA06B28B93A46314604F12400C9
:1023400000F00CFA2046FFF788FCBDE8F0810000A1
:1023500070B504460025ACB10F48006808B90120EB
:1023600000E0002028B940F2CF420CA110A0FEF7F7
:1023700045FD00F0F9FA00212046FEF765FF01F067
:10238000ADF805463DB94FF080500D490860BFF3E8
:102390004F8FBFF36F8F70BD7C0000204672656564
:1023A00052544F535C7461736B732E6300000000D2
:1023B0004572726F723A25732C25640D0A00000075
:1023C00004ED00E070B50546FFF756FE15B92D483F
:1023D000006800E028460446201DFFF7A7FD78B9F5
:1023E000E06A00EB8000284951F8200040B994F8D9
:1023F0002C10012088402549096881432348016049
:10240000A06A18B104F11800FFF790FD2048006899
:10241000401C1F4908601B480068844209D1211DE7
:102420001C48FFF71DFE1C480068401C1A49086044
:1024300009E01A480068401E184908602046FFF766
:1024400062F8FFF72FFBFFF759FE15480068C0B18F
:102450000C480068844214D11248006808B9012071
:1024600000E0002028B940F265420FA113A0FEF75A
:10247000C5FC4FF0805015490860BFF34F8FBFF384
:102480006F8F70BD44000020DC0100205C00002044
:10249000700000209804002050000020540000200C
:1024A000600000207C0000204672656552544F5346
:1024B0005C7461736B732E63000000004572726F71
:1024C000723A25732C25640D0A00000004ED00E02B
:1024D0002DE9F04107460C4690461E4617B91948AB
:1024E000006800E038460546256005F1340060606C
:1024F000E86A2061286BE061686CA060207B03289B
:1025000007D100F031FAA86A08B10220207300F068
:10251000E5FFE86C6061686DA061052E01D026734F
:1025200003E03846FEF780FD2073B8F1000F04D0B9
:10253000286BFFF743FB208401E000202084BDE8E6
:10254000F081000044000020FEB505460020287000
:102550002B48006802902A49096801EBC1018800F4
:10256000FFF7D0FB0446002C48D06A46204602996B
:10257000FFF7F0FC029064210098B0FBF1F00090AE
:102580000098002837D00020019030E0019800EB3F
:10259000C00004EB800080690099B0FBF1F601985F
:1025A00000EBC00004EB800041682846FFF794FB75
:1025B00005465EB1019800EBC00004EB8000334695
:1025C00010A182692846FEF729FC09E0019800EB7A
:1025D000C00004EB80000EA182692846FEF71EFCB5
:1025E0002846FDF733FE05440198401C0190DDE9C3
:1025F00001018842CAD32046FFF7B6FDFEBD0000A8
:10260000540000200925750909257525250D0A00A6
:1026100009257509093C3125250D0A007FB50546B8
:10262000002028703048006803902F49096801EBAA
:10263000C1018800FFF766FB0446002C53D000223E
:1026400020460399FFF786FC03900020029043E0A8
:10265000029800EBC00004EB8000007B012806D04C
:10266000022806D0032806D0042808D105E0522607
:1026700007E0422605E0532603E0442601E0002659
:1026800000BF00BF029800EBC00004EB800041686F
:102690002846FFF721FB0546029800EBC00004EB3B
:1026A00080008068029901EBC10104EB8101098C73
:1026B000CDE90010029800EBC00004EB8000324628
:1026C0000AA103692846FEF7A9FB2846FDF7BEFDCF
:1026D00005440298401C0290DDE902018842B7D30C
:1026E0002046FFF741FD7FBD540000200925630906
:1026F00025750925750925750D0A00000120014978
:10270000086070476800002070B504460D462CB97B
:1027100040F6063207A10CA0FEF770FB0E480168D8
:1027200018312046FFF782FC01212846FEF78CFD78
:1027300070BD00004672656552544F535C746173FE
:102740006B732E63000000004572726F723A25733E
:102750002C25640D0A0000004400002070B50546D9
:102760000E4614462DB940F6313209A10DA0FEF7F0
:1027700045FB1048016818312846FFF771FC0CB181
:102780004FF0FF3621463046FEF75EFD70BD00007B
:102790004672656552544F535C7461736B732E635C
:1027A000000000004572726F723A25732C25640D8B
:1027B0000A0000004400002070B505462C46002D9C
:1027C0004BD02649E06A0968C96A884245D2A069A7
:1027D00000F0004028B921480068C06AC0F120001C
:1027E000A061E16A01EB81011D4A02EB8101606990
:1027F000884201D1012000E0002050B3201DFFF7E6
:1028000095FB78B9E06A00EB8000154951F820008B
:1028100040B994F82C10012088401249096881437E
:10282000104801600D480068C06AE06294F82C10FE
:10283000012088400B49096808430A490860E16A99
:1028400001EB8101064A02EB8100211DFFF708FC24
:1028500003E002480068C06AE06270BD44000020E6
:10286000DC0100205C00002010B504462CB940F6C5
:10287000C13205A109A0FEF7C1FA0C48006820602A
:102880000B480068606010BD4672656552544F5336
:102890005C7461736B732E63000000004572726F8D
:1028A000723A25732C25640D0A0000006C0000208C
:1028B000580000201CB51B4800210B468022CDE9A2
:1028C000001019A11A4800F04DFC0446012C02D159
:1028D00000F094FE0446012C17D100BF502080F375
:1028E0001188BFF34F8FBFF36F8F00BF4FF0FF30E2
:1028F0001049086001201049086000200F49086055
:102900000F49086000F0ACF80BE0601C08B1012032
:1029100000E0002028B940F284720AA10EA0FEF760
:102920006DFA1CBD7800002049444C4500000000B1
:10293000BD15000874000020600000205800002031
:10294000380000204672656552544F535C746173C1
:102950006B732E63000000004572726F723A25732C
:102960002C25640D0A00000002480068401C014943
:10297000086070477C00002010B52848006818B136
:1029800001202749086047E00020254908602548C4
:10299000006825490860084600682449096888429B
:1029A0000BD92349096801F15400496D1E4A126888
:1029B0001E4B1B68D21A114401601B4800681B495A
:1029C00008601C480068B0FA80F0C0F11F0404EBF6
:1029D0008400194951F8200008B1012000E00020CE
:1029E00028B940F6F62215A119A0FEF707FA04EB64
:1029F0008401114A02EB810041684968416000F19D
:102A0000080142688A4202D14168496841604168D0
:102A1000C968074A116000BF10BD00007C0000209B
:102A20006800002038000020840000208000002082
:102A3000440000205C000020DC0100204672656537
:102A400052544F535C7461736B732E63000000002B
:102A50004572726F723A25732C25640D0A000000CE
:102A60001CB52248014609780191FF2102461170E8
:102A70000146097800919DF8001001F050011C4AB0
:102A8000117007211B4A116009E01A490968491EA3
:102A9000184A11609DF800104906090E00919DF832
:102AA000001001F080018029EFD012490968090265
:102AB000104A11601146098801F4E06111600B4A67
:102AC000019911700C48006840F470000A490860D0
:102AD0000846006840F070400860FFF79FFB002048
:102AE00006490860FDF742FB00201CBD00E400E041
:102AF000B8000020BC00002020ED00E0B400002061
:102B000010B500BF502080F31188BFF34F8FBFF383
:102B10006F8F00BF00F06CFB18B14FF0805004497C
:102B2000086000BF002080F3118800BF10BD0000C6
:102B300004ED00E02DE9F84305460E4690460DB140
:102B4000012000E0002028B94FF4C4720DA112A0AA
:102B5000FEF754F90EB9002701E005FB06F707F16F
:102B60005000FFF7CFF8044644B104F15009434642
:102B70004A46314628460094FEF734FD2046BDE81B
:102B8000F88300004672656552544F535C71756559
:102B900075652E63000000004572726F723A2573EE
:102BA0002C25640D0A0000002DE9FF4782B0054680
:102BB0000E461F464FF0000A2C462CB940F2DC426C
:102BC00061A166A0FEF71AF90EB9206C08B90120C0
:102BD00000E0002028B940F2DD425BA15FA0FEF7D3
:102BE0000DF900F0EFFA08B9049808B9012000E0E7
:102BF000002028B94FF49C6253A158A0FEF7FEF8BC
:102C000000BFFFF739FAD4F83890B9F1000F3DD082
:102C1000D4F80C8031462046FEF722FCDFB9A9F13A
:102C20000100A063206810B9FFF714F96060206903
:102C300008B9012000E0002010BB04F1100000F0F2
:102C4000F3FBE8B14FF0805048490860BFF34F8F65
:102C5000BFF36F8F14E0C4F80C80606A08B90120DC
:102C600000E0002060B904F1240000F0DDFB38B181
:102C70004FF080503D490860BFF34F8FBFF36F8F17
:102C8000FFF73CFA012006B0BDE8F087049818B9B8
:102C9000FFF734FA0020F6E7BAF1000F04D16846D6
:102CA000FFF7E2FD4FF0010AFFF728FAFFF75CFE9D
:102CB000FFF7E2F994F94400401C10B9002084F8B1
:102CC000440094F94500401C10B9002084F84500E8
:102CD000FFF714FA04A9684600F0F4F940BB204657
:102CE000FEF792FDF0B1206830B9FFF7C5F96068D2
:102CF000FFF762FDFFF702FA04F124000499FFF7E1
:102D000003FD2046FEF7A9FF00F0E8FB00287FF452
:102D100078AF4FF0805015490860BFF34F8FBFF375
:102D20006F8F6EE72046FEF798FF00F0D7FB68E74D
:102D30002046FEF792FF00F0D1FB2046FEF764FD2F
:102D40000028EED000209EE74672656552544F532E
:102D50005C71756575652E63000000004572726FC9
:102D6000723A25732C25640D0A00000004ED00E082
:102D700070B505460E462C462CB940F21B121EA11A
:102D800022A0FEF73BF8FFF777F9D4E90F1220688D
:102D900001FB020060600020A0632068A060E06B7F
:102DA000401E226C216800FB0210E060FF2084F8C6
:102DB000440084F845009EB9206908B9012000E06C
:102DC0000020A8B904F1100000F02EFB80B14FF0F4
:102DD000805012490860BFF34F8FBFF36F8F07E039
:102DE00004F11000FFF712F904F12400FFF70EF9C7
:102DF000FFF784F9012070BD4672656552544F5348
:102E00005C71756575652E63000000004572726F18
:102E1000723A25732C25640D0A00000004ED00E0D1
:102E20002DE9FF4383B0064688461D464FF0000952
:102E300034462CB940F2D92258A15DA0FDF7DEFF3F
:102E4000B8F1000F01D1206C08B9012000E000208A
:102E500028B940F2DA2251A155A0FDF7CFFF022D8B
:102E600002D1E06B012801D1012000E0002028B947
:102E700040F2DB2249A14EA0FDF7C0FF00F0A2F90D
:102E800008B9059808B9012000E0002028B940F2EF
:102E9000DE2242A146A0FDF7B1FF00BFFFF7ECF82C
:102EA000A06BE16B884201D3022D28D12A4641460E
:102EB0002046FEF7EAFA0746606A08B9012000E0FA
:102EC000002068B904F1240000F0AEFA88B14FF098
:102ED00080503B490860BFF34F8FBFF36F8F08E00E
:102EE0003FB14FF0805036490860BFF34F8FBFF3BA
:102EF0006F8FFFF703F9012007B0BDE8F083059855
:102F000018B9FFF7FBF80020F6E7B9F1000F04D17C
:102F100001A8FFF7A9FC4FF00109FFF7EFF8FFF751
:102F200023FDFFF7A9F894F94400401C10B90020D4
:102F300084F8440094F94500401C10B9002084F83E
:102F40004500FFF7DBF805A901A800F0BBF8F0B9D0
:102F50002046FEF766FCA0B104F110000599FFF7CA
:102F6000D3FB2046FEF779FE00F0B8FA002895D191
:102F70004FF0805012490860BFF34F8FBFF36F8F3F
:102F80008CE72046FEF769FE00F0A8FA86E72046A7
:102F9000FEF763FE00F0A2FA0020ADE74672656519
:102FA00052544F535C71756575652E6300000000C7
:102FB0004572726F723A25732C25640D0A00000069
:102FC00004ED00E02DE9F05F07468A4690461E4674
:102FD0003C462CB940F29F3231A136A0FDF70EFFDE
:102FE000BAF1000F01D1206C08B9012000E00020E7
:102FF00028B94FF468722AA12EA0FDF7FFFE022E19
:1030000002D1E06B012801D1012000E0002028B9A5
:1030100040F2A13222A127A0FDF7F0FEFFF70EF942
:1030200000BF5021EFF3118081F31188BFF34F8F60
:10303000BFF36F8F00BF0546A06BE16B884201D3E1
:10304000022E23D194F945B0324651462046FEF770
:103050001CFA0BF1010088B9606A08B9012000E090
:10306000002080B904F1240000F0DEF958B1B8F175
:10307000000F08D00120C8F8000004E00BF10100A7
:1030800040B284F845004FF0010901E04FF000091B
:1030900000BF85F3118800BF4846BDE8F09F0000DF
:1030A0004672656552544F535C71756575652E6344
:1030B000000000004572726F723A25732C25640D72
:1030C0000A0000002DE9F04104460D462CB940F6F7
:1030D000CB3219A11DA0FDF791FE2DB940F6CC32DF
:1030E00015A11AA0FDF78AFEFEF7C6FF1B48076868
:1030F0002868401C08B9002619E0194920680968A9
:10310000884204D06068B84201D801260FE06068A8
:10311000381A2968884209D228686168791A401AE1
:1031200028602046FFF7A0FB002600E00126FEF7FE
:10313000E5FF3046BDE8F0814672656552544F5355
:103140005C7461736B732E63000000004572726FD4
:10315000723A25732C25640D0A00000058000020E7
:103160006C0000202DE9FF4F85B080468946174648
:10317000DDE912ABB800FEF7C5FD064656B160208A
:10318000FEF7C0FD04460CB1266304E03046FEF7AE
:10319000EBFF00E000247CB10020CDE900ABCDE9DD
:1031A00002403A4649464046089BFEF731FA20461F
:1031B000FEF796F8012501E04FF0FF35284609B0EB
:1031C000BDE8F08F0549096809B9012005E0044907
:1031D000096809B9022000E0002070476000002063
:1031E0007C0000200149086870470000580000205A
:1031F0002DE9F0414FF0000841480068002872D1E5
:1032000040480068451C3F480560EDB93E480068ED
:10321000006808B9012000E0002028B940F6D91262
:103220003AA13FA0FDF7EAFD37480768404800682B
:10323000354908603E4807603E480068401C3D49EB
:103240000860FEF72FFC00BF3B48006885423CD376
:1032500000BF2D480068006808B9012000E0002088
:1032600020B14FF0FF30344908602DE02648006857
:10327000C068C4686668B54202D22F48066023E081
:10328000201DFEF753FEA06A18B104F11800FEF7E6
:103290004DFE94F82C100120884028490968084305
:1032A00026490860E16A01EB8101254A02EB8100B1
:1032B000211DFEF7D5FE2349E06A0968C96A8842E4
:1032C000C7D34FF00108C4E700BF1E480068C06ABA
:1032D00000EB80001A4951F82000012801D94FF075
:1032E000010805E0FFE718480068401C164908601F
:1032F0001648006808B14FF001084046BDE8F0816B
:103300007C000020580000204800002046726565BF
:1033100052544F535C7461736B732E630000000052
:103320004572726F723A25732C25640D0A000000F5
:103330004C0000206C000020740000205C00002085
:10334000DC01002044000020640000206800002010
:1033500070B505462C460026002D4BD02648006847
:10336000844201D1012000E0002028B940F6C76264
:1033700022A127A0FDF742FD206D28B940F6C962C1
:103380001EA123A0FDF73AFD206D401E2065E16CD3
:10339000E06A88422ED0206D60BB201DFEF7C6FD7E
:1033A00078B9E06A00EB80001D4951F8200040B96F
:1033B00094F82C10012088401A4909688143194863
:1033C0000160E06CE062E06AC0F12000A06194F866
:1033D0002C100120884013490968084311490860EE
:1033E000E16A01EB81010E4A02EB8100211DFEF72B
:1033F00037FE0126304670BD4400002046726565E8
:1034000052544F535C7461736B732E630000000061
:103410004572726F723A25732C25640D0A00000004
:10342000DC0100205C00002070B50646F068C4682E
:103430002CB940F661321AA11EA0FDF7DFFC04F1A1
:103440001800FEF773FD1F480068A8B9201DFEF79D
:103450006DFD94F82C10012088401B490968084331
:1034600019490860E16A01EB8101184A02EB810009
:10347000211DFEF7F5FD04E004F118011448FEF7E4
:10348000EFFD1449E06A0968C96A884204D9012538
:1034900001201149086000E00025284670BD0000A9
:1034A0004672656552544F535C7461736B732E633F
:1034B000000000004572726F723A25732C25640D6E
:1034C0000A0000007C0000205C000020DC010020DD
:1034D00084040020440000206800002070B500240F
:1034E00000263448006828B94FF4FD6232A137A0A5
:1034F000FDF784FCFEF7C0FD2E480068401E2D49F4
:1035000008600846006800284FD134480068002849
:103510004BD024E03248C068C46804F11800FEF7BC
:1035200005FD201DFEF702FD94F82C1001208840B7
:103530002C49096808432B490860E16A01EB8101C5
:10354000294A02EB8100211DFEF78AFD2749E06A26
:103550000968C96A884202D30120254908602048C9
:10356000006808B9012000E000200028D2D00CB18A
:10357000FEF798FA1F48056865B100BFFFF738FEEF
:1035800010B101201A4908606D1E002DF6D10020EF
:10359000184908601648006838B1012630071649F6
:1035A0000860BFF34F8FBFF36F8FFEF7A7FD304664
:1035B00070BD00007C0000204672656552544F5378
:1035C0005C7461736B732E63000000004572726F50
:1035D000723A25732C25640D0A0000005400002067
:1035E000840400205C000020DC0100204400002056
:1035F000680000206400002004ED00E01CB50024F9
:10360000FDF7CAFE0B48006858B10B481F21002384
:103610004FF48072CDE9001008A10A48FFF7A2FD1F
:1036200004462CB940F2331207A10CA0FDF7E6FBCB
:1036300020461CBD9000002094000020546D722094
:1036400053766300411C00084672656552544F531F
:103650005C74696D6572732E630000004572726F51
:10366000723A25732C25640D0A0000002DE9FE43F3
:1036700004460D4616461F46DDF828804FF0000927
:103680002CB94FF4D37216A11AA0FDF7B7FB1D4851
:10369000006810B3009501960294062D15DAFFF725
:1036A00091FD022808D1002342466946154800686A
:1036B000FFF7B6FB814610E000231A466946114821
:1036C0000068FFF7ADFB814607E000233A466946F4
:1036D0000C480068FFF776FC81464846BDE8FE834B
:1036E0004672656552544F535C74696D6572732EF2
:1036F000630000004572726F723A25732C25640DC9
:103700000A00000090000020283700080000002078
:10371000C4000000440E0008EC370008C40000207C
:1037200024980000540E0008000000000000000073
:10373000000000000000000000000000010203047F
:1037400001020304060708090204060800A24A044D
:103750000000000000000000010203040607080941
:103760000000000000000000000000000000000059
:103770000000000000000000000000000000000049
:103780000000000000000000000000000000000039
:103790000000000000000000000000000000000029
:1037A0000000000000000000000000000000000019
:1037B0000000000000000000000000000000000009
:1037C00000000000000000000000000000000000F9
:1037D000000000000000000000000000AAAAAAAA41
:0C37E000000000000000000000000000DD
:0400000508000131BD
:00000001FF
